{
	"contracts/alyra/1_People.sol": {
		"People": {
			"abi": [
				{
					"inputs": [
						{
							"internalType": "string",
							"name": "_name",
							"type": "string"
						},
						{
							"internalType": "uint256",
							"name": "_age",
							"type": "uint256"
						}
					],
					"name": "add",
					"outputs": [],
					"stateMutability": "nonpayable",
					"type": "function"
				},
				{
					"inputs": [
						{
							"internalType": "string",
							"name": "_name",
							"type": "string"
						},
						{
							"internalType": "uint256",
							"name": "_age",
							"type": "uint256"
						}
					],
					"name": "modifyPerson",
					"outputs": [],
					"stateMutability": "nonpayable",
					"type": "function"
				},
				{
					"inputs": [],
					"name": "moi",
					"outputs": [
						{
							"internalType": "string",
							"name": "name",
							"type": "string"
						},
						{
							"internalType": "uint256",
							"name": "age",
							"type": "uint256"
						}
					],
					"stateMutability": "view",
					"type": "function"
				},
				{
					"inputs": [
						{
							"internalType": "uint256",
							"name": "",
							"type": "uint256"
						}
					],
					"name": "persons",
					"outputs": [
						{
							"internalType": "string",
							"name": "name",
							"type": "string"
						},
						{
							"internalType": "uint256",
							"name": "age",
							"type": "uint256"
						}
					],
					"stateMutability": "view",
					"type": "function"
				},
				{
					"inputs": [],
					"name": "remove",
					"outputs": [],
					"stateMutability": "nonpayable",
					"type": "function"
				}
			],
			"devdoc": {
				"kind": "dev",
				"methods": {},
				"version": 1
			},
			"evm": {
				"assembly": "    /* \"contracts/alyra/1_People.sol\":66:863  contract People {... */\n  mstore(0x40, 0x80)\n  callvalue\n  dup1\n  iszero\n  tag_1\n  jumpi\n  0x00\n  dup1\n  revert\ntag_1:\n  pop\n  dataSize(sub_0)\n  dup1\n  dataOffset(sub_0)\n  0x00\n  codecopy\n  0x00\n  return\nstop\n\nsub_0: assembly {\n        /* \"contracts/alyra/1_People.sol\":66:863  contract People {... */\n      mstore(0x40, 0x80)\n      callvalue\n      dup1\n      iszero\n      tag_1\n      jumpi\n      0x00\n      dup1\n      revert\n    tag_1:\n      pop\n      jumpi(tag_2, lt(calldatasize, 0x04))\n      shr(0xe0, calldataload(0x00))\n      dup1\n      0x13bc0194\n      eq\n      tag_3\n      jumpi\n      dup1\n      0x36555b85\n      eq\n      tag_4\n      jumpi\n      dup1\n      0x90736130\n      eq\n      tag_5\n      jumpi\n      dup1\n      0xa2f9eac6\n      eq\n      tag_6\n      jumpi\n      dup1\n      0xa7f43779\n      eq\n      tag_7\n      jumpi\n    tag_2:\n      0x00\n      dup1\n      revert\n        /* \"contracts/alyra/1_People.sol\":327:517  function modifyPerson (string calldata _name, uint _age) public {... */\n    tag_3:\n      tag_8\n      0x04\n      dup1\n      calldatasize\n      sub\n      dup2\n      add\n      swap1\n      tag_9\n      swap2\n      swap1\n      tag_10\n      jump\t// in\n    tag_9:\n      tag_11\n      jump\t// in\n    tag_8:\n      stop\n        /* \"contracts/alyra/1_People.sol\":561:760  function add(string calldata _name, uint _age) public {... */\n    tag_4:\n      tag_12\n      0x04\n      dup1\n      calldatasize\n      sub\n      dup2\n      add\n      swap1\n      tag_13\n      swap2\n      swap1\n      tag_10\n      jump\t// in\n    tag_13:\n      tag_14\n      jump\t// in\n    tag_12:\n      stop\n        /* \"contracts/alyra/1_People.sol\":196:213  Person public moi */\n    tag_5:\n      tag_15\n      tag_16\n      jump\t// in\n    tag_15:\n      mload(0x40)\n      tag_17\n      swap3\n      swap2\n      swap1\n      tag_18\n      jump\t// in\n    tag_17:\n      mload(0x40)\n      dup1\n      swap2\n      sub\n      swap1\n      return\n        /* \"contracts/alyra/1_People.sol\":251:274  Person[] public persons */\n    tag_6:\n      tag_19\n      0x04\n      dup1\n      calldatasize\n      sub\n      dup2\n      add\n      swap1\n      tag_20\n      swap2\n      swap1\n      tag_21\n      jump\t// in\n    tag_20:\n      tag_22\n      jump\t// in\n    tag_19:\n      mload(0x40)\n      tag_23\n      swap3\n      swap2\n      swap1\n      tag_18\n      jump\t// in\n    tag_23:\n      mload(0x40)\n      dup1\n      swap2\n      sub\n      swap1\n      return\n        /* \"contracts/alyra/1_People.sol\":803:860  function remove() public {... */\n    tag_7:\n      tag_24\n      tag_25\n      jump\t// in\n    tag_24:\n      stop\n        /* \"contracts/alyra/1_People.sol\":327:517  function modifyPerson (string calldata _name, uint _age) public {... */\n    tag_11:\n        /* \"contracts/alyra/1_People.sol\":479:484  _name */\n      dup3\n      dup3\n        /* \"contracts/alyra/1_People.sol\":468:471  moi */\n      0x00\n        /* \"contracts/alyra/1_People.sol\":468:476  moi.name */\n      dup1\n      add\n        /* \"contracts/alyra/1_People.sol\":468:484  moi.name = _name */\n      swap2\n      dup3\n      tag_27\n      swap3\n      swap2\n      swap1\n      tag_28\n      jump\t// in\n    tag_27:\n      pop\n        /* \"contracts/alyra/1_People.sol\":505:509  _age */\n      dup1\n        /* \"contracts/alyra/1_People.sol\":495:498  moi */\n      0x00\n        /* \"contracts/alyra/1_People.sol\":495:502  moi.age */\n      0x01\n      add\n        /* \"contracts/alyra/1_People.sol\":495:509  moi.age = _age */\n      dup2\n      swap1\n      sstore\n      pop\n        /* \"contracts/alyra/1_People.sol\":327:517  function modifyPerson (string calldata _name, uint _age) public {... */\n      pop\n      pop\n      pop\n      jump\t// out\n        /* \"contracts/alyra/1_People.sol\":561:760  function add(string calldata _name, uint _age) public {... */\n    tag_14:\n        /* \"contracts/alyra/1_People.sol\":626:649  Person memory tmpPerson */\n      0x00\n        /* \"contracts/alyra/1_People.sol\":652:671  Person(_name, _age) */\n      mload(0x40)\n      dup1\n      0x40\n      add\n      0x40\n      mstore\n      dup1\n        /* \"contracts/alyra/1_People.sol\":659:664  _name */\n      dup6\n      dup6\n        /* \"contracts/alyra/1_People.sol\":652:671  Person(_name, _age) */\n      dup1\n      dup1\n      0x1f\n      add\n      0x20\n      dup1\n      swap2\n      div\n      mul\n      0x20\n      add\n      mload(0x40)\n      swap1\n      dup2\n      add\n      0x40\n      mstore\n      dup1\n      swap4\n      swap3\n      swap2\n      swap1\n      dup2\n      dup2\n      mstore\n      0x20\n      add\n      dup4\n      dup4\n      dup1\n      dup3\n      dup5\n      calldatacopy\n      0x00\n      dup2\n      dup5\n      add\n      mstore\n      not(0x1f)\n      0x1f\n      dup3\n      add\n      and\n      swap1\n      pop\n      dup1\n      dup4\n      add\n      swap3\n      pop\n      pop\n      pop\n      pop\n      pop\n      pop\n      pop\n      dup2\n      mstore\n      0x20\n      add\n        /* \"contracts/alyra/1_People.sol\":666:670  _age */\n      dup4\n        /* \"contracts/alyra/1_People.sol\":652:671  Person(_name, _age) */\n      dup2\n      mstore\n      pop\n        /* \"contracts/alyra/1_People.sol\":626:671  Person memory tmpPerson = Person(_name, _age) */\n      swap1\n      pop\n        /* \"contracts/alyra/1_People.sol\":682:689  persons */\n      0x02\n        /* \"contracts/alyra/1_People.sol\":695:704  tmpPerson */\n      dup2\n        /* \"contracts/alyra/1_People.sol\":682:705  persons.push(tmpPerson) */\n      swap1\n      dup1\n      0x01\n      dup2\n      sload\n      add\n      dup1\n      dup3\n      sstore\n      dup1\n      swap2\n      pop\n      pop\n      0x01\n      swap1\n      sub\n      swap1\n      0x00\n      mstore\n      keccak256(0x00, 0x20)\n      swap1\n      0x02\n      mul\n      add\n      0x00\n      swap1\n      swap2\n      swap1\n      swap2\n      swap1\n      swap2\n      pop\n      0x00\n      dup3\n      add\n      mload\n      dup2\n      0x00\n      add\n      swap1\n      dup2\n      tag_31\n      swap2\n      swap1\n      tag_32\n      jump\t// in\n    tag_31:\n      pop\n      0x20\n      dup3\n      add\n      mload\n      dup2\n      0x01\n      add\n      sstore\n      pop\n      pop\n        /* \"contracts/alyra/1_People.sol\":615:760  {... */\n      pop\n        /* \"contracts/alyra/1_People.sol\":561:760  function add(string calldata _name, uint _age) public {... */\n      pop\n      pop\n      pop\n      jump\t// out\n        /* \"contracts/alyra/1_People.sol\":196:213  Person public moi */\n    tag_16:\n      0x00\n      dup1\n      0x00\n      add\n      dup1\n      sload\n      tag_33\n      swap1\n      tag_34\n      jump\t// in\n    tag_33:\n      dup1\n      0x1f\n      add\n      0x20\n      dup1\n      swap2\n      div\n      mul\n      0x20\n      add\n      mload(0x40)\n      swap1\n      dup2\n      add\n      0x40\n      mstore\n      dup1\n      swap3\n      swap2\n      swap1\n      dup2\n      dup2\n      mstore\n      0x20\n      add\n      dup3\n      dup1\n      sload\n      tag_35\n      swap1\n      tag_34\n      jump\t// in\n    tag_35:\n      dup1\n      iszero\n      tag_36\n      jumpi\n      dup1\n      0x1f\n      lt\n      tag_37\n      jumpi\n      0x0100\n      dup1\n      dup4\n      sload\n      div\n      mul\n      dup4\n      mstore\n      swap2\n      0x20\n      add\n      swap2\n      jump(tag_36)\n    tag_37:\n      dup3\n      add\n      swap2\n      swap1\n      0x00\n      mstore\n      keccak256(0x00, 0x20)\n      swap1\n    tag_38:\n      dup2\n      sload\n      dup2\n      mstore\n      swap1\n      0x01\n      add\n      swap1\n      0x20\n      add\n      dup1\n      dup4\n      gt\n      tag_38\n      jumpi\n      dup3\n      swap1\n      sub\n      0x1f\n      and\n      dup3\n      add\n      swap2\n    tag_36:\n      pop\n      pop\n      pop\n      pop\n      pop\n      swap1\n      dup1\n      0x01\n      add\n      sload\n      swap1\n      pop\n      dup3\n      jump\t// out\n        /* \"contracts/alyra/1_People.sol\":251:274  Person[] public persons */\n    tag_22:\n      0x02\n      dup2\n      dup2\n      sload\n      dup2\n      lt\n      tag_39\n      jumpi\n      0x00\n      dup1\n      revert\n    tag_39:\n      swap1\n      0x00\n      mstore\n      keccak256(0x00, 0x20)\n      swap1\n      0x02\n      mul\n      add\n      0x00\n      swap2\n      pop\n      swap1\n      pop\n      dup1\n      0x00\n      add\n      dup1\n      sload\n      tag_41\n      swap1\n      tag_34\n      jump\t// in\n    tag_41:\n      dup1\n      0x1f\n      add\n      0x20\n      dup1\n      swap2\n      div\n      mul\n      0x20\n      add\n      mload(0x40)\n      swap1\n      dup2\n      add\n      0x40\n      mstore\n      dup1\n      swap3\n      swap2\n      swap1\n      dup2\n      dup2\n      mstore\n      0x20\n      add\n      dup3\n      dup1\n      sload\n      tag_42\n      swap1\n      tag_34\n      jump\t// in\n    tag_42:\n      dup1\n      iszero\n      tag_43\n      jumpi\n      dup1\n      0x1f\n      lt\n      tag_44\n      jumpi\n      0x0100\n      dup1\n      dup4\n      sload\n      div\n      mul\n      dup4\n      mstore\n      swap2\n      0x20\n      add\n      swap2\n      jump(tag_43)\n    tag_44:\n      dup3\n      add\n      swap2\n      swap1\n      0x00\n      mstore\n      keccak256(0x00, 0x20)\n      swap1\n    tag_45:\n      dup2\n      sload\n      dup2\n      mstore\n      swap1\n      0x01\n      add\n      swap1\n      0x20\n      add\n      dup1\n      dup4\n      gt\n      tag_45\n      jumpi\n      dup3\n      swap1\n      sub\n      0x1f\n      and\n      dup3\n      add\n      swap2\n    tag_43:\n      pop\n      pop\n      pop\n      pop\n      pop\n      swap1\n      dup1\n      0x01\n      add\n      sload\n      swap1\n      pop\n      dup3\n      jump\t// out\n        /* \"contracts/alyra/1_People.sol\":803:860  function remove() public {... */\n    tag_25:\n        /* \"contracts/alyra/1_People.sol\":839:846  persons */\n      0x02\n        /* \"contracts/alyra/1_People.sol\":839:852  persons.pop() */\n      dup1\n      sload\n      dup1\n      tag_47\n      jumpi\n      tag_48\n      tag_49\n      jump\t// in\n    tag_48:\n    tag_47:\n      0x01\n      swap1\n      sub\n      dup2\n      dup2\n      swap1\n      0x00\n      mstore\n      keccak256(0x00, 0x20)\n      swap1\n      0x02\n      mul\n      add\n      0x00\n      dup1\n      dup3\n      add\n      0x00\n      tag_51\n      swap2\n      swap1\n      tag_52\n      jump\t// in\n    tag_51:\n      0x01\n      dup3\n      add\n      0x00\n      swap1\n      sstore\n      pop\n      pop\n      swap1\n      sstore\n        /* \"contracts/alyra/1_People.sol\":803:860  function remove() public {... */\n      jump\t// out\n    tag_52:\n      pop\n      dup1\n      sload\n      tag_53\n      swap1\n      tag_34\n      jump\t// in\n    tag_53:\n      0x00\n      dup3\n      sstore\n      dup1\n      0x1f\n      lt\n      tag_55\n      jumpi\n      pop\n      jump(tag_54)\n    tag_55:\n      0x1f\n      add\n      0x20\n      swap1\n      div\n      swap1\n      0x00\n      mstore\n      keccak256(0x00, 0x20)\n      swap1\n      dup2\n      add\n      swap1\n      tag_56\n      swap2\n      swap1\n      tag_57\n      jump\t// in\n    tag_56:\n    tag_54:\n      pop\n      jump\t// out\n    tag_57:\n    tag_58:\n      dup1\n      dup3\n      gt\n      iszero\n      tag_59\n      jumpi\n      0x00\n      dup2\n      0x00\n      swap1\n      sstore\n      pop\n      0x01\n      add\n      jump(tag_58)\n    tag_59:\n      pop\n      swap1\n      jump\t// out\n        /* \"#utility.yul\":88:205   */\n    tag_61:\n        /* \"#utility.yul\":197:198   */\n      0x00\n        /* \"#utility.yul\":194:195   */\n      dup1\n        /* \"#utility.yul\":187:199   */\n      revert\n        /* \"#utility.yul\":211:328   */\n    tag_62:\n        /* \"#utility.yul\":320:321   */\n      0x00\n        /* \"#utility.yul\":317:318   */\n      dup1\n        /* \"#utility.yul\":310:322   */\n      revert\n        /* \"#utility.yul\":334:451   */\n    tag_63:\n        /* \"#utility.yul\":443:444   */\n      0x00\n        /* \"#utility.yul\":440:441   */\n      dup1\n        /* \"#utility.yul\":433:445   */\n      revert\n        /* \"#utility.yul\":457:574   */\n    tag_64:\n        /* \"#utility.yul\":566:567   */\n      0x00\n        /* \"#utility.yul\":563:564   */\n      dup1\n        /* \"#utility.yul\":556:568   */\n      revert\n        /* \"#utility.yul\":580:697   */\n    tag_65:\n        /* \"#utility.yul\":689:690   */\n      0x00\n        /* \"#utility.yul\":686:687   */\n      dup1\n        /* \"#utility.yul\":679:691   */\n      revert\n        /* \"#utility.yul\":717:1270   */\n    tag_66:\n        /* \"#utility.yul\":775:783   */\n      0x00\n        /* \"#utility.yul\":785:791   */\n      dup1\n        /* \"#utility.yul\":835:838   */\n      dup4\n        /* \"#utility.yul\":828:832   */\n      0x1f\n        /* \"#utility.yul\":820:826   */\n      dup5\n        /* \"#utility.yul\":816:833   */\n      add\n        /* \"#utility.yul\":812:839   */\n      slt\n        /* \"#utility.yul\":802:924   */\n      tag_102\n      jumpi\n        /* \"#utility.yul\":843:922   */\n      tag_103\n      tag_63\n      jump\t// in\n    tag_103:\n        /* \"#utility.yul\":802:924   */\n    tag_102:\n        /* \"#utility.yul\":956:962   */\n      dup3\n        /* \"#utility.yul\":943:963   */\n      calldataload\n        /* \"#utility.yul\":933:963   */\n      swap1\n      pop\n        /* \"#utility.yul\":986:1004   */\n      0xffffffffffffffff\n        /* \"#utility.yul\":978:984   */\n      dup2\n        /* \"#utility.yul\":975:1005   */\n      gt\n        /* \"#utility.yul\":972:1089   */\n      iszero\n      tag_104\n      jumpi\n        /* \"#utility.yul\":1008:1087   */\n      tag_105\n      tag_64\n      jump\t// in\n    tag_105:\n        /* \"#utility.yul\":972:1089   */\n    tag_104:\n        /* \"#utility.yul\":1122:1126   */\n      0x20\n        /* \"#utility.yul\":1114:1120   */\n      dup4\n        /* \"#utility.yul\":1110:1127   */\n      add\n        /* \"#utility.yul\":1098:1127   */\n      swap2\n      pop\n        /* \"#utility.yul\":1176:1179   */\n      dup4\n        /* \"#utility.yul\":1168:1172   */\n      0x01\n        /* \"#utility.yul\":1160:1166   */\n      dup3\n        /* \"#utility.yul\":1156:1173   */\n      mul\n        /* \"#utility.yul\":1146:1154   */\n      dup4\n        /* \"#utility.yul\":1142:1174   */\n      add\n        /* \"#utility.yul\":1139:1180   */\n      gt\n        /* \"#utility.yul\":1136:1264   */\n      iszero\n      tag_106\n      jumpi\n        /* \"#utility.yul\":1183:1262   */\n      tag_107\n      tag_65\n      jump\t// in\n    tag_107:\n        /* \"#utility.yul\":1136:1264   */\n    tag_106:\n        /* \"#utility.yul\":717:1270   */\n      swap3\n      pop\n      swap3\n      swap1\n      pop\n      jump\t// out\n        /* \"#utility.yul\":1276:1353   */\n    tag_67:\n        /* \"#utility.yul\":1313:1320   */\n      0x00\n        /* \"#utility.yul\":1342:1347   */\n      dup2\n        /* \"#utility.yul\":1331:1347   */\n      swap1\n      pop\n        /* \"#utility.yul\":1276:1353   */\n      swap2\n      swap1\n      pop\n      jump\t// out\n        /* \"#utility.yul\":1359:1481   */\n    tag_68:\n        /* \"#utility.yul\":1432:1456   */\n      tag_110\n        /* \"#utility.yul\":1450:1455   */\n      dup2\n        /* \"#utility.yul\":1432:1456   */\n      tag_67\n      jump\t// in\n    tag_110:\n        /* \"#utility.yul\":1425:1430   */\n      dup2\n        /* \"#utility.yul\":1422:1457   */\n      eq\n        /* \"#utility.yul\":1412:1475   */\n      tag_111\n      jumpi\n        /* \"#utility.yul\":1471:1472   */\n      0x00\n        /* \"#utility.yul\":1468:1469   */\n      dup1\n        /* \"#utility.yul\":1461:1473   */\n      revert\n        /* \"#utility.yul\":1412:1475   */\n    tag_111:\n        /* \"#utility.yul\":1359:1481   */\n      pop\n      jump\t// out\n        /* \"#utility.yul\":1487:1626   */\n    tag_69:\n        /* \"#utility.yul\":1533:1538   */\n      0x00\n        /* \"#utility.yul\":1571:1577   */\n      dup2\n        /* \"#utility.yul\":1558:1578   */\n      calldataload\n        /* \"#utility.yul\":1549:1578   */\n      swap1\n      pop\n        /* \"#utility.yul\":1587:1620   */\n      tag_113\n        /* \"#utility.yul\":1614:1619   */\n      dup2\n        /* \"#utility.yul\":1587:1620   */\n      tag_68\n      jump\t// in\n    tag_113:\n        /* \"#utility.yul\":1487:1626   */\n      swap3\n      swap2\n      pop\n      pop\n      jump\t// out\n        /* \"#utility.yul\":1632:2306   */\n    tag_10:\n        /* \"#utility.yul\":1712:1718   */\n      0x00\n        /* \"#utility.yul\":1720:1726   */\n      dup1\n        /* \"#utility.yul\":1728:1734   */\n      0x00\n        /* \"#utility.yul\":1777:1779   */\n      0x40\n        /* \"#utility.yul\":1765:1774   */\n      dup5\n        /* \"#utility.yul\":1756:1763   */\n      dup7\n        /* \"#utility.yul\":1752:1775   */\n      sub\n        /* \"#utility.yul\":1748:1780   */\n      slt\n        /* \"#utility.yul\":1745:1864   */\n      iszero\n      tag_115\n      jumpi\n        /* \"#utility.yul\":1783:1862   */\n      tag_116\n      tag_61\n      jump\t// in\n    tag_116:\n        /* \"#utility.yul\":1745:1864   */\n    tag_115:\n        /* \"#utility.yul\":1931:1932   */\n      0x00\n        /* \"#utility.yul\":1920:1929   */\n      dup5\n        /* \"#utility.yul\":1916:1933   */\n      add\n        /* \"#utility.yul\":1903:1934   */\n      calldataload\n        /* \"#utility.yul\":1961:1979   */\n      0xffffffffffffffff\n        /* \"#utility.yul\":1953:1959   */\n      dup2\n        /* \"#utility.yul\":1950:1980   */\n      gt\n        /* \"#utility.yul\":1947:2064   */\n      iszero\n      tag_117\n      jumpi\n        /* \"#utility.yul\":1983:2062   */\n      tag_118\n      tag_62\n      jump\t// in\n    tag_118:\n        /* \"#utility.yul\":1947:2064   */\n    tag_117:\n        /* \"#utility.yul\":2096:2161   */\n      tag_119\n        /* \"#utility.yul\":2153:2160   */\n      dup7\n        /* \"#utility.yul\":2144:2150   */\n      dup3\n        /* \"#utility.yul\":2133:2142   */\n      dup8\n        /* \"#utility.yul\":2129:2151   */\n      add\n        /* \"#utility.yul\":2096:2161   */\n      tag_66\n      jump\t// in\n    tag_119:\n        /* \"#utility.yul\":2078:2161   */\n      swap4\n      pop\n      swap4\n      pop\n        /* \"#utility.yul\":1874:2171   */\n      pop\n        /* \"#utility.yul\":2210:2212   */\n      0x20\n        /* \"#utility.yul\":2236:2289   */\n      tag_120\n        /* \"#utility.yul\":2281:2288   */\n      dup7\n        /* \"#utility.yul\":2272:2278   */\n      dup3\n        /* \"#utility.yul\":2261:2270   */\n      dup8\n        /* \"#utility.yul\":2257:2279   */\n      add\n        /* \"#utility.yul\":2236:2289   */\n      tag_69\n      jump\t// in\n    tag_120:\n        /* \"#utility.yul\":2226:2289   */\n      swap2\n      pop\n        /* \"#utility.yul\":2181:2299   */\n      pop\n        /* \"#utility.yul\":1632:2306   */\n      swap3\n      pop\n      swap3\n      pop\n      swap3\n      jump\t// out\n        /* \"#utility.yul\":2312:2411   */\n    tag_70:\n        /* \"#utility.yul\":2364:2370   */\n      0x00\n        /* \"#utility.yul\":2398:2403   */\n      dup2\n        /* \"#utility.yul\":2392:2404   */\n      mload\n        /* \"#utility.yul\":2382:2404   */\n      swap1\n      pop\n        /* \"#utility.yul\":2312:2411   */\n      swap2\n      swap1\n      pop\n      jump\t// out\n        /* \"#utility.yul\":2417:2586   */\n    tag_71:\n        /* \"#utility.yul\":2501:2512   */\n      0x00\n        /* \"#utility.yul\":2535:2541   */\n      dup3\n        /* \"#utility.yul\":2530:2533   */\n      dup3\n        /* \"#utility.yul\":2523:2542   */\n      mstore\n        /* \"#utility.yul\":2575:2579   */\n      0x20\n        /* \"#utility.yul\":2570:2573   */\n      dup3\n        /* \"#utility.yul\":2566:2580   */\n      add\n        /* \"#utility.yul\":2551:2580   */\n      swap1\n      pop\n        /* \"#utility.yul\":2417:2586   */\n      swap3\n      swap2\n      pop\n      pop\n      jump\t// out\n        /* \"#utility.yul\":2592:2838   */\n    tag_72:\n        /* \"#utility.yul\":2673:2674   */\n      0x00\n        /* \"#utility.yul\":2683:2796   */\n    tag_124:\n        /* \"#utility.yul\":2697:2703   */\n      dup4\n        /* \"#utility.yul\":2694:2695   */\n      dup2\n        /* \"#utility.yul\":2691:2704   */\n      lt\n        /* \"#utility.yul\":2683:2796   */\n      iszero\n      tag_126\n      jumpi\n        /* \"#utility.yul\":2782:2783   */\n      dup1\n        /* \"#utility.yul\":2777:2780   */\n      dup3\n        /* \"#utility.yul\":2773:2784   */\n      add\n        /* \"#utility.yul\":2767:2785   */\n      mload\n        /* \"#utility.yul\":2763:2764   */\n      dup2\n        /* \"#utility.yul\":2758:2761   */\n      dup5\n        /* \"#utility.yul\":2754:2765   */\n      add\n        /* \"#utility.yul\":2747:2786   */\n      mstore\n        /* \"#utility.yul\":2719:2721   */\n      0x20\n        /* \"#utility.yul\":2716:2717   */\n      dup2\n        /* \"#utility.yul\":2712:2722   */\n      add\n        /* \"#utility.yul\":2707:2722   */\n      swap1\n      pop\n        /* \"#utility.yul\":2683:2796   */\n      jump(tag_124)\n    tag_126:\n        /* \"#utility.yul\":2830:2831   */\n      0x00\n        /* \"#utility.yul\":2821:2827   */\n      dup5\n        /* \"#utility.yul\":2816:2819   */\n      dup5\n        /* \"#utility.yul\":2812:2828   */\n      add\n        /* \"#utility.yul\":2805:2832   */\n      mstore\n        /* \"#utility.yul\":2654:2838   */\n      pop\n        /* \"#utility.yul\":2592:2838   */\n      pop\n      pop\n      pop\n      jump\t// out\n        /* \"#utility.yul\":2844:2946   */\n    tag_73:\n        /* \"#utility.yul\":2885:2891   */\n      0x00\n        /* \"#utility.yul\":2936:2938   */\n      0x1f\n        /* \"#utility.yul\":2932:2939   */\n      not\n        /* \"#utility.yul\":2927:2929   */\n      0x1f\n        /* \"#utility.yul\":2920:2925   */\n      dup4\n        /* \"#utility.yul\":2916:2930   */\n      add\n        /* \"#utility.yul\":2912:2940   */\n      and\n        /* \"#utility.yul\":2902:2940   */\n      swap1\n      pop\n        /* \"#utility.yul\":2844:2946   */\n      swap2\n      swap1\n      pop\n      jump\t// out\n        /* \"#utility.yul\":2952:3329   */\n    tag_74:\n        /* \"#utility.yul\":3040:3043   */\n      0x00\n        /* \"#utility.yul\":3068:3107   */\n      tag_129\n        /* \"#utility.yul\":3101:3106   */\n      dup3\n        /* \"#utility.yul\":3068:3107   */\n      tag_70\n      jump\t// in\n    tag_129:\n        /* \"#utility.yul\":3123:3194   */\n      tag_130\n        /* \"#utility.yul\":3187:3193   */\n      dup2\n        /* \"#utility.yul\":3182:3185   */\n      dup6\n        /* \"#utility.yul\":3123:3194   */\n      tag_71\n      jump\t// in\n    tag_130:\n        /* \"#utility.yul\":3116:3194   */\n      swap4\n      pop\n        /* \"#utility.yul\":3203:3268   */\n      tag_131\n        /* \"#utility.yul\":3261:3267   */\n      dup2\n        /* \"#utility.yul\":3256:3259   */\n      dup6\n        /* \"#utility.yul\":3249:3253   */\n      0x20\n        /* \"#utility.yul\":3242:3247   */\n      dup7\n        /* \"#utility.yul\":3238:3254   */\n      add\n        /* \"#utility.yul\":3203:3268   */\n      tag_72\n      jump\t// in\n    tag_131:\n        /* \"#utility.yul\":3293:3322   */\n      tag_132\n        /* \"#utility.yul\":3315:3321   */\n      dup2\n        /* \"#utility.yul\":3293:3322   */\n      tag_73\n      jump\t// in\n    tag_132:\n        /* \"#utility.yul\":3288:3291   */\n      dup5\n        /* \"#utility.yul\":3284:3323   */\n      add\n        /* \"#utility.yul\":3277:3323   */\n      swap2\n      pop\n        /* \"#utility.yul\":3044:3329   */\n      pop\n        /* \"#utility.yul\":2952:3329   */\n      swap3\n      swap2\n      pop\n      pop\n      jump\t// out\n        /* \"#utility.yul\":3335:3453   */\n    tag_75:\n        /* \"#utility.yul\":3422:3446   */\n      tag_134\n        /* \"#utility.yul\":3440:3445   */\n      dup2\n        /* \"#utility.yul\":3422:3446   */\n      tag_67\n      jump\t// in\n    tag_134:\n        /* \"#utility.yul\":3417:3420   */\n      dup3\n        /* \"#utility.yul\":3410:3447   */\n      mstore\n        /* \"#utility.yul\":3335:3453   */\n      pop\n      pop\n      jump\t// out\n        /* \"#utility.yul\":3459:3882   */\n    tag_18:\n        /* \"#utility.yul\":3600:3604   */\n      0x00\n        /* \"#utility.yul\":3638:3640   */\n      0x40\n        /* \"#utility.yul\":3627:3636   */\n      dup3\n        /* \"#utility.yul\":3623:3641   */\n      add\n        /* \"#utility.yul\":3615:3641   */\n      swap1\n      pop\n        /* \"#utility.yul\":3687:3696   */\n      dup2\n        /* \"#utility.yul\":3681:3685   */\n      dup2\n        /* \"#utility.yul\":3677:3697   */\n      sub\n        /* \"#utility.yul\":3673:3674   */\n      0x00\n        /* \"#utility.yul\":3662:3671   */\n      dup4\n        /* \"#utility.yul\":3658:3675   */\n      add\n        /* \"#utility.yul\":3651:3698   */\n      mstore\n        /* \"#utility.yul\":3715:3793   */\n      tag_136\n        /* \"#utility.yul\":3788:3792   */\n      dup2\n        /* \"#utility.yul\":3779:3785   */\n      dup6\n        /* \"#utility.yul\":3715:3793   */\n      tag_74\n      jump\t// in\n    tag_136:\n        /* \"#utility.yul\":3707:3793   */\n      swap1\n      pop\n        /* \"#utility.yul\":3803:3875   */\n      tag_137\n        /* \"#utility.yul\":3871:3873   */\n      0x20\n        /* \"#utility.yul\":3860:3869   */\n      dup4\n        /* \"#utility.yul\":3856:3874   */\n      add\n        /* \"#utility.yul\":3847:3853   */\n      dup5\n        /* \"#utility.yul\":3803:3875   */\n      tag_75\n      jump\t// in\n    tag_137:\n        /* \"#utility.yul\":3459:3882   */\n      swap4\n      swap3\n      pop\n      pop\n      pop\n      jump\t// out\n        /* \"#utility.yul\":3888:4217   */\n    tag_21:\n        /* \"#utility.yul\":3947:3953   */\n      0x00\n        /* \"#utility.yul\":3996:3998   */\n      0x20\n        /* \"#utility.yul\":3984:3993   */\n      dup3\n        /* \"#utility.yul\":3975:3982   */\n      dup5\n        /* \"#utility.yul\":3971:3994   */\n      sub\n        /* \"#utility.yul\":3967:3999   */\n      slt\n        /* \"#utility.yul\":3964:4083   */\n      iszero\n      tag_139\n      jumpi\n        /* \"#utility.yul\":4002:4081   */\n      tag_140\n      tag_61\n      jump\t// in\n    tag_140:\n        /* \"#utility.yul\":3964:4083   */\n    tag_139:\n        /* \"#utility.yul\":4122:4123   */\n      0x00\n        /* \"#utility.yul\":4147:4200   */\n      tag_141\n        /* \"#utility.yul\":4192:4199   */\n      dup5\n        /* \"#utility.yul\":4183:4189   */\n      dup3\n        /* \"#utility.yul\":4172:4181   */\n      dup6\n        /* \"#utility.yul\":4168:4190   */\n      add\n        /* \"#utility.yul\":4147:4200   */\n      tag_69\n      jump\t// in\n    tag_141:\n        /* \"#utility.yul\":4137:4200   */\n      swap2\n      pop\n        /* \"#utility.yul\":4093:4210   */\n      pop\n        /* \"#utility.yul\":3888:4217   */\n      swap3\n      swap2\n      pop\n      pop\n      jump\t// out\n        /* \"#utility.yul\":4223:4320   */\n    tag_76:\n        /* \"#utility.yul\":4282:4288   */\n      0x00\n        /* \"#utility.yul\":4310:4313   */\n      dup3\n        /* \"#utility.yul\":4300:4313   */\n      swap1\n      pop\n        /* \"#utility.yul\":4223:4320   */\n      swap3\n      swap2\n      pop\n      pop\n      jump\t// out\n        /* \"#utility.yul\":4326:4506   */\n    tag_77:\n        /* \"#utility.yul\":4374:4451   */\n      0x4e487b7100000000000000000000000000000000000000000000000000000000\n        /* \"#utility.yul\":4371:4372   */\n      0x00\n        /* \"#utility.yul\":4364:4452   */\n      mstore\n        /* \"#utility.yul\":4471:4475   */\n      0x41\n        /* \"#utility.yul\":4468:4469   */\n      0x04\n        /* \"#utility.yul\":4461:4476   */\n      mstore\n        /* \"#utility.yul\":4495:4499   */\n      0x24\n        /* \"#utility.yul\":4492:4493   */\n      0x00\n        /* \"#utility.yul\":4485:4500   */\n      revert\n        /* \"#utility.yul\":4512:4692   */\n    tag_78:\n        /* \"#utility.yul\":4560:4637   */\n      0x4e487b7100000000000000000000000000000000000000000000000000000000\n        /* \"#utility.yul\":4557:4558   */\n      0x00\n        /* \"#utility.yul\":4550:4638   */\n      mstore\n        /* \"#utility.yul\":4657:4661   */\n      0x22\n        /* \"#utility.yul\":4654:4655   */\n      0x04\n        /* \"#utility.yul\":4647:4662   */\n      mstore\n        /* \"#utility.yul\":4681:4685   */\n      0x24\n        /* \"#utility.yul\":4678:4679   */\n      0x00\n        /* \"#utility.yul\":4671:4686   */\n      revert\n        /* \"#utility.yul\":4698:5018   */\n    tag_34:\n        /* \"#utility.yul\":4742:4748   */\n      0x00\n        /* \"#utility.yul\":4779:4780   */\n      0x02\n        /* \"#utility.yul\":4773:4777   */\n      dup3\n        /* \"#utility.yul\":4769:4781   */\n      div\n        /* \"#utility.yul\":4759:4781   */\n      swap1\n      pop\n        /* \"#utility.yul\":4826:4827   */\n      0x01\n        /* \"#utility.yul\":4820:4824   */\n      dup3\n        /* \"#utility.yul\":4816:4828   */\n      and\n        /* \"#utility.yul\":4847:4865   */\n      dup1\n        /* \"#utility.yul\":4837:4918   */\n      tag_146\n      jumpi\n        /* \"#utility.yul\":4903:4907   */\n      0x7f\n        /* \"#utility.yul\":4895:4901   */\n      dup3\n        /* \"#utility.yul\":4891:4908   */\n      and\n        /* \"#utility.yul\":4881:4908   */\n      swap2\n      pop\n        /* \"#utility.yul\":4837:4918   */\n    tag_146:\n        /* \"#utility.yul\":4965:4967   */\n      0x20\n        /* \"#utility.yul\":4957:4963   */\n      dup3\n        /* \"#utility.yul\":4954:4968   */\n      lt\n        /* \"#utility.yul\":4934:4952   */\n      dup2\n        /* \"#utility.yul\":4931:4969   */\n      sub\n        /* \"#utility.yul\":4928:5012   */\n      tag_147\n      jumpi\n        /* \"#utility.yul\":4984:5002   */\n      tag_148\n      tag_78\n      jump\t// in\n    tag_148:\n        /* \"#utility.yul\":4928:5012   */\n    tag_147:\n        /* \"#utility.yul\":4749:5018   */\n      pop\n        /* \"#utility.yul\":4698:5018   */\n      swap2\n      swap1\n      pop\n      jump\t// out\n        /* \"#utility.yul\":5024:5165   */\n    tag_79:\n        /* \"#utility.yul\":5073:5077   */\n      0x00\n        /* \"#utility.yul\":5096:5099   */\n      dup2\n        /* \"#utility.yul\":5088:5099   */\n      swap1\n      pop\n        /* \"#utility.yul\":5119:5122   */\n      dup2\n        /* \"#utility.yul\":5116:5117   */\n      0x00\n        /* \"#utility.yul\":5109:5123   */\n      mstore\n        /* \"#utility.yul\":5153:5157   */\n      0x20\n        /* \"#utility.yul\":5150:5151   */\n      0x00\n        /* \"#utility.yul\":5140:5158   */\n      keccak256\n        /* \"#utility.yul\":5132:5158   */\n      swap1\n      pop\n        /* \"#utility.yul\":5024:5165   */\n      swap2\n      swap1\n      pop\n      jump\t// out\n        /* \"#utility.yul\":5171:5264   */\n    tag_80:\n        /* \"#utility.yul\":5208:5214   */\n      0x00\n        /* \"#utility.yul\":5255:5257   */\n      0x20\n        /* \"#utility.yul\":5250:5252   */\n      0x1f\n        /* \"#utility.yul\":5243:5248   */\n      dup4\n        /* \"#utility.yul\":5239:5253   */\n      add\n        /* \"#utility.yul\":5235:5258   */\n      div\n        /* \"#utility.yul\":5225:5258   */\n      swap1\n      pop\n        /* \"#utility.yul\":5171:5264   */\n      swap2\n      swap1\n      pop\n      jump\t// out\n        /* \"#utility.yul\":5270:5377   */\n    tag_81:\n        /* \"#utility.yul\":5314:5322   */\n      0x00\n        /* \"#utility.yul\":5364:5369   */\n      dup3\n        /* \"#utility.yul\":5358:5362   */\n      dup3\n        /* \"#utility.yul\":5354:5370   */\n      shl\n        /* \"#utility.yul\":5333:5370   */\n      swap1\n      pop\n        /* \"#utility.yul\":5270:5377   */\n      swap3\n      swap2\n      pop\n      pop\n      jump\t// out\n        /* \"#utility.yul\":5383:5776   */\n    tag_82:\n        /* \"#utility.yul\":5452:5458   */\n      0x00\n        /* \"#utility.yul\":5502:5503   */\n      0x08\n        /* \"#utility.yul\":5490:5500   */\n      dup4\n        /* \"#utility.yul\":5486:5504   */\n      mul\n        /* \"#utility.yul\":5525:5622   */\n      tag_153\n        /* \"#utility.yul\":5555:5621   */\n      0xffffffffffffffffffffffffffffffffffffffffffffffffffffffffffffffff\n        /* \"#utility.yul\":5544:5553   */\n      dup3\n        /* \"#utility.yul\":5525:5622   */\n      tag_81\n      jump\t// in\n    tag_153:\n        /* \"#utility.yul\":5643:5682   */\n      tag_154\n        /* \"#utility.yul\":5673:5681   */\n      dup7\n        /* \"#utility.yul\":5662:5671   */\n      dup4\n        /* \"#utility.yul\":5643:5682   */\n      tag_81\n      jump\t// in\n    tag_154:\n        /* \"#utility.yul\":5631:5682   */\n      swap6\n      pop\n        /* \"#utility.yul\":5715:5719   */\n      dup1\n        /* \"#utility.yul\":5711:5720   */\n      not\n        /* \"#utility.yul\":5704:5709   */\n      dup5\n        /* \"#utility.yul\":5700:5721   */\n      and\n        /* \"#utility.yul\":5691:5721   */\n      swap4\n      pop\n        /* \"#utility.yul\":5764:5768   */\n      dup1\n        /* \"#utility.yul\":5754:5762   */\n      dup7\n        /* \"#utility.yul\":5750:5769   */\n      and\n        /* \"#utility.yul\":5743:5748   */\n      dup5\n        /* \"#utility.yul\":5740:5770   */\n      or\n        /* \"#utility.yul\":5730:5770   */\n      swap3\n      pop\n        /* \"#utility.yul\":5459:5776   */\n      pop\n      pop\n        /* \"#utility.yul\":5383:5776   */\n      swap4\n      swap3\n      pop\n      pop\n      pop\n      jump\t// out\n        /* \"#utility.yul\":5782:5842   */\n    tag_83:\n        /* \"#utility.yul\":5810:5813   */\n      0x00\n        /* \"#utility.yul\":5831:5836   */\n      dup2\n        /* \"#utility.yul\":5824:5836   */\n      swap1\n      pop\n        /* \"#utility.yul\":5782:5842   */\n      swap2\n      swap1\n      pop\n      jump\t// out\n        /* \"#utility.yul\":5848:5990   */\n    tag_84:\n        /* \"#utility.yul\":5898:5907   */\n      0x00\n        /* \"#utility.yul\":5931:5984   */\n      tag_157\n        /* \"#utility.yul\":5949:5983   */\n      tag_158\n        /* \"#utility.yul\":5958:5982   */\n      tag_159\n        /* \"#utility.yul\":5976:5981   */\n      dup5\n        /* \"#utility.yul\":5958:5982   */\n      tag_67\n      jump\t// in\n    tag_159:\n        /* \"#utility.yul\":5949:5983   */\n      tag_83\n      jump\t// in\n    tag_158:\n        /* \"#utility.yul\":5931:5984   */\n      tag_67\n      jump\t// in\n    tag_157:\n        /* \"#utility.yul\":5918:5984   */\n      swap1\n      pop\n        /* \"#utility.yul\":5848:5990   */\n      swap2\n      swap1\n      pop\n      jump\t// out\n        /* \"#utility.yul\":5996:6071   */\n    tag_85:\n        /* \"#utility.yul\":6039:6042   */\n      0x00\n        /* \"#utility.yul\":6060:6065   */\n      dup2\n        /* \"#utility.yul\":6053:6065   */\n      swap1\n      pop\n        /* \"#utility.yul\":5996:6071   */\n      swap2\n      swap1\n      pop\n      jump\t// out\n        /* \"#utility.yul\":6077:6346   */\n    tag_86:\n        /* \"#utility.yul\":6187:6226   */\n      tag_162\n        /* \"#utility.yul\":6218:6225   */\n      dup4\n        /* \"#utility.yul\":6187:6226   */\n      tag_84\n      jump\t// in\n    tag_162:\n        /* \"#utility.yul\":6248:6339   */\n      tag_163\n        /* \"#utility.yul\":6297:6338   */\n      tag_164\n        /* \"#utility.yul\":6321:6337   */\n      dup3\n        /* \"#utility.yul\":6297:6338   */\n      tag_85\n      jump\t// in\n    tag_164:\n        /* \"#utility.yul\":6289:6295   */\n      dup5\n        /* \"#utility.yul\":6282:6286   */\n      dup5\n        /* \"#utility.yul\":6276:6287   */\n      sload\n        /* \"#utility.yul\":6248:6339   */\n      tag_82\n      jump\t// in\n    tag_163:\n        /* \"#utility.yul\":6242:6246   */\n      dup3\n        /* \"#utility.yul\":6235:6340   */\n      sstore\n        /* \"#utility.yul\":6153:6346   */\n      pop\n        /* \"#utility.yul\":6077:6346   */\n      pop\n      pop\n      pop\n      jump\t// out\n        /* \"#utility.yul\":6352:6425   */\n    tag_87:\n        /* \"#utility.yul\":6397:6400   */\n      0x00\n        /* \"#utility.yul\":6352:6425   */\n      swap1\n      jump\t// out\n        /* \"#utility.yul\":6431:6620   */\n    tag_88:\n        /* \"#utility.yul\":6508:6540   */\n      tag_167\n      tag_87\n      jump\t// in\n    tag_167:\n        /* \"#utility.yul\":6549:6614   */\n      tag_168\n        /* \"#utility.yul\":6607:6613   */\n      dup2\n        /* \"#utility.yul\":6599:6605   */\n      dup5\n        /* \"#utility.yul\":6593:6597   */\n      dup5\n        /* \"#utility.yul\":6549:6614   */\n      tag_86\n      jump\t// in\n    tag_168:\n        /* \"#utility.yul\":6484:6620   */\n      pop\n        /* \"#utility.yul\":6431:6620   */\n      pop\n      pop\n      jump\t// out\n        /* \"#utility.yul\":6626:6812   */\n    tag_89:\n        /* \"#utility.yul\":6686:6806   */\n    tag_170:\n        /* \"#utility.yul\":6703:6706   */\n      dup2\n        /* \"#utility.yul\":6696:6701   */\n      dup2\n        /* \"#utility.yul\":6693:6707   */\n      lt\n        /* \"#utility.yul\":6686:6806   */\n      iszero\n      tag_172\n      jumpi\n        /* \"#utility.yul\":6757:6796   */\n      tag_173\n        /* \"#utility.yul\":6794:6795   */\n      0x00\n        /* \"#utility.yul\":6787:6792   */\n      dup3\n        /* \"#utility.yul\":6757:6796   */\n      tag_88\n      jump\t// in\n    tag_173:\n        /* \"#utility.yul\":6730:6731   */\n      0x01\n        /* \"#utility.yul\":6723:6728   */\n      dup2\n        /* \"#utility.yul\":6719:6732   */\n      add\n        /* \"#utility.yul\":6710:6732   */\n      swap1\n      pop\n        /* \"#utility.yul\":6686:6806   */\n      jump(tag_170)\n    tag_172:\n        /* \"#utility.yul\":6626:6812   */\n      pop\n      pop\n      jump\t// out\n        /* \"#utility.yul\":6818:7361   */\n    tag_90:\n        /* \"#utility.yul\":6919:6921   */\n      0x1f\n        /* \"#utility.yul\":6914:6917   */\n      dup3\n        /* \"#utility.yul\":6911:6922   */\n      gt\n        /* \"#utility.yul\":6908:7354   */\n      iszero\n      tag_175\n      jumpi\n        /* \"#utility.yul\":6953:6991   */\n      tag_176\n        /* \"#utility.yul\":6985:6990   */\n      dup2\n        /* \"#utility.yul\":6953:6991   */\n      tag_79\n      jump\t// in\n    tag_176:\n        /* \"#utility.yul\":7037:7066   */\n      tag_177\n        /* \"#utility.yul\":7055:7065   */\n      dup5\n        /* \"#utility.yul\":7037:7066   */\n      tag_80\n      jump\t// in\n    tag_177:\n        /* \"#utility.yul\":7027:7035   */\n      dup2\n        /* \"#utility.yul\":7023:7067   */\n      add\n        /* \"#utility.yul\":7220:7222   */\n      0x20\n        /* \"#utility.yul\":7208:7218   */\n      dup6\n        /* \"#utility.yul\":7205:7223   */\n      lt\n        /* \"#utility.yul\":7202:7251   */\n      iszero\n      tag_178\n      jumpi\n        /* \"#utility.yul\":7241:7249   */\n      dup2\n        /* \"#utility.yul\":7226:7249   */\n      swap1\n      pop\n        /* \"#utility.yul\":7202:7251   */\n    tag_178:\n        /* \"#utility.yul\":7264:7344   */\n      tag_179\n        /* \"#utility.yul\":7320:7342   */\n      tag_180\n        /* \"#utility.yul\":7338:7341   */\n      dup6\n        /* \"#utility.yul\":7320:7342   */\n      tag_80\n      jump\t// in\n    tag_180:\n        /* \"#utility.yul\":7310:7318   */\n      dup4\n        /* \"#utility.yul\":7306:7343   */\n      add\n        /* \"#utility.yul\":7293:7304   */\n      dup3\n        /* \"#utility.yul\":7264:7344   */\n      tag_89\n      jump\t// in\n    tag_179:\n        /* \"#utility.yul\":6923:7354   */\n      pop\n      pop\n        /* \"#utility.yul\":6908:7354   */\n    tag_175:\n        /* \"#utility.yul\":6818:7361   */\n      pop\n      pop\n      pop\n      jump\t// out\n        /* \"#utility.yul\":7367:7484   */\n    tag_91:\n        /* \"#utility.yul\":7421:7429   */\n      0x00\n        /* \"#utility.yul\":7471:7476   */\n      dup3\n        /* \"#utility.yul\":7465:7469   */\n      dup3\n        /* \"#utility.yul\":7461:7477   */\n      shr\n        /* \"#utility.yul\":7440:7477   */\n      swap1\n      pop\n        /* \"#utility.yul\":7367:7484   */\n      swap3\n      swap2\n      pop\n      pop\n      jump\t// out\n        /* \"#utility.yul\":7490:7659   */\n    tag_92:\n        /* \"#utility.yul\":7534:7540   */\n      0x00\n        /* \"#utility.yul\":7567:7618   */\n      tag_183\n        /* \"#utility.yul\":7615:7616   */\n      0x00\n        /* \"#utility.yul\":7611:7617   */\n      not\n        /* \"#utility.yul\":7603:7608   */\n      dup5\n        /* \"#utility.yul\":7600:7601   */\n      0x08\n        /* \"#utility.yul\":7596:7609   */\n      mul\n        /* \"#utility.yul\":7567:7618   */\n      tag_91\n      jump\t// in\n    tag_183:\n        /* \"#utility.yul\":7563:7619   */\n      not\n        /* \"#utility.yul\":7648:7652   */\n      dup1\n        /* \"#utility.yul\":7642:7646   */\n      dup4\n        /* \"#utility.yul\":7638:7653   */\n      and\n        /* \"#utility.yul\":7628:7653   */\n      swap2\n      pop\n        /* \"#utility.yul\":7541:7659   */\n      pop\n        /* \"#utility.yul\":7490:7659   */\n      swap3\n      swap2\n      pop\n      pop\n      jump\t// out\n        /* \"#utility.yul\":7664:7959   */\n    tag_93:\n        /* \"#utility.yul\":7740:7744   */\n      0x00\n        /* \"#utility.yul\":7886:7915   */\n      tag_185\n        /* \"#utility.yul\":7911:7914   */\n      dup4\n        /* \"#utility.yul\":7905:7909   */\n      dup4\n        /* \"#utility.yul\":7886:7915   */\n      tag_92\n      jump\t// in\n    tag_185:\n        /* \"#utility.yul\":7878:7915   */\n      swap2\n      pop\n        /* \"#utility.yul\":7948:7951   */\n      dup3\n        /* \"#utility.yul\":7945:7946   */\n      0x02\n        /* \"#utility.yul\":7941:7952   */\n      mul\n        /* \"#utility.yul\":7935:7939   */\n      dup3\n        /* \"#utility.yul\":7932:7953   */\n      or\n        /* \"#utility.yul\":7924:7953   */\n      swap1\n      pop\n        /* \"#utility.yul\":7664:7959   */\n      swap3\n      swap2\n      pop\n      pop\n      jump\t// out\n        /* \"#utility.yul\":7964:9367   */\n    tag_28:\n        /* \"#utility.yul\":8088:8132   */\n      tag_187\n        /* \"#utility.yul\":8128:8131   */\n      dup4\n        /* \"#utility.yul\":8123:8126   */\n      dup4\n        /* \"#utility.yul\":8088:8132   */\n      tag_76\n      jump\t// in\n    tag_187:\n        /* \"#utility.yul\":8197:8215   */\n      0xffffffffffffffff\n        /* \"#utility.yul\":8189:8195   */\n      dup2\n        /* \"#utility.yul\":8186:8216   */\n      gt\n        /* \"#utility.yul\":8183:8239   */\n      iszero\n      tag_188\n      jumpi\n        /* \"#utility.yul\":8219:8237   */\n      tag_189\n      tag_77\n      jump\t// in\n    tag_189:\n        /* \"#utility.yul\":8183:8239   */\n    tag_188:\n        /* \"#utility.yul\":8263:8301   */\n      tag_190\n        /* \"#utility.yul\":8295:8299   */\n      dup3\n        /* \"#utility.yul\":8289:8300   */\n      sload\n        /* \"#utility.yul\":8263:8301   */\n      tag_34\n      jump\t// in\n    tag_190:\n        /* \"#utility.yul\":8348:8415   */\n      tag_191\n        /* \"#utility.yul\":8408:8414   */\n      dup3\n        /* \"#utility.yul\":8400:8406   */\n      dup3\n        /* \"#utility.yul\":8394:8398   */\n      dup6\n        /* \"#utility.yul\":8348:8415   */\n      tag_90\n      jump\t// in\n    tag_191:\n        /* \"#utility.yul\":8442:8443   */\n      0x00\n        /* \"#utility.yul\":8471:8473   */\n      0x1f\n        /* \"#utility.yul\":8463:8469   */\n      dup4\n        /* \"#utility.yul\":8460:8474   */\n      gt\n        /* \"#utility.yul\":8488:8489   */\n      0x01\n        /* \"#utility.yul\":8483:9115   */\n      dup2\n      eq\n      tag_193\n      jumpi\n        /* \"#utility.yul\":9159:9160   */\n      0x00\n        /* \"#utility.yul\":9176:9182   */\n      dup5\n        /* \"#utility.yul\":9173:9257   */\n      iszero\n      tag_194\n      jumpi\n        /* \"#utility.yul\":9232:9241   */\n      dup3\n        /* \"#utility.yul\":9227:9230   */\n      dup8\n        /* \"#utility.yul\":9223:9242   */\n      add\n        /* \"#utility.yul\":9210:9243   */\n      calldataload\n        /* \"#utility.yul\":9201:9243   */\n      swap1\n      pop\n        /* \"#utility.yul\":9173:9257   */\n    tag_194:\n        /* \"#utility.yul\":9283:9350   */\n      tag_195\n        /* \"#utility.yul\":9343:9349   */\n      dup6\n        /* \"#utility.yul\":9336:9341   */\n      dup3\n        /* \"#utility.yul\":9283:9350   */\n      tag_93\n      jump\t// in\n    tag_195:\n        /* \"#utility.yul\":9277:9281   */\n      dup7\n        /* \"#utility.yul\":9270:9351   */\n      sstore\n        /* \"#utility.yul\":9132:9361   */\n      pop\n        /* \"#utility.yul\":8453:9361   */\n      jump(tag_192)\n        /* \"#utility.yul\":8483:9115   */\n    tag_193:\n        /* \"#utility.yul\":8535:8539   */\n      0x1f\n        /* \"#utility.yul\":8531:8540   */\n      not\n        /* \"#utility.yul\":8523:8529   */\n      dup5\n        /* \"#utility.yul\":8519:8541   */\n      and\n        /* \"#utility.yul\":8569:8606   */\n      tag_196\n        /* \"#utility.yul\":8601:8605   */\n      dup7\n        /* \"#utility.yul\":8569:8606   */\n      tag_79\n      jump\t// in\n    tag_196:\n        /* \"#utility.yul\":8628:8629   */\n      0x00\n        /* \"#utility.yul\":8642:8857   */\n    tag_197:\n        /* \"#utility.yul\":8656:8663   */\n      dup3\n        /* \"#utility.yul\":8653:8654   */\n      dup2\n        /* \"#utility.yul\":8650:8664   */\n      lt\n        /* \"#utility.yul\":8642:8857   */\n      iszero\n      tag_199\n      jumpi\n        /* \"#utility.yul\":8742:8751   */\n      dup5\n        /* \"#utility.yul\":8737:8740   */\n      dup10\n        /* \"#utility.yul\":8733:8752   */\n      add\n        /* \"#utility.yul\":8720:8753   */\n      calldataload\n        /* \"#utility.yul\":8712:8718   */\n      dup3\n        /* \"#utility.yul\":8705:8754   */\n      sstore\n        /* \"#utility.yul\":8793:8794   */\n      0x01\n        /* \"#utility.yul\":8785:8791   */\n      dup3\n        /* \"#utility.yul\":8781:8795   */\n      add\n        /* \"#utility.yul\":8771:8795   */\n      swap2\n      pop\n        /* \"#utility.yul\":8840:8842   */\n      0x20\n        /* \"#utility.yul\":8829:8838   */\n      dup6\n        /* \"#utility.yul\":8825:8843   */\n      add\n        /* \"#utility.yul\":8812:8843   */\n      swap5\n      pop\n        /* \"#utility.yul\":8679:8683   */\n      0x20\n        /* \"#utility.yul\":8676:8677   */\n      dup2\n        /* \"#utility.yul\":8672:8684   */\n      add\n        /* \"#utility.yul\":8667:8684   */\n      swap1\n      pop\n        /* \"#utility.yul\":8642:8857   */\n      jump(tag_197)\n    tag_199:\n        /* \"#utility.yul\":8885:8891   */\n      dup7\n        /* \"#utility.yul\":8876:8883   */\n      dup4\n        /* \"#utility.yul\":8873:8892   */\n      lt\n        /* \"#utility.yul\":8870:9056   */\n      iszero\n      tag_200\n      jumpi\n        /* \"#utility.yul\":8950:8959   */\n      dup5\n        /* \"#utility.yul\":8945:8948   */\n      dup10\n        /* \"#utility.yul\":8941:8960   */\n      add\n        /* \"#utility.yul\":8928:8961   */\n      calldataload\n        /* \"#utility.yul\":8993:9041   */\n      tag_201\n        /* \"#utility.yul\":9035:9039   */\n      0x1f\n        /* \"#utility.yul\":9027:9033   */\n      dup10\n        /* \"#utility.yul\":9023:9040   */\n      and\n        /* \"#utility.yul\":9012:9021   */\n      dup3\n        /* \"#utility.yul\":8993:9041   */\n      tag_92\n      jump\t// in\n    tag_201:\n        /* \"#utility.yul\":8985:8991   */\n      dup4\n        /* \"#utility.yul\":8978:9042   */\n      sstore\n        /* \"#utility.yul\":8893:9056   */\n      pop\n        /* \"#utility.yul\":8870:9056   */\n    tag_200:\n        /* \"#utility.yul\":9102:9103   */\n      0x01\n        /* \"#utility.yul\":9098:9099   */\n      0x02\n        /* \"#utility.yul\":9090:9096   */\n      dup9\n        /* \"#utility.yul\":9086:9100   */\n      mul\n        /* \"#utility.yul\":9082:9104   */\n      add\n        /* \"#utility.yul\":9076:9080   */\n      dup9\n        /* \"#utility.yul\":9069:9105   */\n      sstore\n        /* \"#utility.yul\":8490:9115   */\n      pop\n      pop\n      pop\n        /* \"#utility.yul\":8453:9361   */\n    tag_192:\n      pop\n        /* \"#utility.yul\":8063:9367   */\n      pop\n      pop\n      pop\n        /* \"#utility.yul\":7964:9367   */\n      pop\n      pop\n      pop\n      jump\t// out\n        /* \"#utility.yul\":9373:10768   */\n    tag_32:\n        /* \"#utility.yul\":9490:9527   */\n      tag_203\n        /* \"#utility.yul\":9523:9526   */\n      dup3\n        /* \"#utility.yul\":9490:9527   */\n      tag_70\n      jump\t// in\n    tag_203:\n        /* \"#utility.yul\":9592:9610   */\n      0xffffffffffffffff\n        /* \"#utility.yul\":9584:9590   */\n      dup2\n        /* \"#utility.yul\":9581:9611   */\n      gt\n        /* \"#utility.yul\":9578:9634   */\n      iszero\n      tag_204\n      jumpi\n        /* \"#utility.yul\":9614:9632   */\n      tag_205\n      tag_77\n      jump\t// in\n    tag_205:\n        /* \"#utility.yul\":9578:9634   */\n    tag_204:\n        /* \"#utility.yul\":9658:9696   */\n      tag_206\n        /* \"#utility.yul\":9690:9694   */\n      dup3\n        /* \"#utility.yul\":9684:9695   */\n      sload\n        /* \"#utility.yul\":9658:9696   */\n      tag_34\n      jump\t// in\n    tag_206:\n        /* \"#utility.yul\":9743:9810   */\n      tag_207\n        /* \"#utility.yul\":9803:9809   */\n      dup3\n        /* \"#utility.yul\":9795:9801   */\n      dup3\n        /* \"#utility.yul\":9789:9793   */\n      dup6\n        /* \"#utility.yul\":9743:9810   */\n      tag_90\n      jump\t// in\n    tag_207:\n        /* \"#utility.yul\":9837:9838   */\n      0x00\n        /* \"#utility.yul\":9861:9865   */\n      0x20\n        /* \"#utility.yul\":9848:9865   */\n      swap1\n      pop\n        /* \"#utility.yul\":9893:9895   */\n      0x1f\n        /* \"#utility.yul\":9885:9891   */\n      dup4\n        /* \"#utility.yul\":9882:9896   */\n      gt\n        /* \"#utility.yul\":9910:9911   */\n      0x01\n        /* \"#utility.yul\":9905:10523   */\n      dup2\n      eq\n      tag_209\n      jumpi\n        /* \"#utility.yul\":10567:10568   */\n      0x00\n        /* \"#utility.yul\":10584:10590   */\n      dup5\n        /* \"#utility.yul\":10581:10658   */\n      iszero\n      tag_210\n      jumpi\n        /* \"#utility.yul\":10633:10642   */\n      dup3\n        /* \"#utility.yul\":10628:10631   */\n      dup8\n        /* \"#utility.yul\":10624:10643   */\n      add\n        /* \"#utility.yul\":10618:10644   */\n      mload\n        /* \"#utility.yul\":10609:10644   */\n      swap1\n      pop\n        /* \"#utility.yul\":10581:10658   */\n    tag_210:\n        /* \"#utility.yul\":10684:10751   */\n      tag_211\n        /* \"#utility.yul\":10744:10750   */\n      dup6\n        /* \"#utility.yul\":10737:10742   */\n      dup3\n        /* \"#utility.yul\":10684:10751   */\n      tag_93\n      jump\t// in\n    tag_211:\n        /* \"#utility.yul\":10678:10682   */\n      dup7\n        /* \"#utility.yul\":10671:10752   */\n      sstore\n        /* \"#utility.yul\":10540:10762   */\n      pop\n        /* \"#utility.yul\":9875:10762   */\n      jump(tag_208)\n        /* \"#utility.yul\":9905:10523   */\n    tag_209:\n        /* \"#utility.yul\":9957:9961   */\n      0x1f\n        /* \"#utility.yul\":9953:9962   */\n      not\n        /* \"#utility.yul\":9945:9951   */\n      dup5\n        /* \"#utility.yul\":9941:9963   */\n      and\n        /* \"#utility.yul\":9991:10028   */\n      tag_212\n        /* \"#utility.yul\":10023:10027   */\n      dup7\n        /* \"#utility.yul\":9991:10028   */\n      tag_79\n      jump\t// in\n    tag_212:\n        /* \"#utility.yul\":10050:10051   */\n      0x00\n        /* \"#utility.yul\":10064:10272   */\n    tag_213:\n        /* \"#utility.yul\":10078:10085   */\n      dup3\n        /* \"#utility.yul\":10075:10076   */\n      dup2\n        /* \"#utility.yul\":10072:10086   */\n      lt\n        /* \"#utility.yul\":10064:10272   */\n      iszero\n      tag_215\n      jumpi\n        /* \"#utility.yul\":10157:10166   */\n      dup5\n        /* \"#utility.yul\":10152:10155   */\n      dup10\n        /* \"#utility.yul\":10148:10167   */\n      add\n        /* \"#utility.yul\":10142:10168   */\n      mload\n        /* \"#utility.yul\":10134:10140   */\n      dup3\n        /* \"#utility.yul\":10127:10169   */\n      sstore\n        /* \"#utility.yul\":10208:10209   */\n      0x01\n        /* \"#utility.yul\":10200:10206   */\n      dup3\n        /* \"#utility.yul\":10196:10210   */\n      add\n        /* \"#utility.yul\":10186:10210   */\n      swap2\n      pop\n        /* \"#utility.yul\":10255:10257   */\n      0x20\n        /* \"#utility.yul\":10244:10253   */\n      dup6\n        /* \"#utility.yul\":10240:10258   */\n      add\n        /* \"#utility.yul\":10227:10258   */\n      swap5\n      pop\n        /* \"#utility.yul\":10101:10105   */\n      0x20\n        /* \"#utility.yul\":10098:10099   */\n      dup2\n        /* \"#utility.yul\":10094:10106   */\n      add\n        /* \"#utility.yul\":10089:10106   */\n      swap1\n      pop\n        /* \"#utility.yul\":10064:10272   */\n      jump(tag_213)\n    tag_215:\n        /* \"#utility.yul\":10300:10306   */\n      dup7\n        /* \"#utility.yul\":10291:10298   */\n      dup4\n        /* \"#utility.yul\":10288:10307   */\n      lt\n        /* \"#utility.yul\":10285:10464   */\n      iszero\n      tag_216\n      jumpi\n        /* \"#utility.yul\":10358:10367   */\n      dup5\n        /* \"#utility.yul\":10353:10356   */\n      dup10\n        /* \"#utility.yul\":10349:10368   */\n      add\n        /* \"#utility.yul\":10343:10369   */\n      mload\n        /* \"#utility.yul\":10401:10449   */\n      tag_217\n        /* \"#utility.yul\":10443:10447   */\n      0x1f\n        /* \"#utility.yul\":10435:10441   */\n      dup10\n        /* \"#utility.yul\":10431:10448   */\n      and\n        /* \"#utility.yul\":10420:10429   */\n      dup3\n        /* \"#utility.yul\":10401:10449   */\n      tag_92\n      jump\t// in\n    tag_217:\n        /* \"#utility.yul\":10393:10399   */\n      dup4\n        /* \"#utility.yul\":10386:10450   */\n      sstore\n        /* \"#utility.yul\":10308:10464   */\n      pop\n        /* \"#utility.yul\":10285:10464   */\n    tag_216:\n        /* \"#utility.yul\":10510:10511   */\n      0x01\n        /* \"#utility.yul\":10506:10507   */\n      0x02\n        /* \"#utility.yul\":10498:10504   */\n      dup9\n        /* \"#utility.yul\":10494:10508   */\n      mul\n        /* \"#utility.yul\":10490:10512   */\n      add\n        /* \"#utility.yul\":10484:10488   */\n      dup9\n        /* \"#utility.yul\":10477:10513   */\n      sstore\n        /* \"#utility.yul\":9912:10523   */\n      pop\n      pop\n      pop\n        /* \"#utility.yul\":9875:10762   */\n    tag_208:\n      pop\n        /* \"#utility.yul\":9465:10768   */\n      pop\n      pop\n      pop\n        /* \"#utility.yul\":9373:10768   */\n      pop\n      pop\n      jump\t// out\n        /* \"#utility.yul\":10774:10954   */\n    tag_49:\n        /* \"#utility.yul\":10822:10899   */\n      0x4e487b7100000000000000000000000000000000000000000000000000000000\n        /* \"#utility.yul\":10819:10820   */\n      0x00\n        /* \"#utility.yul\":10812:10900   */\n      mstore\n        /* \"#utility.yul\":10919:10923   */\n      0x31\n        /* \"#utility.yul\":10916:10917   */\n      0x04\n        /* \"#utility.yul\":10909:10924   */\n      mstore\n        /* \"#utility.yul\":10943:10947   */\n      0x24\n        /* \"#utility.yul\":10940:10941   */\n      0x00\n        /* \"#utility.yul\":10933:10948   */\n      revert\n\n    auxdata: 0xa2646970667358221220f778368b371b77b259858d868d272b9e4e574af28afafa9089108e1db54c2b1464736f6c63430008140033\n}\n",
				"bytecode": {
					"linkReferences": {},
					"object": "608060405234801561000f575f80fd5b506109b48061001d5f395ff3fe608060405234801561000f575f80fd5b5060043610610055575f3560e01c806313bc01941461005957806336555b85146100755780639073613014610091578063a2f9eac6146100b0578063a7f43779146100e1575b5f80fd5b610073600480360381019061006e9190610435565b6100eb565b005b61008f600480360381019061008a9190610435565b61010c565b005b6100996101b6565b6040516100a792919061052b565b60405180910390f35b6100ca60048036038101906100c59190610559565b61024c565b6040516100d892919061052b565b60405180910390f35b6100e9610301565b005b82825f800191826100fd9291906107b5565b50805f60010181905550505050565b5f604051806040016040528085858080601f0160208091040260200160405190810160405280939291908181526020018383808284375f81840152601f19601f820116905080830192505050505050508152602001838152509050600281908060018154018082558091505060019003905f5260205f2090600202015f909190919091505f820151815f0190816101a39190610882565b5060208201518160010155505050505050565b5f805f0180546101c5906105e8565b80601f01602080910402602001604051908101604052809291908181526020018280546101f1906105e8565b801561023c5780601f106102135761010080835404028352916020019161023c565b820191905f5260205f20905b81548152906001019060200180831161021f57829003601f168201915b5050505050908060010154905082565b6002818154811061025b575f80fd5b905f5260205f2090600202015f91509050805f01805461027a906105e8565b80601f01602080910402602001604051908101604052809291908181526020018280546102a6906105e8565b80156102f15780601f106102c8576101008083540402835291602001916102f1565b820191905f5260205f20905b8154815290600101906020018083116102d457829003601f168201915b5050505050908060010154905082565b600280548061031357610312610951565b5b600190038181905f5260205f2090600202015f8082015f6103349190610341565b600182015f905550509055565b50805461034d906105e8565b5f825580601f1061035e575061037b565b601f0160209004905f5260205f209081019061037a919061037e565b5b50565b5b80821115610395575f815f90555060010161037f565b5090565b5f80fd5b5f80fd5b5f80fd5b5f80fd5b5f80fd5b5f8083601f8401126103c2576103c16103a1565b5b8235905067ffffffffffffffff8111156103df576103de6103a5565b5b6020830191508360018202830111156103fb576103fa6103a9565b5b9250929050565b5f819050919050565b61041481610402565b811461041e575f80fd5b50565b5f8135905061042f8161040b565b92915050565b5f805f6040848603121561044c5761044b610399565b5b5f84013567ffffffffffffffff8111156104695761046861039d565b5b610475868287016103ad565b9350935050602061048886828701610421565b9150509250925092565b5f81519050919050565b5f82825260208201905092915050565b5f5b838110156104c95780820151818401526020810190506104ae565b5f8484015250505050565b5f601f19601f8301169050919050565b5f6104ee82610492565b6104f8818561049c565b93506105088185602086016104ac565b610511816104d4565b840191505092915050565b61052581610402565b82525050565b5f6040820190508181035f83015261054381856104e4565b9050610552602083018461051c565b9392505050565b5f6020828403121561056e5761056d610399565b5b5f61057b84828501610421565b91505092915050565b5f82905092915050565b7f4e487b71000000000000000000000000000000000000000000000000000000005f52604160045260245ffd5b7f4e487b71000000000000000000000000000000000000000000000000000000005f52602260045260245ffd5b5f60028204905060018216806105ff57607f821691505b602082108103610612576106116105bb565b5b50919050565b5f819050815f5260205f209050919050565b5f6020601f8301049050919050565b5f82821b905092915050565b5f600883026106747fffffffffffffffffffffffffffffffffffffffffffffffffffffffffffffffff82610639565b61067e8683610639565b95508019841693508086168417925050509392505050565b5f819050919050565b5f6106b96106b46106af84610402565b610696565b610402565b9050919050565b5f819050919050565b6106d28361069f565b6106e66106de826106c0565b848454610645565b825550505050565b5f90565b6106fa6106ee565b6107058184846106c9565b505050565b5b818110156107285761071d5f826106f2565b60018101905061070b565b5050565b601f82111561076d5761073e81610618565b6107478461062a565b81016020851015610756578190505b61076a6107628561062a565b83018261070a565b50505b505050565b5f82821c905092915050565b5f61078d5f1984600802610772565b1980831691505092915050565b5f6107a5838361077e565b9150826002028217905092915050565b6107bf8383610584565b67ffffffffffffffff8111156107d8576107d761058e565b5b6107e282546105e8565b6107ed82828561072c565b5f601f83116001811461081a575f8415610808578287013590505b610812858261079a565b865550610879565b601f19841661082886610618565b5f5b8281101561084f5784890135825560018201915060208501945060208101905061082a565b8683101561086c5784890135610868601f89168261077e565b8355505b6001600288020188555050505b50505050505050565b61088b82610492565b67ffffffffffffffff8111156108a4576108a361058e565b5b6108ae82546105e8565b6108b982828561072c565b5f60209050601f8311600181146108ea575f84156108d8578287015190505b6108e2858261079a565b865550610949565b601f1984166108f886610618565b5f5b8281101561091f578489015182556001820191506020850194506020810190506108fa565b8683101561093c5784890151610938601f89168261077e565b8355505b6001600288020188555050505b505050505050565b7f4e487b71000000000000000000000000000000000000000000000000000000005f52603160045260245ffdfea2646970667358221220f778368b371b77b259858d868d272b9e4e574af28afafa9089108e1db54c2b1464736f6c63430008140033",
					"opcodes": "PUSH1 0x80 PUSH1 0x40 MSTORE CALLVALUE DUP1 ISZERO PUSH2 0xF JUMPI PUSH0 DUP1 REVERT JUMPDEST POP PUSH2 0x9B4 DUP1 PUSH2 0x1D PUSH0 CODECOPY PUSH0 RETURN INVALID PUSH1 0x80 PUSH1 0x40 MSTORE CALLVALUE DUP1 ISZERO PUSH2 0xF JUMPI PUSH0 DUP1 REVERT JUMPDEST POP PUSH1 0x4 CALLDATASIZE LT PUSH2 0x55 JUMPI PUSH0 CALLDATALOAD PUSH1 0xE0 SHR DUP1 PUSH4 0x13BC0194 EQ PUSH2 0x59 JUMPI DUP1 PUSH4 0x36555B85 EQ PUSH2 0x75 JUMPI DUP1 PUSH4 0x90736130 EQ PUSH2 0x91 JUMPI DUP1 PUSH4 0xA2F9EAC6 EQ PUSH2 0xB0 JUMPI DUP1 PUSH4 0xA7F43779 EQ PUSH2 0xE1 JUMPI JUMPDEST PUSH0 DUP1 REVERT JUMPDEST PUSH2 0x73 PUSH1 0x4 DUP1 CALLDATASIZE SUB DUP2 ADD SWAP1 PUSH2 0x6E SWAP2 SWAP1 PUSH2 0x435 JUMP JUMPDEST PUSH2 0xEB JUMP JUMPDEST STOP JUMPDEST PUSH2 0x8F PUSH1 0x4 DUP1 CALLDATASIZE SUB DUP2 ADD SWAP1 PUSH2 0x8A SWAP2 SWAP1 PUSH2 0x435 JUMP JUMPDEST PUSH2 0x10C JUMP JUMPDEST STOP JUMPDEST PUSH2 0x99 PUSH2 0x1B6 JUMP JUMPDEST PUSH1 0x40 MLOAD PUSH2 0xA7 SWAP3 SWAP2 SWAP1 PUSH2 0x52B JUMP JUMPDEST PUSH1 0x40 MLOAD DUP1 SWAP2 SUB SWAP1 RETURN JUMPDEST PUSH2 0xCA PUSH1 0x4 DUP1 CALLDATASIZE SUB DUP2 ADD SWAP1 PUSH2 0xC5 SWAP2 SWAP1 PUSH2 0x559 JUMP JUMPDEST PUSH2 0x24C JUMP JUMPDEST PUSH1 0x40 MLOAD PUSH2 0xD8 SWAP3 SWAP2 SWAP1 PUSH2 0x52B JUMP JUMPDEST PUSH1 0x40 MLOAD DUP1 SWAP2 SUB SWAP1 RETURN JUMPDEST PUSH2 0xE9 PUSH2 0x301 JUMP JUMPDEST STOP JUMPDEST DUP3 DUP3 PUSH0 DUP1 ADD SWAP2 DUP3 PUSH2 0xFD SWAP3 SWAP2 SWAP1 PUSH2 0x7B5 JUMP JUMPDEST POP DUP1 PUSH0 PUSH1 0x1 ADD DUP2 SWAP1 SSTORE POP POP POP POP JUMP JUMPDEST PUSH0 PUSH1 0x40 MLOAD DUP1 PUSH1 0x40 ADD PUSH1 0x40 MSTORE DUP1 DUP6 DUP6 DUP1 DUP1 PUSH1 0x1F ADD PUSH1 0x20 DUP1 SWAP2 DIV MUL PUSH1 0x20 ADD PUSH1 0x40 MLOAD SWAP1 DUP2 ADD PUSH1 0x40 MSTORE DUP1 SWAP4 SWAP3 SWAP2 SWAP1 DUP2 DUP2 MSTORE PUSH1 0x20 ADD DUP4 DUP4 DUP1 DUP3 DUP5 CALLDATACOPY PUSH0 DUP2 DUP5 ADD MSTORE PUSH1 0x1F NOT PUSH1 0x1F DUP3 ADD AND SWAP1 POP DUP1 DUP4 ADD SWAP3 POP POP POP POP POP POP POP DUP2 MSTORE PUSH1 0x20 ADD DUP4 DUP2 MSTORE POP SWAP1 POP PUSH1 0x2 DUP2 SWAP1 DUP1 PUSH1 0x1 DUP2 SLOAD ADD DUP1 DUP3 SSTORE DUP1 SWAP2 POP POP PUSH1 0x1 SWAP1 SUB SWAP1 PUSH0 MSTORE PUSH1 0x20 PUSH0 KECCAK256 SWAP1 PUSH1 0x2 MUL ADD PUSH0 SWAP1 SWAP2 SWAP1 SWAP2 SWAP1 SWAP2 POP PUSH0 DUP3 ADD MLOAD DUP2 PUSH0 ADD SWAP1 DUP2 PUSH2 0x1A3 SWAP2 SWAP1 PUSH2 0x882 JUMP JUMPDEST POP PUSH1 0x20 DUP3 ADD MLOAD DUP2 PUSH1 0x1 ADD SSTORE POP POP POP POP POP POP JUMP JUMPDEST PUSH0 DUP1 PUSH0 ADD DUP1 SLOAD PUSH2 0x1C5 SWAP1 PUSH2 0x5E8 JUMP JUMPDEST DUP1 PUSH1 0x1F ADD PUSH1 0x20 DUP1 SWAP2 DIV MUL PUSH1 0x20 ADD PUSH1 0x40 MLOAD SWAP1 DUP2 ADD PUSH1 0x40 MSTORE DUP1 SWAP3 SWAP2 SWAP1 DUP2 DUP2 MSTORE PUSH1 0x20 ADD DUP3 DUP1 SLOAD PUSH2 0x1F1 SWAP1 PUSH2 0x5E8 JUMP JUMPDEST DUP1 ISZERO PUSH2 0x23C JUMPI DUP1 PUSH1 0x1F LT PUSH2 0x213 JUMPI PUSH2 0x100 DUP1 DUP4 SLOAD DIV MUL DUP4 MSTORE SWAP2 PUSH1 0x20 ADD SWAP2 PUSH2 0x23C JUMP JUMPDEST DUP3 ADD SWAP2 SWAP1 PUSH0 MSTORE PUSH1 0x20 PUSH0 KECCAK256 SWAP1 JUMPDEST DUP2 SLOAD DUP2 MSTORE SWAP1 PUSH1 0x1 ADD SWAP1 PUSH1 0x20 ADD DUP1 DUP4 GT PUSH2 0x21F JUMPI DUP3 SWAP1 SUB PUSH1 0x1F AND DUP3 ADD SWAP2 JUMPDEST POP POP POP POP POP SWAP1 DUP1 PUSH1 0x1 ADD SLOAD SWAP1 POP DUP3 JUMP JUMPDEST PUSH1 0x2 DUP2 DUP2 SLOAD DUP2 LT PUSH2 0x25B JUMPI PUSH0 DUP1 REVERT JUMPDEST SWAP1 PUSH0 MSTORE PUSH1 0x20 PUSH0 KECCAK256 SWAP1 PUSH1 0x2 MUL ADD PUSH0 SWAP2 POP SWAP1 POP DUP1 PUSH0 ADD DUP1 SLOAD PUSH2 0x27A SWAP1 PUSH2 0x5E8 JUMP JUMPDEST DUP1 PUSH1 0x1F ADD PUSH1 0x20 DUP1 SWAP2 DIV MUL PUSH1 0x20 ADD PUSH1 0x40 MLOAD SWAP1 DUP2 ADD PUSH1 0x40 MSTORE DUP1 SWAP3 SWAP2 SWAP1 DUP2 DUP2 MSTORE PUSH1 0x20 ADD DUP3 DUP1 SLOAD PUSH2 0x2A6 SWAP1 PUSH2 0x5E8 JUMP JUMPDEST DUP1 ISZERO PUSH2 0x2F1 JUMPI DUP1 PUSH1 0x1F LT PUSH2 0x2C8 JUMPI PUSH2 0x100 DUP1 DUP4 SLOAD DIV MUL DUP4 MSTORE SWAP2 PUSH1 0x20 ADD SWAP2 PUSH2 0x2F1 JUMP JUMPDEST DUP3 ADD SWAP2 SWAP1 PUSH0 MSTORE PUSH1 0x20 PUSH0 KECCAK256 SWAP1 JUMPDEST DUP2 SLOAD DUP2 MSTORE SWAP1 PUSH1 0x1 ADD SWAP1 PUSH1 0x20 ADD DUP1 DUP4 GT PUSH2 0x2D4 JUMPI DUP3 SWAP1 SUB PUSH1 0x1F AND DUP3 ADD SWAP2 JUMPDEST POP POP POP POP POP SWAP1 DUP1 PUSH1 0x1 ADD SLOAD SWAP1 POP DUP3 JUMP JUMPDEST PUSH1 0x2 DUP1 SLOAD DUP1 PUSH2 0x313 JUMPI PUSH2 0x312 PUSH2 0x951 JUMP JUMPDEST JUMPDEST PUSH1 0x1 SWAP1 SUB DUP2 DUP2 SWAP1 PUSH0 MSTORE PUSH1 0x20 PUSH0 KECCAK256 SWAP1 PUSH1 0x2 MUL ADD PUSH0 DUP1 DUP3 ADD PUSH0 PUSH2 0x334 SWAP2 SWAP1 PUSH2 0x341 JUMP JUMPDEST PUSH1 0x1 DUP3 ADD PUSH0 SWAP1 SSTORE POP POP SWAP1 SSTORE JUMP JUMPDEST POP DUP1 SLOAD PUSH2 0x34D SWAP1 PUSH2 0x5E8 JUMP JUMPDEST PUSH0 DUP3 SSTORE DUP1 PUSH1 0x1F LT PUSH2 0x35E JUMPI POP PUSH2 0x37B JUMP JUMPDEST PUSH1 0x1F ADD PUSH1 0x20 SWAP1 DIV SWAP1 PUSH0 MSTORE PUSH1 0x20 PUSH0 KECCAK256 SWAP1 DUP2 ADD SWAP1 PUSH2 0x37A SWAP2 SWAP1 PUSH2 0x37E JUMP JUMPDEST JUMPDEST POP JUMP JUMPDEST JUMPDEST DUP1 DUP3 GT ISZERO PUSH2 0x395 JUMPI PUSH0 DUP2 PUSH0 SWAP1 SSTORE POP PUSH1 0x1 ADD PUSH2 0x37F JUMP JUMPDEST POP SWAP1 JUMP JUMPDEST PUSH0 DUP1 REVERT JUMPDEST PUSH0 DUP1 REVERT JUMPDEST PUSH0 DUP1 REVERT JUMPDEST PUSH0 DUP1 REVERT JUMPDEST PUSH0 DUP1 REVERT JUMPDEST PUSH0 DUP1 DUP4 PUSH1 0x1F DUP5 ADD SLT PUSH2 0x3C2 JUMPI PUSH2 0x3C1 PUSH2 0x3A1 JUMP JUMPDEST JUMPDEST DUP3 CALLDATALOAD SWAP1 POP PUSH8 0xFFFFFFFFFFFFFFFF DUP2 GT ISZERO PUSH2 0x3DF JUMPI PUSH2 0x3DE PUSH2 0x3A5 JUMP JUMPDEST JUMPDEST PUSH1 0x20 DUP4 ADD SWAP2 POP DUP4 PUSH1 0x1 DUP3 MUL DUP4 ADD GT ISZERO PUSH2 0x3FB JUMPI PUSH2 0x3FA PUSH2 0x3A9 JUMP JUMPDEST JUMPDEST SWAP3 POP SWAP3 SWAP1 POP JUMP JUMPDEST PUSH0 DUP2 SWAP1 POP SWAP2 SWAP1 POP JUMP JUMPDEST PUSH2 0x414 DUP2 PUSH2 0x402 JUMP JUMPDEST DUP2 EQ PUSH2 0x41E JUMPI PUSH0 DUP1 REVERT JUMPDEST POP JUMP JUMPDEST PUSH0 DUP2 CALLDATALOAD SWAP1 POP PUSH2 0x42F DUP2 PUSH2 0x40B JUMP JUMPDEST SWAP3 SWAP2 POP POP JUMP JUMPDEST PUSH0 DUP1 PUSH0 PUSH1 0x40 DUP5 DUP7 SUB SLT ISZERO PUSH2 0x44C JUMPI PUSH2 0x44B PUSH2 0x399 JUMP JUMPDEST JUMPDEST PUSH0 DUP5 ADD CALLDATALOAD PUSH8 0xFFFFFFFFFFFFFFFF DUP2 GT ISZERO PUSH2 0x469 JUMPI PUSH2 0x468 PUSH2 0x39D JUMP JUMPDEST JUMPDEST PUSH2 0x475 DUP7 DUP3 DUP8 ADD PUSH2 0x3AD JUMP JUMPDEST SWAP4 POP SWAP4 POP POP PUSH1 0x20 PUSH2 0x488 DUP7 DUP3 DUP8 ADD PUSH2 0x421 JUMP JUMPDEST SWAP2 POP POP SWAP3 POP SWAP3 POP SWAP3 JUMP JUMPDEST PUSH0 DUP2 MLOAD SWAP1 POP SWAP2 SWAP1 POP JUMP JUMPDEST PUSH0 DUP3 DUP3 MSTORE PUSH1 0x20 DUP3 ADD SWAP1 POP SWAP3 SWAP2 POP POP JUMP JUMPDEST PUSH0 JUMPDEST DUP4 DUP2 LT ISZERO PUSH2 0x4C9 JUMPI DUP1 DUP3 ADD MLOAD DUP2 DUP5 ADD MSTORE PUSH1 0x20 DUP2 ADD SWAP1 POP PUSH2 0x4AE JUMP JUMPDEST PUSH0 DUP5 DUP5 ADD MSTORE POP POP POP POP JUMP JUMPDEST PUSH0 PUSH1 0x1F NOT PUSH1 0x1F DUP4 ADD AND SWAP1 POP SWAP2 SWAP1 POP JUMP JUMPDEST PUSH0 PUSH2 0x4EE DUP3 PUSH2 0x492 JUMP JUMPDEST PUSH2 0x4F8 DUP2 DUP6 PUSH2 0x49C JUMP JUMPDEST SWAP4 POP PUSH2 0x508 DUP2 DUP6 PUSH1 0x20 DUP7 ADD PUSH2 0x4AC JUMP JUMPDEST PUSH2 0x511 DUP2 PUSH2 0x4D4 JUMP JUMPDEST DUP5 ADD SWAP2 POP POP SWAP3 SWAP2 POP POP JUMP JUMPDEST PUSH2 0x525 DUP2 PUSH2 0x402 JUMP JUMPDEST DUP3 MSTORE POP POP JUMP JUMPDEST PUSH0 PUSH1 0x40 DUP3 ADD SWAP1 POP DUP2 DUP2 SUB PUSH0 DUP4 ADD MSTORE PUSH2 0x543 DUP2 DUP6 PUSH2 0x4E4 JUMP JUMPDEST SWAP1 POP PUSH2 0x552 PUSH1 0x20 DUP4 ADD DUP5 PUSH2 0x51C JUMP JUMPDEST SWAP4 SWAP3 POP POP POP JUMP JUMPDEST PUSH0 PUSH1 0x20 DUP3 DUP5 SUB SLT ISZERO PUSH2 0x56E JUMPI PUSH2 0x56D PUSH2 0x399 JUMP JUMPDEST JUMPDEST PUSH0 PUSH2 0x57B DUP5 DUP3 DUP6 ADD PUSH2 0x421 JUMP JUMPDEST SWAP2 POP POP SWAP3 SWAP2 POP POP JUMP JUMPDEST PUSH0 DUP3 SWAP1 POP SWAP3 SWAP2 POP POP JUMP JUMPDEST PUSH32 0x4E487B7100000000000000000000000000000000000000000000000000000000 PUSH0 MSTORE PUSH1 0x41 PUSH1 0x4 MSTORE PUSH1 0x24 PUSH0 REVERT JUMPDEST PUSH32 0x4E487B7100000000000000000000000000000000000000000000000000000000 PUSH0 MSTORE PUSH1 0x22 PUSH1 0x4 MSTORE PUSH1 0x24 PUSH0 REVERT JUMPDEST PUSH0 PUSH1 0x2 DUP3 DIV SWAP1 POP PUSH1 0x1 DUP3 AND DUP1 PUSH2 0x5FF JUMPI PUSH1 0x7F DUP3 AND SWAP2 POP JUMPDEST PUSH1 0x20 DUP3 LT DUP2 SUB PUSH2 0x612 JUMPI PUSH2 0x611 PUSH2 0x5BB JUMP JUMPDEST JUMPDEST POP SWAP2 SWAP1 POP JUMP JUMPDEST PUSH0 DUP2 SWAP1 POP DUP2 PUSH0 MSTORE PUSH1 0x20 PUSH0 KECCAK256 SWAP1 POP SWAP2 SWAP1 POP JUMP JUMPDEST PUSH0 PUSH1 0x20 PUSH1 0x1F DUP4 ADD DIV SWAP1 POP SWAP2 SWAP1 POP JUMP JUMPDEST PUSH0 DUP3 DUP3 SHL SWAP1 POP SWAP3 SWAP2 POP POP JUMP JUMPDEST PUSH0 PUSH1 0x8 DUP4 MUL PUSH2 0x674 PUSH32 0xFFFFFFFFFFFFFFFFFFFFFFFFFFFFFFFFFFFFFFFFFFFFFFFFFFFFFFFFFFFFFFFF DUP3 PUSH2 0x639 JUMP JUMPDEST PUSH2 0x67E DUP7 DUP4 PUSH2 0x639 JUMP JUMPDEST SWAP6 POP DUP1 NOT DUP5 AND SWAP4 POP DUP1 DUP7 AND DUP5 OR SWAP3 POP POP POP SWAP4 SWAP3 POP POP POP JUMP JUMPDEST PUSH0 DUP2 SWAP1 POP SWAP2 SWAP1 POP JUMP JUMPDEST PUSH0 PUSH2 0x6B9 PUSH2 0x6B4 PUSH2 0x6AF DUP5 PUSH2 0x402 JUMP JUMPDEST PUSH2 0x696 JUMP JUMPDEST PUSH2 0x402 JUMP JUMPDEST SWAP1 POP SWAP2 SWAP1 POP JUMP JUMPDEST PUSH0 DUP2 SWAP1 POP SWAP2 SWAP1 POP JUMP JUMPDEST PUSH2 0x6D2 DUP4 PUSH2 0x69F JUMP JUMPDEST PUSH2 0x6E6 PUSH2 0x6DE DUP3 PUSH2 0x6C0 JUMP JUMPDEST DUP5 DUP5 SLOAD PUSH2 0x645 JUMP JUMPDEST DUP3 SSTORE POP POP POP POP JUMP JUMPDEST PUSH0 SWAP1 JUMP JUMPDEST PUSH2 0x6FA PUSH2 0x6EE JUMP JUMPDEST PUSH2 0x705 DUP2 DUP5 DUP5 PUSH2 0x6C9 JUMP JUMPDEST POP POP POP JUMP JUMPDEST JUMPDEST DUP2 DUP2 LT ISZERO PUSH2 0x728 JUMPI PUSH2 0x71D PUSH0 DUP3 PUSH2 0x6F2 JUMP JUMPDEST PUSH1 0x1 DUP2 ADD SWAP1 POP PUSH2 0x70B JUMP JUMPDEST POP POP JUMP JUMPDEST PUSH1 0x1F DUP3 GT ISZERO PUSH2 0x76D JUMPI PUSH2 0x73E DUP2 PUSH2 0x618 JUMP JUMPDEST PUSH2 0x747 DUP5 PUSH2 0x62A JUMP JUMPDEST DUP2 ADD PUSH1 0x20 DUP6 LT ISZERO PUSH2 0x756 JUMPI DUP2 SWAP1 POP JUMPDEST PUSH2 0x76A PUSH2 0x762 DUP6 PUSH2 0x62A JUMP JUMPDEST DUP4 ADD DUP3 PUSH2 0x70A JUMP JUMPDEST POP POP JUMPDEST POP POP POP JUMP JUMPDEST PUSH0 DUP3 DUP3 SHR SWAP1 POP SWAP3 SWAP2 POP POP JUMP JUMPDEST PUSH0 PUSH2 0x78D PUSH0 NOT DUP5 PUSH1 0x8 MUL PUSH2 0x772 JUMP JUMPDEST NOT DUP1 DUP4 AND SWAP2 POP POP SWAP3 SWAP2 POP POP JUMP JUMPDEST PUSH0 PUSH2 0x7A5 DUP4 DUP4 PUSH2 0x77E JUMP JUMPDEST SWAP2 POP DUP3 PUSH1 0x2 MUL DUP3 OR SWAP1 POP SWAP3 SWAP2 POP POP JUMP JUMPDEST PUSH2 0x7BF DUP4 DUP4 PUSH2 0x584 JUMP JUMPDEST PUSH8 0xFFFFFFFFFFFFFFFF DUP2 GT ISZERO PUSH2 0x7D8 JUMPI PUSH2 0x7D7 PUSH2 0x58E JUMP JUMPDEST JUMPDEST PUSH2 0x7E2 DUP3 SLOAD PUSH2 0x5E8 JUMP JUMPDEST PUSH2 0x7ED DUP3 DUP3 DUP6 PUSH2 0x72C JUMP JUMPDEST PUSH0 PUSH1 0x1F DUP4 GT PUSH1 0x1 DUP2 EQ PUSH2 0x81A JUMPI PUSH0 DUP5 ISZERO PUSH2 0x808 JUMPI DUP3 DUP8 ADD CALLDATALOAD SWAP1 POP JUMPDEST PUSH2 0x812 DUP6 DUP3 PUSH2 0x79A JUMP JUMPDEST DUP7 SSTORE POP PUSH2 0x879 JUMP JUMPDEST PUSH1 0x1F NOT DUP5 AND PUSH2 0x828 DUP7 PUSH2 0x618 JUMP JUMPDEST PUSH0 JUMPDEST DUP3 DUP2 LT ISZERO PUSH2 0x84F JUMPI DUP5 DUP10 ADD CALLDATALOAD DUP3 SSTORE PUSH1 0x1 DUP3 ADD SWAP2 POP PUSH1 0x20 DUP6 ADD SWAP5 POP PUSH1 0x20 DUP2 ADD SWAP1 POP PUSH2 0x82A JUMP JUMPDEST DUP7 DUP4 LT ISZERO PUSH2 0x86C JUMPI DUP5 DUP10 ADD CALLDATALOAD PUSH2 0x868 PUSH1 0x1F DUP10 AND DUP3 PUSH2 0x77E JUMP JUMPDEST DUP4 SSTORE POP JUMPDEST PUSH1 0x1 PUSH1 0x2 DUP9 MUL ADD DUP9 SSTORE POP POP POP JUMPDEST POP POP POP POP POP POP POP JUMP JUMPDEST PUSH2 0x88B DUP3 PUSH2 0x492 JUMP JUMPDEST PUSH8 0xFFFFFFFFFFFFFFFF DUP2 GT ISZERO PUSH2 0x8A4 JUMPI PUSH2 0x8A3 PUSH2 0x58E JUMP JUMPDEST JUMPDEST PUSH2 0x8AE DUP3 SLOAD PUSH2 0x5E8 JUMP JUMPDEST PUSH2 0x8B9 DUP3 DUP3 DUP6 PUSH2 0x72C JUMP JUMPDEST PUSH0 PUSH1 0x20 SWAP1 POP PUSH1 0x1F DUP4 GT PUSH1 0x1 DUP2 EQ PUSH2 0x8EA JUMPI PUSH0 DUP5 ISZERO PUSH2 0x8D8 JUMPI DUP3 DUP8 ADD MLOAD SWAP1 POP JUMPDEST PUSH2 0x8E2 DUP6 DUP3 PUSH2 0x79A JUMP JUMPDEST DUP7 SSTORE POP PUSH2 0x949 JUMP JUMPDEST PUSH1 0x1F NOT DUP5 AND PUSH2 0x8F8 DUP7 PUSH2 0x618 JUMP JUMPDEST PUSH0 JUMPDEST DUP3 DUP2 LT ISZERO PUSH2 0x91F JUMPI DUP5 DUP10 ADD MLOAD DUP3 SSTORE PUSH1 0x1 DUP3 ADD SWAP2 POP PUSH1 0x20 DUP6 ADD SWAP5 POP PUSH1 0x20 DUP2 ADD SWAP1 POP PUSH2 0x8FA JUMP JUMPDEST DUP7 DUP4 LT ISZERO PUSH2 0x93C JUMPI DUP5 DUP10 ADD MLOAD PUSH2 0x938 PUSH1 0x1F DUP10 AND DUP3 PUSH2 0x77E JUMP JUMPDEST DUP4 SSTORE POP JUMPDEST PUSH1 0x1 PUSH1 0x2 DUP9 MUL ADD DUP9 SSTORE POP POP POP JUMPDEST POP POP POP POP POP POP JUMP JUMPDEST PUSH32 0x4E487B7100000000000000000000000000000000000000000000000000000000 PUSH0 MSTORE PUSH1 0x31 PUSH1 0x4 MSTORE PUSH1 0x24 PUSH0 REVERT INVALID LOG2 PUSH5 0x6970667358 0x22 SLT KECCAK256 0xF7 PUSH25 0x368B371B77B259858D868D272B9E4E574AF28AFAFA9089108E SAR 0xB5 0x4C 0x2B EQ PUSH5 0x736F6C6343 STOP ADDMOD EQ STOP CALLER "
				},
				"gasEstimates": {
					"creation": {
						"codeDepositCost": "496800",
						"executionCost": "528",
						"totalCost": "497328"
					},
					"external": {
						"add(string,uint256)": "infinite",
						"modifyPerson(string,uint256)": "infinite",
						"moi()": "infinite",
						"persons(uint256)": "infinite",
						"remove()": "infinite"
					}
				},
				"methodIdentifiers": {
					"add(string,uint256)": "36555b85",
					"modifyPerson(string,uint256)": "13bc0194",
					"moi()": "90736130",
					"persons(uint256)": "a2f9eac6",
					"remove()": "a7f43779"
				}
			},
			"storageLayout": {
				"storage": [
					{
						"astId": 9,
						"contract": "contracts/alyra/1_People.sol:People",
						"label": "moi",
						"offset": 0,
						"slot": "0",
						"type": "t_struct(Person)6_storage"
					},
					{
						"astId": 13,
						"contract": "contracts/alyra/1_People.sol:People",
						"label": "persons",
						"offset": 0,
						"slot": "2",
						"type": "t_array(t_struct(Person)6_storage)dyn_storage"
					}
				],
				"types": {
					"t_array(t_struct(Person)6_storage)dyn_storage": {
						"base": "t_struct(Person)6_storage",
						"encoding": "dynamic_array",
						"label": "struct People.Person[]",
						"numberOfBytes": "32"
					},
					"t_string_storage": {
						"encoding": "bytes",
						"label": "string",
						"numberOfBytes": "32"
					},
					"t_struct(Person)6_storage": {
						"encoding": "inplace",
						"label": "struct People.Person",
						"members": [
							{
								"astId": 3,
								"contract": "contracts/alyra/1_People.sol:People",
								"label": "name",
								"offset": 0,
								"slot": "0",
								"type": "t_string_storage"
							},
							{
								"astId": 5,
								"contract": "contracts/alyra/1_People.sol:People",
								"label": "age",
								"offset": 0,
								"slot": "1",
								"type": "t_uint256"
							}
						],
						"numberOfBytes": "64"
					},
					"t_uint256": {
						"encoding": "inplace",
						"label": "uint256",
						"numberOfBytes": "32"
					}
				}
			},
			"userdoc": {
				"kind": "user",
				"methods": {},
				"version": 1
			}
		}
	}
}