{
	"contracts/alyra/3_Conditions.sol": {
		"Conditions": {
			"abi": [
				{
					"inputs": [],
					"name": "retrieve",
					"outputs": [
						{
							"internalType": "uint256",
							"name": "",
							"type": "uint256"
						}
					],
					"stateMutability": "view",
					"type": "function"
				},
				{
					"inputs": [
						{
							"internalType": "uint256",
							"name": "_num",
							"type": "uint256"
						}
					],
					"name": "store",
					"outputs": [],
					"stateMutability": "nonpayable",
					"type": "function"
				},
				{
					"inputs": [
						{
							"internalType": "uint256",
							"name": "_num",
							"type": "uint256"
						}
					],
					"name": "store2",
					"outputs": [],
					"stateMutability": "nonpayable",
					"type": "function"
				}
			],
			"devdoc": {
				"kind": "dev",
				"methods": {},
				"version": 1
			},
			"evm": {
				"assembly": "    /* \"contracts/alyra/3_Conditions.sol\":66:878  contract Conditions {... */\n  mstore(0x40, 0x80)\n  callvalue\n  dup1\n  iszero\n  tag_1\n  jumpi\n  0x00\n  dup1\n  revert\ntag_1:\n  pop\n  dataSize(sub_0)\n  dup1\n  dataOffset(sub_0)\n  0x00\n  codecopy\n  0x00\n  return\nstop\n\nsub_0: assembly {\n        /* \"contracts/alyra/3_Conditions.sol\":66:878  contract Conditions {... */\n      mstore(0x40, 0x80)\n      callvalue\n      dup1\n      iszero\n      tag_1\n      jumpi\n      0x00\n      dup1\n      revert\n    tag_1:\n      pop\n      jumpi(tag_2, lt(calldatasize, 0x04))\n      shr(0xe0, calldataload(0x00))\n      dup1\n      0x27f151f5\n      eq\n      tag_3\n      jumpi\n      dup1\n      0x2e64cec1\n      eq\n      tag_4\n      jumpi\n      dup1\n      0x6057361d\n      eq\n      tag_5\n      jumpi\n    tag_2:\n      0x00\n      dup1\n      revert\n        /* \"contracts/alyra/3_Conditions.sol\":376:788  function store2(uint _num) public {... */\n    tag_3:\n      tag_6\n      0x04\n      dup1\n      calldatasize\n      sub\n      dup2\n      add\n      swap1\n      tag_7\n      swap2\n      swap1\n      tag_8\n      jump\t// in\n    tag_7:\n      tag_9\n      jump\t// in\n    tag_6:\n      stop\n        /* \"contracts/alyra/3_Conditions.sol\":796:875  function retrieve() public view returns (uint) {... */\n    tag_4:\n      tag_10\n      tag_11\n      jump\t// in\n    tag_10:\n      mload(0x40)\n      tag_12\n      swap2\n      swap1\n      tag_13\n      jump\t// in\n    tag_12:\n      mload(0x40)\n      dup1\n      swap2\n      sub\n      swap1\n      return\n        /* \"contracts/alyra/3_Conditions.sol\":113:368  function store(uint _num) public {... */\n    tag_5:\n      tag_14\n      0x04\n      dup1\n      calldatasize\n      sub\n      dup2\n      add\n      swap1\n      tag_15\n      swap2\n      swap1\n      tag_8\n      jump\t// in\n    tag_15:\n      tag_16\n      jump\t// in\n    tag_14:\n      stop\n        /* \"contracts/alyra/3_Conditions.sol\":376:788  function store2(uint _num) public {... */\n    tag_9:\n        /* \"contracts/alyra/3_Conditions.sol\":421:435  uint increment */\n      0x00\n        /* \"contracts/alyra/3_Conditions.sol\":438:442  _num */\n      dup2\n        /* \"contracts/alyra/3_Conditions.sol\":421:442  uint increment = _num */\n      swap1\n      pop\n        /* \"contracts/alyra/3_Conditions.sol\":453:463  uint limit */\n      0x00\n        /* \"contracts/alyra/3_Conditions.sol\":466:468  12 */\n      0x0c\n        /* \"contracts/alyra/3_Conditions.sol\":453:468  uint limit = 12 */\n      swap1\n      pop\n        /* \"contracts/alyra/3_Conditions.sol\":483:489  uint i */\n      0x00\n        /* \"contracts/alyra/3_Conditions.sol\":479:658  for(uint i=0; i<10; i++) {... */\n    tag_18:\n        /* \"contracts/alyra/3_Conditions.sol\":495:497  10 */\n      0x0a\n        /* \"contracts/alyra/3_Conditions.sol\":493:494  i */\n      dup2\n        /* \"contracts/alyra/3_Conditions.sol\":493:497  i<10 */\n      lt\n        /* \"contracts/alyra/3_Conditions.sol\":479:658  for(uint i=0; i<10; i++) {... */\n      iszero\n      tag_19\n      jumpi\n        /* \"contracts/alyra/3_Conditions.sol\":531:540  increment */\n      dup3\n        /* \"contracts/alyra/3_Conditions.sol\":522:527  limit */\n      dup3\n        /* \"contracts/alyra/3_Conditions.sol\":522:540  limit == increment */\n      sub\n        /* \"contracts/alyra/3_Conditions.sol\":519:615  if(limit == increment) {... */\n      tag_21\n      jumpi\n        /* \"contracts/alyra/3_Conditions.sol\":561:572  increment++ */\n      dup3\n      dup1\n      tag_22\n      swap1\n      tag_23\n      jump\t// in\n    tag_22:\n      swap4\n      pop\n      pop\n        /* \"contracts/alyra/3_Conditions.sol\":591:599  continue */\n      jump(tag_20)\n        /* \"contracts/alyra/3_Conditions.sol\":519:615  if(limit == increment) {... */\n    tag_21:\n        /* \"contracts/alyra/3_Conditions.sol\":642:646  _num */\n      dup4\n        /* \"contracts/alyra/3_Conditions.sol\":629:646  increment += _num */\n      dup4\n      tag_24\n      swap2\n      swap1\n      tag_25\n      jump\t// in\n    tag_24:\n      swap3\n      pop\n        /* \"contracts/alyra/3_Conditions.sol\":479:658  for(uint i=0; i<10; i++) {... */\n    tag_20:\n        /* \"contracts/alyra/3_Conditions.sol\":499:502  i++ */\n      dup1\n      dup1\n      tag_26\n      swap1\n      tag_23\n      jump\t// in\n    tag_26:\n      swap2\n      pop\n      pop\n        /* \"contracts/alyra/3_Conditions.sol\":479:658  for(uint i=0; i<10; i++) {... */\n      jump(tag_18)\n    tag_19:\n      pop\n        /* \"contracts/alyra/3_Conditions.sol\":685:687  40 */\n      0x28\n        /* \"contracts/alyra/3_Conditions.sol\":673:682  increment */\n      dup3\n        /* \"contracts/alyra/3_Conditions.sol\":673:687  increment > 40 */\n      gt\n        /* \"contracts/alyra/3_Conditions.sol\":670:750  if(increment > 40) {... */\n      iszero\n      tag_27\n      jumpi\n        /* \"contracts/alyra/3_Conditions.sol\":704:738  revert(unicode\"calmos mec héhé\") */\n      mload(0x40)\n      0x08c379a000000000000000000000000000000000000000000000000000000000\n      dup2\n      mstore\n      0x04\n      add\n      tag_28\n      swap1\n      tag_29\n      jump\t// in\n    tag_28:\n      mload(0x40)\n      dup1\n      swap2\n      sub\n      swap1\n      revert\n        /* \"contracts/alyra/3_Conditions.sol\":670:750  if(increment > 40) {... */\n    tag_27:\n        /* \"contracts/alyra/3_Conditions.sol\":771:780  increment */\n      dup2\n        /* \"contracts/alyra/3_Conditions.sol\":762:768  number */\n      0x00\n        /* \"contracts/alyra/3_Conditions.sol\":762:780  number = increment */\n      dup2\n      swap1\n      sstore\n      pop\n        /* \"contracts/alyra/3_Conditions.sol\":410:788  {... */\n      pop\n      pop\n        /* \"contracts/alyra/3_Conditions.sol\":376:788  function store2(uint _num) public {... */\n      pop\n      jump\t// out\n        /* \"contracts/alyra/3_Conditions.sol\":796:875  function retrieve() public view returns (uint) {... */\n    tag_11:\n        /* \"contracts/alyra/3_Conditions.sol\":837:841  uint */\n      0x00\n        /* \"contracts/alyra/3_Conditions.sol\":861:867  number */\n      dup1\n      sload\n        /* \"contracts/alyra/3_Conditions.sol\":854:867  return number */\n      swap1\n      pop\n        /* \"contracts/alyra/3_Conditions.sol\":796:875  function retrieve() public view returns (uint) {... */\n      swap1\n      jump\t// out\n        /* \"contracts/alyra/3_Conditions.sol\":113:368  function store(uint _num) public {... */\n    tag_16:\n        /* \"contracts/alyra/3_Conditions.sol\":173:174  0 */\n      0x00\n        /* \"contracts/alyra/3_Conditions.sol\":165:169  _num */\n      dup2\n        /* \"contracts/alyra/3_Conditions.sol\":165:174  _num != 0 */\n      sub\n        /* \"contracts/alyra/3_Conditions.sol\":157:194  require(_num != 0, \"can't be zero !\") */\n      tag_32\n      jumpi\n      mload(0x40)\n      0x08c379a000000000000000000000000000000000000000000000000000000000\n      dup2\n      mstore\n      0x04\n      add\n      tag_33\n      swap1\n      tag_34\n      jump\t// in\n    tag_33:\n      mload(0x40)\n      dup1\n      swap2\n      sub\n      swap1\n      revert\n    tag_32:\n        /* \"contracts/alyra/3_Conditions.sol\":205:219  uint increment */\n      0x00\n        /* \"contracts/alyra/3_Conditions.sol\":222:226  _num */\n      dup2\n        /* \"contracts/alyra/3_Conditions.sol\":205:226  uint increment = _num */\n      swap1\n      pop\n        /* \"contracts/alyra/3_Conditions.sol\":237:247  uint limit */\n      0x00\n        /* \"contracts/alyra/3_Conditions.sol\":250:252  12 */\n      0x0c\n        /* \"contracts/alyra/3_Conditions.sol\":237:252  uint limit = 12 */\n      swap1\n      pop\n        /* \"contracts/alyra/3_Conditions.sol\":263:332  while(limit > increment) {... */\n    tag_35:\n        /* \"contracts/alyra/3_Conditions.sol\":277:286  increment */\n      dup2\n        /* \"contracts/alyra/3_Conditions.sol\":269:274  limit */\n      dup2\n        /* \"contracts/alyra/3_Conditions.sol\":269:286  limit > increment */\n      gt\n        /* \"contracts/alyra/3_Conditions.sol\":263:332  while(limit > increment) {... */\n      iszero\n      tag_36\n      jumpi\n        /* \"contracts/alyra/3_Conditions.sol\":316:320  _num */\n      dup3\n        /* \"contracts/alyra/3_Conditions.sol\":303:320  increment += _num */\n      dup3\n      tag_37\n      swap2\n      swap1\n      tag_25\n      jump\t// in\n    tag_37:\n      swap2\n      pop\n        /* \"contracts/alyra/3_Conditions.sol\":263:332  while(limit > increment) {... */\n      jump(tag_35)\n    tag_36:\n        /* \"contracts/alyra/3_Conditions.sol\":351:360  increment */\n      dup2\n        /* \"contracts/alyra/3_Conditions.sol\":342:348  number */\n      0x00\n        /* \"contracts/alyra/3_Conditions.sol\":342:360  number = increment */\n      dup2\n      swap1\n      sstore\n      pop\n        /* \"contracts/alyra/3_Conditions.sol\":146:368  {... */\n      pop\n      pop\n        /* \"contracts/alyra/3_Conditions.sol\":113:368  function store(uint _num) public {... */\n      pop\n      jump\t// out\n        /* \"#utility.yul\":88:205   */\n    tag_39:\n        /* \"#utility.yul\":197:198   */\n      0x00\n        /* \"#utility.yul\":194:195   */\n      dup1\n        /* \"#utility.yul\":187:199   */\n      revert\n        /* \"#utility.yul\":334:411   */\n    tag_41:\n        /* \"#utility.yul\":371:378   */\n      0x00\n        /* \"#utility.yul\":400:405   */\n      dup2\n        /* \"#utility.yul\":389:405   */\n      swap1\n      pop\n        /* \"#utility.yul\":334:411   */\n      swap2\n      swap1\n      pop\n      jump\t// out\n        /* \"#utility.yul\":417:539   */\n    tag_42:\n        /* \"#utility.yul\":490:514   */\n      tag_57\n        /* \"#utility.yul\":508:513   */\n      dup2\n        /* \"#utility.yul\":490:514   */\n      tag_41\n      jump\t// in\n    tag_57:\n        /* \"#utility.yul\":483:488   */\n      dup2\n        /* \"#utility.yul\":480:515   */\n      eq\n        /* \"#utility.yul\":470:533   */\n      tag_58\n      jumpi\n        /* \"#utility.yul\":529:530   */\n      0x00\n        /* \"#utility.yul\":526:527   */\n      dup1\n        /* \"#utility.yul\":519:531   */\n      revert\n        /* \"#utility.yul\":470:533   */\n    tag_58:\n        /* \"#utility.yul\":417:539   */\n      pop\n      jump\t// out\n        /* \"#utility.yul\":545:684   */\n    tag_43:\n        /* \"#utility.yul\":591:596   */\n      0x00\n        /* \"#utility.yul\":629:635   */\n      dup2\n        /* \"#utility.yul\":616:636   */\n      calldataload\n        /* \"#utility.yul\":607:636   */\n      swap1\n      pop\n        /* \"#utility.yul\":645:678   */\n      tag_60\n        /* \"#utility.yul\":672:677   */\n      dup2\n        /* \"#utility.yul\":645:678   */\n      tag_42\n      jump\t// in\n    tag_60:\n        /* \"#utility.yul\":545:684   */\n      swap3\n      swap2\n      pop\n      pop\n      jump\t// out\n        /* \"#utility.yul\":690:1019   */\n    tag_8:\n        /* \"#utility.yul\":749:755   */\n      0x00\n        /* \"#utility.yul\":798:800   */\n      0x20\n        /* \"#utility.yul\":786:795   */\n      dup3\n        /* \"#utility.yul\":777:784   */\n      dup5\n        /* \"#utility.yul\":773:796   */\n      sub\n        /* \"#utility.yul\":769:801   */\n      slt\n        /* \"#utility.yul\":766:885   */\n      iszero\n      tag_62\n      jumpi\n        /* \"#utility.yul\":804:883   */\n      tag_63\n      tag_39\n      jump\t// in\n    tag_63:\n        /* \"#utility.yul\":766:885   */\n    tag_62:\n        /* \"#utility.yul\":924:925   */\n      0x00\n        /* \"#utility.yul\":949:1002   */\n      tag_64\n        /* \"#utility.yul\":994:1001   */\n      dup5\n        /* \"#utility.yul\":985:991   */\n      dup3\n        /* \"#utility.yul\":974:983   */\n      dup6\n        /* \"#utility.yul\":970:992   */\n      add\n        /* \"#utility.yul\":949:1002   */\n      tag_43\n      jump\t// in\n    tag_64:\n        /* \"#utility.yul\":939:1002   */\n      swap2\n      pop\n        /* \"#utility.yul\":895:1012   */\n      pop\n        /* \"#utility.yul\":690:1019   */\n      swap3\n      swap2\n      pop\n      pop\n      jump\t// out\n        /* \"#utility.yul\":1025:1143   */\n    tag_44:\n        /* \"#utility.yul\":1112:1136   */\n      tag_66\n        /* \"#utility.yul\":1130:1135   */\n      dup2\n        /* \"#utility.yul\":1112:1136   */\n      tag_41\n      jump\t// in\n    tag_66:\n        /* \"#utility.yul\":1107:1110   */\n      dup3\n        /* \"#utility.yul\":1100:1137   */\n      mstore\n        /* \"#utility.yul\":1025:1143   */\n      pop\n      pop\n      jump\t// out\n        /* \"#utility.yul\":1149:1371   */\n    tag_13:\n        /* \"#utility.yul\":1242:1246   */\n      0x00\n        /* \"#utility.yul\":1280:1282   */\n      0x20\n        /* \"#utility.yul\":1269:1278   */\n      dup3\n        /* \"#utility.yul\":1265:1283   */\n      add\n        /* \"#utility.yul\":1257:1283   */\n      swap1\n      pop\n        /* \"#utility.yul\":1293:1364   */\n      tag_68\n        /* \"#utility.yul\":1361:1362   */\n      0x00\n        /* \"#utility.yul\":1350:1359   */\n      dup4\n        /* \"#utility.yul\":1346:1363   */\n      add\n        /* \"#utility.yul\":1337:1343   */\n      dup5\n        /* \"#utility.yul\":1293:1364   */\n      tag_44\n      jump\t// in\n    tag_68:\n        /* \"#utility.yul\":1149:1371   */\n      swap3\n      swap2\n      pop\n      pop\n      jump\t// out\n        /* \"#utility.yul\":1377:1557   */\n    tag_45:\n        /* \"#utility.yul\":1425:1502   */\n      0x4e487b7100000000000000000000000000000000000000000000000000000000\n        /* \"#utility.yul\":1422:1423   */\n      0x00\n        /* \"#utility.yul\":1415:1503   */\n      mstore\n        /* \"#utility.yul\":1522:1526   */\n      0x11\n        /* \"#utility.yul\":1519:1520   */\n      0x04\n        /* \"#utility.yul\":1512:1527   */\n      mstore\n        /* \"#utility.yul\":1546:1550   */\n      0x24\n        /* \"#utility.yul\":1543:1544   */\n      0x00\n        /* \"#utility.yul\":1536:1551   */\n      revert\n        /* \"#utility.yul\":1563:1796   */\n    tag_23:\n        /* \"#utility.yul\":1602:1605   */\n      0x00\n        /* \"#utility.yul\":1625:1649   */\n      tag_71\n        /* \"#utility.yul\":1643:1648   */\n      dup3\n        /* \"#utility.yul\":1625:1649   */\n      tag_41\n      jump\t// in\n    tag_71:\n        /* \"#utility.yul\":1616:1649   */\n      swap2\n      pop\n        /* \"#utility.yul\":1671:1737   */\n      0xffffffffffffffffffffffffffffffffffffffffffffffffffffffffffffffff\n        /* \"#utility.yul\":1664:1669   */\n      dup3\n        /* \"#utility.yul\":1661:1738   */\n      sub\n        /* \"#utility.yul\":1658:1761   */\n      tag_72\n      jumpi\n        /* \"#utility.yul\":1741:1759   */\n      tag_73\n      tag_45\n      jump\t// in\n    tag_73:\n        /* \"#utility.yul\":1658:1761   */\n    tag_72:\n        /* \"#utility.yul\":1788:1789   */\n      0x01\n        /* \"#utility.yul\":1781:1786   */\n      dup3\n        /* \"#utility.yul\":1777:1790   */\n      add\n        /* \"#utility.yul\":1770:1790   */\n      swap1\n      pop\n        /* \"#utility.yul\":1563:1796   */\n      swap2\n      swap1\n      pop\n      jump\t// out\n        /* \"#utility.yul\":1802:1993   */\n    tag_25:\n        /* \"#utility.yul\":1842:1845   */\n      0x00\n        /* \"#utility.yul\":1861:1881   */\n      tag_75\n        /* \"#utility.yul\":1879:1880   */\n      dup3\n        /* \"#utility.yul\":1861:1881   */\n      tag_41\n      jump\t// in\n    tag_75:\n        /* \"#utility.yul\":1856:1881   */\n      swap2\n      pop\n        /* \"#utility.yul\":1895:1915   */\n      tag_76\n        /* \"#utility.yul\":1913:1914   */\n      dup4\n        /* \"#utility.yul\":1895:1915   */\n      tag_41\n      jump\t// in\n    tag_76:\n        /* \"#utility.yul\":1890:1915   */\n      swap3\n      pop\n        /* \"#utility.yul\":1938:1939   */\n      dup3\n        /* \"#utility.yul\":1935:1936   */\n      dup3\n        /* \"#utility.yul\":1931:1940   */\n      add\n        /* \"#utility.yul\":1924:1940   */\n      swap1\n      pop\n        /* \"#utility.yul\":1959:1962   */\n      dup1\n        /* \"#utility.yul\":1956:1957   */\n      dup3\n        /* \"#utility.yul\":1953:1963   */\n      gt\n        /* \"#utility.yul\":1950:1986   */\n      iszero\n      tag_77\n      jumpi\n        /* \"#utility.yul\":1966:1984   */\n      tag_78\n      tag_45\n      jump\t// in\n    tag_78:\n        /* \"#utility.yul\":1950:1986   */\n    tag_77:\n        /* \"#utility.yul\":1802:1993   */\n      swap3\n      swap2\n      pop\n      pop\n      jump\t// out\n        /* \"#utility.yul\":1999:2168   */\n    tag_46:\n        /* \"#utility.yul\":2083:2094   */\n      0x00\n        /* \"#utility.yul\":2117:2123   */\n      dup3\n        /* \"#utility.yul\":2112:2115   */\n      dup3\n        /* \"#utility.yul\":2105:2124   */\n      mstore\n        /* \"#utility.yul\":2157:2161   */\n      0x20\n        /* \"#utility.yul\":2152:2155   */\n      dup3\n        /* \"#utility.yul\":2148:2162   */\n      add\n        /* \"#utility.yul\":2133:2162   */\n      swap1\n      pop\n        /* \"#utility.yul\":1999:2168   */\n      swap3\n      swap2\n      pop\n      pop\n      jump\t// out\n        /* \"#utility.yul\":2174:2388   */\n    tag_47:\n        /* \"#utility.yul\":2314:2380   */\n      0x63616c6d6f73206d65632068c3a968c3a9000000000000000000000000000000\n        /* \"#utility.yul\":2310:2311   */\n      0x00\n        /* \"#utility.yul\":2302:2308   */\n      dup3\n        /* \"#utility.yul\":2298:2312   */\n      add\n        /* \"#utility.yul\":2291:2381   */\n      mstore\n        /* \"#utility.yul\":2174:2388   */\n      pop\n      jump\t// out\n        /* \"#utility.yul\":2394:2760   */\n    tag_48:\n        /* \"#utility.yul\":2536:2539   */\n      0x00\n        /* \"#utility.yul\":2557:2624   */\n      tag_82\n        /* \"#utility.yul\":2621:2623   */\n      0x11\n        /* \"#utility.yul\":2616:2619   */\n      dup4\n        /* \"#utility.yul\":2557:2624   */\n      tag_46\n      jump\t// in\n    tag_82:\n        /* \"#utility.yul\":2550:2624   */\n      swap2\n      pop\n        /* \"#utility.yul\":2633:2726   */\n      tag_83\n        /* \"#utility.yul\":2722:2725   */\n      dup3\n        /* \"#utility.yul\":2633:2726   */\n      tag_47\n      jump\t// in\n    tag_83:\n        /* \"#utility.yul\":2751:2753   */\n      0x20\n        /* \"#utility.yul\":2746:2749   */\n      dup3\n        /* \"#utility.yul\":2742:2754   */\n      add\n        /* \"#utility.yul\":2735:2754   */\n      swap1\n      pop\n        /* \"#utility.yul\":2394:2760   */\n      swap2\n      swap1\n      pop\n      jump\t// out\n        /* \"#utility.yul\":2766:3185   */\n    tag_29:\n        /* \"#utility.yul\":2932:2936   */\n      0x00\n        /* \"#utility.yul\":2970:2972   */\n      0x20\n        /* \"#utility.yul\":2959:2968   */\n      dup3\n        /* \"#utility.yul\":2955:2973   */\n      add\n        /* \"#utility.yul\":2947:2973   */\n      swap1\n      pop\n        /* \"#utility.yul\":3019:3028   */\n      dup2\n        /* \"#utility.yul\":3013:3017   */\n      dup2\n        /* \"#utility.yul\":3009:3029   */\n      sub\n        /* \"#utility.yul\":3005:3006   */\n      0x00\n        /* \"#utility.yul\":2994:3003   */\n      dup4\n        /* \"#utility.yul\":2990:3007   */\n      add\n        /* \"#utility.yul\":2983:3030   */\n      mstore\n        /* \"#utility.yul\":3047:3178   */\n      tag_85\n        /* \"#utility.yul\":3173:3177   */\n      dup2\n        /* \"#utility.yul\":3047:3178   */\n      tag_48\n      jump\t// in\n    tag_85:\n        /* \"#utility.yul\":3039:3178   */\n      swap1\n      pop\n        /* \"#utility.yul\":2766:3185   */\n      swap2\n      swap1\n      pop\n      jump\t// out\n        /* \"#utility.yul\":3191:3356   */\n    tag_49:\n        /* \"#utility.yul\":3331:3348   */\n      0x63616e2774206265207a65726f20210000000000000000000000000000000000\n        /* \"#utility.yul\":3327:3328   */\n      0x00\n        /* \"#utility.yul\":3319:3325   */\n      dup3\n        /* \"#utility.yul\":3315:3329   */\n      add\n        /* \"#utility.yul\":3308:3349   */\n      mstore\n        /* \"#utility.yul\":3191:3356   */\n      pop\n      jump\t// out\n        /* \"#utility.yul\":3362:3728   */\n    tag_50:\n        /* \"#utility.yul\":3504:3507   */\n      0x00\n        /* \"#utility.yul\":3525:3592   */\n      tag_88\n        /* \"#utility.yul\":3589:3591   */\n      0x0f\n        /* \"#utility.yul\":3584:3587   */\n      dup4\n        /* \"#utility.yul\":3525:3592   */\n      tag_46\n      jump\t// in\n    tag_88:\n        /* \"#utility.yul\":3518:3592   */\n      swap2\n      pop\n        /* \"#utility.yul\":3601:3694   */\n      tag_89\n        /* \"#utility.yul\":3690:3693   */\n      dup3\n        /* \"#utility.yul\":3601:3694   */\n      tag_49\n      jump\t// in\n    tag_89:\n        /* \"#utility.yul\":3719:3721   */\n      0x20\n        /* \"#utility.yul\":3714:3717   */\n      dup3\n        /* \"#utility.yul\":3710:3722   */\n      add\n        /* \"#utility.yul\":3703:3722   */\n      swap1\n      pop\n        /* \"#utility.yul\":3362:3728   */\n      swap2\n      swap1\n      pop\n      jump\t// out\n        /* \"#utility.yul\":3734:4153   */\n    tag_34:\n        /* \"#utility.yul\":3900:3904   */\n      0x00\n        /* \"#utility.yul\":3938:3940   */\n      0x20\n        /* \"#utility.yul\":3927:3936   */\n      dup3\n        /* \"#utility.yul\":3923:3941   */\n      add\n        /* \"#utility.yul\":3915:3941   */\n      swap1\n      pop\n        /* \"#utility.yul\":3987:3996   */\n      dup2\n        /* \"#utility.yul\":3981:3985   */\n      dup2\n        /* \"#utility.yul\":3977:3997   */\n      sub\n        /* \"#utility.yul\":3973:3974   */\n      0x00\n        /* \"#utility.yul\":3962:3971   */\n      dup4\n        /* \"#utility.yul\":3958:3975   */\n      add\n        /* \"#utility.yul\":3951:3998   */\n      mstore\n        /* \"#utility.yul\":4015:4146   */\n      tag_91\n        /* \"#utility.yul\":4141:4145   */\n      dup2\n        /* \"#utility.yul\":4015:4146   */\n      tag_50\n      jump\t// in\n    tag_91:\n        /* \"#utility.yul\":4007:4146   */\n      swap1\n      pop\n        /* \"#utility.yul\":3734:4153   */\n      swap2\n      swap1\n      pop\n      jump\t// out\n\n    auxdata: 0xa264697066735822122024302d43fc00d3acd5e573e36aa76f88064cf695cc81897413f9f8f75884572d64736f6c63430008140033\n}\n",
				"bytecode": {
					"linkReferences": {},
					"object": "608060405234801561000f575f80fd5b506103fa8061001d5f395ff3fe608060405234801561000f575f80fd5b506004361061003f575f3560e01c806327f151f5146100435780632e64cec11461005f5780636057361d1461007d575b5f80fd5b61005d600480360381019061005891906101ea565b610099565b005b610067610139565b6040516100749190610224565b60405180910390f35b610097600480360381019061009291906101ea565b610141565b005b5f8190505f600c90505f5b600a8110156100e9578282036100c75782806100bf9061026a565b9350506100d6565b83836100d391906102b1565b92505b80806100e19061026a565b9150506100a4565b50602882111561012e576040517f08c379a00000000000000000000000000000000000000000000000000000000081526004016101259061033e565b60405180910390fd5b815f81905550505050565b5f8054905090565b5f8103610183576040517f08c379a000000000000000000000000000000000000000000000000000000000815260040161017a906103a6565b60405180910390fd5b5f8190505f600c90505b818111156101a85782826101a191906102b1565b915061018d565b815f81905550505050565b5f80fd5b5f819050919050565b6101c9816101b7565b81146101d3575f80fd5b50565b5f813590506101e4816101c0565b92915050565b5f602082840312156101ff576101fe6101b3565b5b5f61020c848285016101d6565b91505092915050565b61021e816101b7565b82525050565b5f6020820190506102375f830184610215565b92915050565b7f4e487b71000000000000000000000000000000000000000000000000000000005f52601160045260245ffd5b5f610274826101b7565b91507fffffffffffffffffffffffffffffffffffffffffffffffffffffffffffffffff82036102a6576102a561023d565b5b600182019050919050565b5f6102bb826101b7565b91506102c6836101b7565b92508282019050808211156102de576102dd61023d565b5b92915050565b5f82825260208201905092915050565b7f63616c6d6f73206d65632068c3a968c3a90000000000000000000000000000005f82015250565b5f6103286011836102e4565b9150610333826102f4565b602082019050919050565b5f6020820190508181035f8301526103558161031c565b9050919050565b7f63616e2774206265207a65726f202100000000000000000000000000000000005f82015250565b5f610390600f836102e4565b915061039b8261035c565b602082019050919050565b5f6020820190508181035f8301526103bd81610384565b905091905056fea264697066735822122024302d43fc00d3acd5e573e36aa76f88064cf695cc81897413f9f8f75884572d64736f6c63430008140033",
					"opcodes": "PUSH1 0x80 PUSH1 0x40 MSTORE CALLVALUE DUP1 ISZERO PUSH2 0xF JUMPI PUSH0 DUP1 REVERT JUMPDEST POP PUSH2 0x3FA DUP1 PUSH2 0x1D PUSH0 CODECOPY PUSH0 RETURN INVALID PUSH1 0x80 PUSH1 0x40 MSTORE CALLVALUE DUP1 ISZERO PUSH2 0xF JUMPI PUSH0 DUP1 REVERT JUMPDEST POP PUSH1 0x4 CALLDATASIZE LT PUSH2 0x3F JUMPI PUSH0 CALLDATALOAD PUSH1 0xE0 SHR DUP1 PUSH4 0x27F151F5 EQ PUSH2 0x43 JUMPI DUP1 PUSH4 0x2E64CEC1 EQ PUSH2 0x5F JUMPI DUP1 PUSH4 0x6057361D EQ PUSH2 0x7D JUMPI JUMPDEST PUSH0 DUP1 REVERT JUMPDEST PUSH2 0x5D PUSH1 0x4 DUP1 CALLDATASIZE SUB DUP2 ADD SWAP1 PUSH2 0x58 SWAP2 SWAP1 PUSH2 0x1EA JUMP JUMPDEST PUSH2 0x99 JUMP JUMPDEST STOP JUMPDEST PUSH2 0x67 PUSH2 0x139 JUMP JUMPDEST PUSH1 0x40 MLOAD PUSH2 0x74 SWAP2 SWAP1 PUSH2 0x224 JUMP JUMPDEST PUSH1 0x40 MLOAD DUP1 SWAP2 SUB SWAP1 RETURN JUMPDEST PUSH2 0x97 PUSH1 0x4 DUP1 CALLDATASIZE SUB DUP2 ADD SWAP1 PUSH2 0x92 SWAP2 SWAP1 PUSH2 0x1EA JUMP JUMPDEST PUSH2 0x141 JUMP JUMPDEST STOP JUMPDEST PUSH0 DUP2 SWAP1 POP PUSH0 PUSH1 0xC SWAP1 POP PUSH0 JUMPDEST PUSH1 0xA DUP2 LT ISZERO PUSH2 0xE9 JUMPI DUP3 DUP3 SUB PUSH2 0xC7 JUMPI DUP3 DUP1 PUSH2 0xBF SWAP1 PUSH2 0x26A JUMP JUMPDEST SWAP4 POP POP PUSH2 0xD6 JUMP JUMPDEST DUP4 DUP4 PUSH2 0xD3 SWAP2 SWAP1 PUSH2 0x2B1 JUMP JUMPDEST SWAP3 POP JUMPDEST DUP1 DUP1 PUSH2 0xE1 SWAP1 PUSH2 0x26A JUMP JUMPDEST SWAP2 POP POP PUSH2 0xA4 JUMP JUMPDEST POP PUSH1 0x28 DUP3 GT ISZERO PUSH2 0x12E JUMPI PUSH1 0x40 MLOAD PUSH32 0x8C379A000000000000000000000000000000000000000000000000000000000 DUP2 MSTORE PUSH1 0x4 ADD PUSH2 0x125 SWAP1 PUSH2 0x33E JUMP JUMPDEST PUSH1 0x40 MLOAD DUP1 SWAP2 SUB SWAP1 REVERT JUMPDEST DUP2 PUSH0 DUP2 SWAP1 SSTORE POP POP POP POP JUMP JUMPDEST PUSH0 DUP1 SLOAD SWAP1 POP SWAP1 JUMP JUMPDEST PUSH0 DUP2 SUB PUSH2 0x183 JUMPI PUSH1 0x40 MLOAD PUSH32 0x8C379A000000000000000000000000000000000000000000000000000000000 DUP2 MSTORE PUSH1 0x4 ADD PUSH2 0x17A SWAP1 PUSH2 0x3A6 JUMP JUMPDEST PUSH1 0x40 MLOAD DUP1 SWAP2 SUB SWAP1 REVERT JUMPDEST PUSH0 DUP2 SWAP1 POP PUSH0 PUSH1 0xC SWAP1 POP JUMPDEST DUP2 DUP2 GT ISZERO PUSH2 0x1A8 JUMPI DUP3 DUP3 PUSH2 0x1A1 SWAP2 SWAP1 PUSH2 0x2B1 JUMP JUMPDEST SWAP2 POP PUSH2 0x18D JUMP JUMPDEST DUP2 PUSH0 DUP2 SWAP1 SSTORE POP POP POP POP JUMP JUMPDEST PUSH0 DUP1 REVERT JUMPDEST PUSH0 DUP2 SWAP1 POP SWAP2 SWAP1 POP JUMP JUMPDEST PUSH2 0x1C9 DUP2 PUSH2 0x1B7 JUMP JUMPDEST DUP2 EQ PUSH2 0x1D3 JUMPI PUSH0 DUP1 REVERT JUMPDEST POP JUMP JUMPDEST PUSH0 DUP2 CALLDATALOAD SWAP1 POP PUSH2 0x1E4 DUP2 PUSH2 0x1C0 JUMP JUMPDEST SWAP3 SWAP2 POP POP JUMP JUMPDEST PUSH0 PUSH1 0x20 DUP3 DUP5 SUB SLT ISZERO PUSH2 0x1FF JUMPI PUSH2 0x1FE PUSH2 0x1B3 JUMP JUMPDEST JUMPDEST PUSH0 PUSH2 0x20C DUP5 DUP3 DUP6 ADD PUSH2 0x1D6 JUMP JUMPDEST SWAP2 POP POP SWAP3 SWAP2 POP POP JUMP JUMPDEST PUSH2 0x21E DUP2 PUSH2 0x1B7 JUMP JUMPDEST DUP3 MSTORE POP POP JUMP JUMPDEST PUSH0 PUSH1 0x20 DUP3 ADD SWAP1 POP PUSH2 0x237 PUSH0 DUP4 ADD DUP5 PUSH2 0x215 JUMP JUMPDEST SWAP3 SWAP2 POP POP JUMP JUMPDEST PUSH32 0x4E487B7100000000000000000000000000000000000000000000000000000000 PUSH0 MSTORE PUSH1 0x11 PUSH1 0x4 MSTORE PUSH1 0x24 PUSH0 REVERT JUMPDEST PUSH0 PUSH2 0x274 DUP3 PUSH2 0x1B7 JUMP JUMPDEST SWAP2 POP PUSH32 0xFFFFFFFFFFFFFFFFFFFFFFFFFFFFFFFFFFFFFFFFFFFFFFFFFFFFFFFFFFFFFFFF DUP3 SUB PUSH2 0x2A6 JUMPI PUSH2 0x2A5 PUSH2 0x23D JUMP JUMPDEST JUMPDEST PUSH1 0x1 DUP3 ADD SWAP1 POP SWAP2 SWAP1 POP JUMP JUMPDEST PUSH0 PUSH2 0x2BB DUP3 PUSH2 0x1B7 JUMP JUMPDEST SWAP2 POP PUSH2 0x2C6 DUP4 PUSH2 0x1B7 JUMP JUMPDEST SWAP3 POP DUP3 DUP3 ADD SWAP1 POP DUP1 DUP3 GT ISZERO PUSH2 0x2DE JUMPI PUSH2 0x2DD PUSH2 0x23D JUMP JUMPDEST JUMPDEST SWAP3 SWAP2 POP POP JUMP JUMPDEST PUSH0 DUP3 DUP3 MSTORE PUSH1 0x20 DUP3 ADD SWAP1 POP SWAP3 SWAP2 POP POP JUMP JUMPDEST PUSH32 0x63616C6D6F73206D65632068C3A968C3A9000000000000000000000000000000 PUSH0 DUP3 ADD MSTORE POP JUMP JUMPDEST PUSH0 PUSH2 0x328 PUSH1 0x11 DUP4 PUSH2 0x2E4 JUMP JUMPDEST SWAP2 POP PUSH2 0x333 DUP3 PUSH2 0x2F4 JUMP JUMPDEST PUSH1 0x20 DUP3 ADD SWAP1 POP SWAP2 SWAP1 POP JUMP JUMPDEST PUSH0 PUSH1 0x20 DUP3 ADD SWAP1 POP DUP2 DUP2 SUB PUSH0 DUP4 ADD MSTORE PUSH2 0x355 DUP2 PUSH2 0x31C JUMP JUMPDEST SWAP1 POP SWAP2 SWAP1 POP JUMP JUMPDEST PUSH32 0x63616E2774206265207A65726F20210000000000000000000000000000000000 PUSH0 DUP3 ADD MSTORE POP JUMP JUMPDEST PUSH0 PUSH2 0x390 PUSH1 0xF DUP4 PUSH2 0x2E4 JUMP JUMPDEST SWAP2 POP PUSH2 0x39B DUP3 PUSH2 0x35C JUMP JUMPDEST PUSH1 0x20 DUP3 ADD SWAP1 POP SWAP2 SWAP1 POP JUMP JUMPDEST PUSH0 PUSH1 0x20 DUP3 ADD SWAP1 POP DUP2 DUP2 SUB PUSH0 DUP4 ADD MSTORE PUSH2 0x3BD DUP2 PUSH2 0x384 JUMP JUMPDEST SWAP1 POP SWAP2 SWAP1 POP JUMP INVALID LOG2 PUSH5 0x6970667358 0x22 SLT KECCAK256 0x24 ADDRESS 0x2D NUMBER 0xFC STOP 0xD3 0xAC 0xD5 0xE5 PUSH20 0xE36AA76F88064CF695CC81897413F9F8F7588457 0x2D PUSH5 0x736F6C6343 STOP ADDMOD EQ STOP CALLER "
				},
				"gasEstimates": {
					"creation": {
						"codeDepositCost": "203600",
						"executionCost": "243",
						"totalCost": "203843"
					},
					"external": {
						"retrieve()": "2432",
						"store(uint256)": "infinite",
						"store2(uint256)": "infinite"
					}
				},
				"methodIdentifiers": {
					"retrieve()": "2e64cec1",
					"store(uint256)": "6057361d",
					"store2(uint256)": "27f151f5"
				}
			},
			"storageLayout": {
				"storage": [
					{
						"astId": 3,
						"contract": "contracts/alyra/3_Conditions.sol:Conditions",
						"label": "number",
						"offset": 0,
						"slot": "0",
						"type": "t_uint256"
					}
				],
				"types": {
					"t_uint256": {
						"encoding": "inplace",
						"label": "uint256",
						"numberOfBytes": "32"
					}
				}
			},
			"userdoc": {
				"kind": "user",
				"methods": {},
				"version": 1
			}
		}
	}
}