{
	"contracts/alyra/Bank.sol": {
		"Bank": {
			"abi": [
				{
					"inputs": [
						{
							"internalType": "address",
							"name": "_address",
							"type": "address"
						}
					],
					"name": "balanceOf",
					"outputs": [
						{
							"internalType": "uint256",
							"name": "",
							"type": "uint256"
						}
					],
					"stateMutability": "view",
					"type": "function"
				},
				{
					"inputs": [
						{
							"internalType": "uint256",
							"name": "_amount",
							"type": "uint256"
						}
					],
					"name": "deposit",
					"outputs": [],
					"stateMutability": "nonpayable",
					"type": "function"
				},
				{
					"inputs": [
						{
							"internalType": "address",
							"name": "_recipient",
							"type": "address"
						},
						{
							"internalType": "uint256",
							"name": "_amount",
							"type": "uint256"
						}
					],
					"name": "transfer",
					"outputs": [],
					"stateMutability": "nonpayable",
					"type": "function"
				}
			],
			"devdoc": {
				"kind": "dev",
				"methods": {},
				"version": 1
			},
			"evm": {
				"assembly": "    /* \"contracts/alyra/Bank.sol\":60:689  contract Bank {... */\n  mstore(0x40, 0x80)\n  callvalue\n  dup1\n  iszero\n  tag_1\n  jumpi\n  0x00\n  dup1\n  revert\ntag_1:\n  pop\n  dataSize(sub_0)\n  dup1\n  dataOffset(sub_0)\n  0x00\n  codecopy\n  0x00\n  return\nstop\n\nsub_0: assembly {\n        /* \"contracts/alyra/Bank.sol\":60:689  contract Bank {... */\n      mstore(0x40, 0x80)\n      callvalue\n      dup1\n      iszero\n      tag_1\n      jumpi\n      0x00\n      dup1\n      revert\n    tag_1:\n      pop\n      jumpi(tag_2, lt(calldatasize, 0x04))\n      shr(0xe0, calldataload(0x00))\n      dup1\n      0x70a08231\n      eq\n      tag_3\n      jumpi\n      dup1\n      0xa9059cbb\n      eq\n      tag_4\n      jumpi\n      dup1\n      0xb6b55f25\n      eq\n      tag_5\n      jumpi\n    tag_2:\n      0x00\n      dup1\n      revert\n        /* \"contracts/alyra/Bank.sol\":578:686  function balanceOf(address _address) public view returns(uint) {... */\n    tag_3:\n      tag_6\n      0x04\n      dup1\n      calldatasize\n      sub\n      dup2\n      add\n      swap1\n      tag_7\n      swap2\n      swap1\n      tag_8\n      jump\t// in\n    tag_7:\n      tag_9\n      jump\t// in\n    tag_6:\n      mload(0x40)\n      tag_10\n      swap2\n      swap1\n      tag_11\n      jump\t// in\n    tag_10:\n      mload(0x40)\n      dup1\n      swap2\n      sub\n      swap1\n      return\n        /* \"contracts/alyra/Bank.sol\":229:570  function transfer(address _recipient, uint _amount) public {... */\n    tag_4:\n      tag_12\n      0x04\n      dup1\n      calldatasize\n      sub\n      dup2\n      add\n      swap1\n      tag_13\n      swap2\n      swap1\n      tag_14\n      jump\t// in\n    tag_13:\n      tag_15\n      jump\t// in\n    tag_12:\n      stop\n        /* \"contracts/alyra/Bank.sol\":132:221  function deposit(uint _amount) public {... */\n    tag_5:\n      tag_16\n      0x04\n      dup1\n      calldatasize\n      sub\n      dup2\n      add\n      swap1\n      tag_17\n      swap2\n      swap1\n      tag_18\n      jump\t// in\n    tag_17:\n      tag_19\n      jump\t// in\n    tag_16:\n      stop\n        /* \"contracts/alyra/Bank.sol\":578:686  function balanceOf(address _address) public view returns(uint) {... */\n    tag_9:\n        /* \"contracts/alyra/Bank.sol\":635:639  uint */\n      0x00\n        /* \"contracts/alyra/Bank.sol\":659:668  _balances */\n      dup1\n        /* \"contracts/alyra/Bank.sol\":659:678  _balances[_address] */\n      0x00\n        /* \"contracts/alyra/Bank.sol\":669:677  _address */\n      dup4\n        /* \"contracts/alyra/Bank.sol\":659:678  _balances[_address] */\n      0xffffffffffffffffffffffffffffffffffffffff\n      and\n      0xffffffffffffffffffffffffffffffffffffffff\n      and\n      dup2\n      mstore\n      0x20\n      add\n      swap1\n      dup2\n      mstore\n      0x20\n      add\n      0x00\n      keccak256\n      sload\n        /* \"contracts/alyra/Bank.sol\":652:678  return _balances[_address] */\n      swap1\n      pop\n        /* \"contracts/alyra/Bank.sol\":578:686  function balanceOf(address _address) public view returns(uint) {... */\n      swap2\n      swap1\n      pop\n      jump\t// out\n        /* \"contracts/alyra/Bank.sol\":229:570  function transfer(address _recipient, uint _amount) public {... */\n    tag_15:\n        /* \"contracts/alyra/Bank.sol\":329:330  0 */\n      0x00\n        /* \"contracts/alyra/Bank.sol\":307:331  _recipient != address(0) */\n      0xffffffffffffffffffffffffffffffffffffffff\n      and\n        /* \"contracts/alyra/Bank.sol\":307:317  _recipient */\n      dup3\n        /* \"contracts/alyra/Bank.sol\":307:331  _recipient != address(0) */\n      0xffffffffffffffffffffffffffffffffffffffff\n      and\n      sub\n        /* \"contracts/alyra/Bank.sol\":299:373  require(_recipient != address(0), \"Cannot transfer to the address zero !\") */\n      tag_22\n      jumpi\n      mload(0x40)\n      0x08c379a000000000000000000000000000000000000000000000000000000000\n      dup2\n      mstore\n      0x04\n      add\n      tag_23\n      swap1\n      tag_24\n      jump\t// in\n    tag_23:\n      mload(0x40)\n      dup1\n      swap2\n      sub\n      swap1\n      revert\n    tag_22:\n        /* \"contracts/alyra/Bank.sol\":432:441  _balances */\n      0x00\n        /* \"contracts/alyra/Bank.sol\":432:453  _balances[msg.sender] */\n      dup1\n        /* \"contracts/alyra/Bank.sol\":442:452  msg.sender */\n      caller\n        /* \"contracts/alyra/Bank.sol\":432:453  _balances[msg.sender] */\n      0xffffffffffffffffffffffffffffffffffffffff\n      and\n      0xffffffffffffffffffffffffffffffffffffffff\n      and\n      dup2\n      mstore\n      0x20\n      add\n      swap1\n      dup2\n      mstore\n      0x20\n      add\n      0x00\n      keccak256\n      sload\n        /* \"contracts/alyra/Bank.sol\":421:428  _amount */\n      dup2\n        /* \"contracts/alyra/Bank.sol\":421:453  _amount <= _balances[msg.sender] */\n      gt\n      iszero\n        /* \"contracts/alyra/Bank.sol\":413:476  require(_amount <= _balances[msg.sender], \"Not enough money !\") */\n      tag_25\n      jumpi\n      mload(0x40)\n      0x08c379a000000000000000000000000000000000000000000000000000000000\n      dup2\n      mstore\n      0x04\n      add\n      tag_26\n      swap1\n      tag_27\n      jump\t// in\n    tag_26:\n      mload(0x40)\n      dup1\n      swap2\n      sub\n      swap1\n      revert\n    tag_25:\n        /* \"contracts/alyra/Bank.sol\":512:519  _amount */\n      dup1\n        /* \"contracts/alyra/Bank.sol\":487:496  _balances */\n      0x00\n        /* \"contracts/alyra/Bank.sol\":487:508  _balances[_recipient] */\n      dup1\n        /* \"contracts/alyra/Bank.sol\":497:507  _recipient */\n      dup5\n        /* \"contracts/alyra/Bank.sol\":487:508  _balances[_recipient] */\n      0xffffffffffffffffffffffffffffffffffffffff\n      and\n      0xffffffffffffffffffffffffffffffffffffffff\n      and\n      dup2\n      mstore\n      0x20\n      add\n      swap1\n      dup2\n      mstore\n      0x20\n      add\n      0x00\n      keccak256\n      0x00\n        /* \"contracts/alyra/Bank.sol\":487:519  _balances[_recipient] += _amount */\n      dup3\n      dup3\n      sload\n      tag_28\n      swap2\n      swap1\n      tag_29\n      jump\t// in\n    tag_28:\n      swap3\n      pop\n      pop\n      dup2\n      swap1\n      sstore\n      pop\n        /* \"contracts/alyra/Bank.sol\":555:562  _amount */\n      dup1\n        /* \"contracts/alyra/Bank.sol\":530:539  _balances */\n      0x00\n        /* \"contracts/alyra/Bank.sol\":530:551  _balances[msg.sender] */\n      dup1\n        /* \"contracts/alyra/Bank.sol\":540:550  msg.sender */\n      caller\n        /* \"contracts/alyra/Bank.sol\":530:551  _balances[msg.sender] */\n      0xffffffffffffffffffffffffffffffffffffffff\n      and\n      0xffffffffffffffffffffffffffffffffffffffff\n      and\n      dup2\n      mstore\n      0x20\n      add\n      swap1\n      dup2\n      mstore\n      0x20\n      add\n      0x00\n      keccak256\n      0x00\n        /* \"contracts/alyra/Bank.sol\":530:562  _balances[msg.sender] -= _amount */\n      dup3\n      dup3\n      sload\n      tag_30\n      swap2\n      swap1\n      tag_31\n      jump\t// in\n    tag_30:\n      swap3\n      pop\n      pop\n      dup2\n      swap1\n      sstore\n      pop\n        /* \"contracts/alyra/Bank.sol\":229:570  function transfer(address _recipient, uint _amount) public {... */\n      pop\n      pop\n      jump\t// out\n        /* \"contracts/alyra/Bank.sol\":132:221  function deposit(uint _amount) public {... */\n    tag_19:\n        /* \"contracts/alyra/Bank.sol\":206:213  _amount */\n      dup1\n        /* \"contracts/alyra/Bank.sol\":181:190  _balances */\n      0x00\n        /* \"contracts/alyra/Bank.sol\":181:202  _balances[msg.sender] */\n      dup1\n        /* \"contracts/alyra/Bank.sol\":191:201  msg.sender */\n      caller\n        /* \"contracts/alyra/Bank.sol\":181:202  _balances[msg.sender] */\n      0xffffffffffffffffffffffffffffffffffffffff\n      and\n      0xffffffffffffffffffffffffffffffffffffffff\n      and\n      dup2\n      mstore\n      0x20\n      add\n      swap1\n      dup2\n      mstore\n      0x20\n      add\n      0x00\n      keccak256\n      0x00\n        /* \"contracts/alyra/Bank.sol\":181:213  _balances[msg.sender] += _amount */\n      dup3\n      dup3\n      sload\n      tag_33\n      swap2\n      swap1\n      tag_29\n      jump\t// in\n    tag_33:\n      swap3\n      pop\n      pop\n      dup2\n      swap1\n      sstore\n      pop\n        /* \"contracts/alyra/Bank.sol\":132:221  function deposit(uint _amount) public {... */\n      pop\n      jump\t// out\n        /* \"#utility.yul\":88:205   */\n    tag_35:\n        /* \"#utility.yul\":197:198   */\n      0x00\n        /* \"#utility.yul\":194:195   */\n      dup1\n        /* \"#utility.yul\":187:199   */\n      revert\n        /* \"#utility.yul\":334:460   */\n    tag_37:\n        /* \"#utility.yul\":371:378   */\n      0x00\n        /* \"#utility.yul\":411:453   */\n      0xffffffffffffffffffffffffffffffffffffffff\n        /* \"#utility.yul\":404:409   */\n      dup3\n        /* \"#utility.yul\":400:454   */\n      and\n        /* \"#utility.yul\":389:454   */\n      swap1\n      pop\n        /* \"#utility.yul\":334:460   */\n      swap2\n      swap1\n      pop\n      jump\t// out\n        /* \"#utility.yul\":466:562   */\n    tag_38:\n        /* \"#utility.yul\":503:510   */\n      0x00\n        /* \"#utility.yul\":532:556   */\n      tag_57\n        /* \"#utility.yul\":550:555   */\n      dup3\n        /* \"#utility.yul\":532:556   */\n      tag_37\n      jump\t// in\n    tag_57:\n        /* \"#utility.yul\":521:556   */\n      swap1\n      pop\n        /* \"#utility.yul\":466:562   */\n      swap2\n      swap1\n      pop\n      jump\t// out\n        /* \"#utility.yul\":568:690   */\n    tag_39:\n        /* \"#utility.yul\":641:665   */\n      tag_59\n        /* \"#utility.yul\":659:664   */\n      dup2\n        /* \"#utility.yul\":641:665   */\n      tag_38\n      jump\t// in\n    tag_59:\n        /* \"#utility.yul\":634:639   */\n      dup2\n        /* \"#utility.yul\":631:666   */\n      eq\n        /* \"#utility.yul\":621:684   */\n      tag_60\n      jumpi\n        /* \"#utility.yul\":680:681   */\n      0x00\n        /* \"#utility.yul\":677:678   */\n      dup1\n        /* \"#utility.yul\":670:682   */\n      revert\n        /* \"#utility.yul\":621:684   */\n    tag_60:\n        /* \"#utility.yul\":568:690   */\n      pop\n      jump\t// out\n        /* \"#utility.yul\":696:835   */\n    tag_40:\n        /* \"#utility.yul\":742:747   */\n      0x00\n        /* \"#utility.yul\":780:786   */\n      dup2\n        /* \"#utility.yul\":767:787   */\n      calldataload\n        /* \"#utility.yul\":758:787   */\n      swap1\n      pop\n        /* \"#utility.yul\":796:829   */\n      tag_62\n        /* \"#utility.yul\":823:828   */\n      dup2\n        /* \"#utility.yul\":796:829   */\n      tag_39\n      jump\t// in\n    tag_62:\n        /* \"#utility.yul\":696:835   */\n      swap3\n      swap2\n      pop\n      pop\n      jump\t// out\n        /* \"#utility.yul\":841:1170   */\n    tag_8:\n        /* \"#utility.yul\":900:906   */\n      0x00\n        /* \"#utility.yul\":949:951   */\n      0x20\n        /* \"#utility.yul\":937:946   */\n      dup3\n        /* \"#utility.yul\":928:935   */\n      dup5\n        /* \"#utility.yul\":924:947   */\n      sub\n        /* \"#utility.yul\":920:952   */\n      slt\n        /* \"#utility.yul\":917:1036   */\n      iszero\n      tag_64\n      jumpi\n        /* \"#utility.yul\":955:1034   */\n      tag_65\n      tag_35\n      jump\t// in\n    tag_65:\n        /* \"#utility.yul\":917:1036   */\n    tag_64:\n        /* \"#utility.yul\":1075:1076   */\n      0x00\n        /* \"#utility.yul\":1100:1153   */\n      tag_66\n        /* \"#utility.yul\":1145:1152   */\n      dup5\n        /* \"#utility.yul\":1136:1142   */\n      dup3\n        /* \"#utility.yul\":1125:1134   */\n      dup6\n        /* \"#utility.yul\":1121:1143   */\n      add\n        /* \"#utility.yul\":1100:1153   */\n      tag_40\n      jump\t// in\n    tag_66:\n        /* \"#utility.yul\":1090:1153   */\n      swap2\n      pop\n        /* \"#utility.yul\":1046:1163   */\n      pop\n        /* \"#utility.yul\":841:1170   */\n      swap3\n      swap2\n      pop\n      pop\n      jump\t// out\n        /* \"#utility.yul\":1176:1253   */\n    tag_41:\n        /* \"#utility.yul\":1213:1220   */\n      0x00\n        /* \"#utility.yul\":1242:1247   */\n      dup2\n        /* \"#utility.yul\":1231:1247   */\n      swap1\n      pop\n        /* \"#utility.yul\":1176:1253   */\n      swap2\n      swap1\n      pop\n      jump\t// out\n        /* \"#utility.yul\":1259:1377   */\n    tag_42:\n        /* \"#utility.yul\":1346:1370   */\n      tag_69\n        /* \"#utility.yul\":1364:1369   */\n      dup2\n        /* \"#utility.yul\":1346:1370   */\n      tag_41\n      jump\t// in\n    tag_69:\n        /* \"#utility.yul\":1341:1344   */\n      dup3\n        /* \"#utility.yul\":1334:1371   */\n      mstore\n        /* \"#utility.yul\":1259:1377   */\n      pop\n      pop\n      jump\t// out\n        /* \"#utility.yul\":1383:1605   */\n    tag_11:\n        /* \"#utility.yul\":1476:1480   */\n      0x00\n        /* \"#utility.yul\":1514:1516   */\n      0x20\n        /* \"#utility.yul\":1503:1512   */\n      dup3\n        /* \"#utility.yul\":1499:1517   */\n      add\n        /* \"#utility.yul\":1491:1517   */\n      swap1\n      pop\n        /* \"#utility.yul\":1527:1598   */\n      tag_71\n        /* \"#utility.yul\":1595:1596   */\n      0x00\n        /* \"#utility.yul\":1584:1593   */\n      dup4\n        /* \"#utility.yul\":1580:1597   */\n      add\n        /* \"#utility.yul\":1571:1577   */\n      dup5\n        /* \"#utility.yul\":1527:1598   */\n      tag_42\n      jump\t// in\n    tag_71:\n        /* \"#utility.yul\":1383:1605   */\n      swap3\n      swap2\n      pop\n      pop\n      jump\t// out\n        /* \"#utility.yul\":1611:1733   */\n    tag_43:\n        /* \"#utility.yul\":1684:1708   */\n      tag_73\n        /* \"#utility.yul\":1702:1707   */\n      dup2\n        /* \"#utility.yul\":1684:1708   */\n      tag_41\n      jump\t// in\n    tag_73:\n        /* \"#utility.yul\":1677:1682   */\n      dup2\n        /* \"#utility.yul\":1674:1709   */\n      eq\n        /* \"#utility.yul\":1664:1727   */\n      tag_74\n      jumpi\n        /* \"#utility.yul\":1723:1724   */\n      0x00\n        /* \"#utility.yul\":1720:1721   */\n      dup1\n        /* \"#utility.yul\":1713:1725   */\n      revert\n        /* \"#utility.yul\":1664:1727   */\n    tag_74:\n        /* \"#utility.yul\":1611:1733   */\n      pop\n      jump\t// out\n        /* \"#utility.yul\":1739:1878   */\n    tag_44:\n        /* \"#utility.yul\":1785:1790   */\n      0x00\n        /* \"#utility.yul\":1823:1829   */\n      dup2\n        /* \"#utility.yul\":1810:1830   */\n      calldataload\n        /* \"#utility.yul\":1801:1830   */\n      swap1\n      pop\n        /* \"#utility.yul\":1839:1872   */\n      tag_76\n        /* \"#utility.yul\":1866:1871   */\n      dup2\n        /* \"#utility.yul\":1839:1872   */\n      tag_43\n      jump\t// in\n    tag_76:\n        /* \"#utility.yul\":1739:1878   */\n      swap3\n      swap2\n      pop\n      pop\n      jump\t// out\n        /* \"#utility.yul\":1884:2358   */\n    tag_14:\n        /* \"#utility.yul\":1952:1958   */\n      0x00\n        /* \"#utility.yul\":1960:1966   */\n      dup1\n        /* \"#utility.yul\":2009:2011   */\n      0x40\n        /* \"#utility.yul\":1997:2006   */\n      dup4\n        /* \"#utility.yul\":1988:1995   */\n      dup6\n        /* \"#utility.yul\":1984:2007   */\n      sub\n        /* \"#utility.yul\":1980:2012   */\n      slt\n        /* \"#utility.yul\":1977:2096   */\n      iszero\n      tag_78\n      jumpi\n        /* \"#utility.yul\":2015:2094   */\n      tag_79\n      tag_35\n      jump\t// in\n    tag_79:\n        /* \"#utility.yul\":1977:2096   */\n    tag_78:\n        /* \"#utility.yul\":2135:2136   */\n      0x00\n        /* \"#utility.yul\":2160:2213   */\n      tag_80\n        /* \"#utility.yul\":2205:2212   */\n      dup6\n        /* \"#utility.yul\":2196:2202   */\n      dup3\n        /* \"#utility.yul\":2185:2194   */\n      dup7\n        /* \"#utility.yul\":2181:2203   */\n      add\n        /* \"#utility.yul\":2160:2213   */\n      tag_40\n      jump\t// in\n    tag_80:\n        /* \"#utility.yul\":2150:2213   */\n      swap3\n      pop\n        /* \"#utility.yul\":2106:2223   */\n      pop\n        /* \"#utility.yul\":2262:2264   */\n      0x20\n        /* \"#utility.yul\":2288:2341   */\n      tag_81\n        /* \"#utility.yul\":2333:2340   */\n      dup6\n        /* \"#utility.yul\":2324:2330   */\n      dup3\n        /* \"#utility.yul\":2313:2322   */\n      dup7\n        /* \"#utility.yul\":2309:2331   */\n      add\n        /* \"#utility.yul\":2288:2341   */\n      tag_44\n      jump\t// in\n    tag_81:\n        /* \"#utility.yul\":2278:2341   */\n      swap2\n      pop\n        /* \"#utility.yul\":2233:2351   */\n      pop\n        /* \"#utility.yul\":1884:2358   */\n      swap3\n      pop\n      swap3\n      swap1\n      pop\n      jump\t// out\n        /* \"#utility.yul\":2364:2693   */\n    tag_18:\n        /* \"#utility.yul\":2423:2429   */\n      0x00\n        /* \"#utility.yul\":2472:2474   */\n      0x20\n        /* \"#utility.yul\":2460:2469   */\n      dup3\n        /* \"#utility.yul\":2451:2458   */\n      dup5\n        /* \"#utility.yul\":2447:2470   */\n      sub\n        /* \"#utility.yul\":2443:2475   */\n      slt\n        /* \"#utility.yul\":2440:2559   */\n      iszero\n      tag_83\n      jumpi\n        /* \"#utility.yul\":2478:2557   */\n      tag_84\n      tag_35\n      jump\t// in\n    tag_84:\n        /* \"#utility.yul\":2440:2559   */\n    tag_83:\n        /* \"#utility.yul\":2598:2599   */\n      0x00\n        /* \"#utility.yul\":2623:2676   */\n      tag_85\n        /* \"#utility.yul\":2668:2675   */\n      dup5\n        /* \"#utility.yul\":2659:2665   */\n      dup3\n        /* \"#utility.yul\":2648:2657   */\n      dup6\n        /* \"#utility.yul\":2644:2666   */\n      add\n        /* \"#utility.yul\":2623:2676   */\n      tag_44\n      jump\t// in\n    tag_85:\n        /* \"#utility.yul\":2613:2676   */\n      swap2\n      pop\n        /* \"#utility.yul\":2569:2686   */\n      pop\n        /* \"#utility.yul\":2364:2693   */\n      swap3\n      swap2\n      pop\n      pop\n      jump\t// out\n        /* \"#utility.yul\":2699:2868   */\n    tag_45:\n        /* \"#utility.yul\":2783:2794   */\n      0x00\n        /* \"#utility.yul\":2817:2823   */\n      dup3\n        /* \"#utility.yul\":2812:2815   */\n      dup3\n        /* \"#utility.yul\":2805:2824   */\n      mstore\n        /* \"#utility.yul\":2857:2861   */\n      0x20\n        /* \"#utility.yul\":2852:2855   */\n      dup3\n        /* \"#utility.yul\":2848:2862   */\n      add\n        /* \"#utility.yul\":2833:2862   */\n      swap1\n      pop\n        /* \"#utility.yul\":2699:2868   */\n      swap3\n      swap2\n      pop\n      pop\n      jump\t// out\n        /* \"#utility.yul\":2874:3098   */\n    tag_46:\n        /* \"#utility.yul\":3014:3048   */\n      0x43616e6e6f74207472616e7366657220746f207468652061646472657373207a\n        /* \"#utility.yul\":3010:3011   */\n      0x00\n        /* \"#utility.yul\":3002:3008   */\n      dup3\n        /* \"#utility.yul\":2998:3012   */\n      add\n        /* \"#utility.yul\":2991:3049   */\n      mstore\n        /* \"#utility.yul\":3083:3090   */\n      0x65726f2021000000000000000000000000000000000000000000000000000000\n        /* \"#utility.yul\":3078:3080   */\n      0x20\n        /* \"#utility.yul\":3070:3076   */\n      dup3\n        /* \"#utility.yul\":3066:3081   */\n      add\n        /* \"#utility.yul\":3059:3091   */\n      mstore\n        /* \"#utility.yul\":2874:3098   */\n      pop\n      jump\t// out\n        /* \"#utility.yul\":3104:3470   */\n    tag_47:\n        /* \"#utility.yul\":3246:3249   */\n      0x00\n        /* \"#utility.yul\":3267:3334   */\n      tag_89\n        /* \"#utility.yul\":3331:3333   */\n      0x25\n        /* \"#utility.yul\":3326:3329   */\n      dup4\n        /* \"#utility.yul\":3267:3334   */\n      tag_45\n      jump\t// in\n    tag_89:\n        /* \"#utility.yul\":3260:3334   */\n      swap2\n      pop\n        /* \"#utility.yul\":3343:3436   */\n      tag_90\n        /* \"#utility.yul\":3432:3435   */\n      dup3\n        /* \"#utility.yul\":3343:3436   */\n      tag_46\n      jump\t// in\n    tag_90:\n        /* \"#utility.yul\":3461:3463   */\n      0x40\n        /* \"#utility.yul\":3456:3459   */\n      dup3\n        /* \"#utility.yul\":3452:3464   */\n      add\n        /* \"#utility.yul\":3445:3464   */\n      swap1\n      pop\n        /* \"#utility.yul\":3104:3470   */\n      swap2\n      swap1\n      pop\n      jump\t// out\n        /* \"#utility.yul\":3476:3895   */\n    tag_24:\n        /* \"#utility.yul\":3642:3646   */\n      0x00\n        /* \"#utility.yul\":3680:3682   */\n      0x20\n        /* \"#utility.yul\":3669:3678   */\n      dup3\n        /* \"#utility.yul\":3665:3683   */\n      add\n        /* \"#utility.yul\":3657:3683   */\n      swap1\n      pop\n        /* \"#utility.yul\":3729:3738   */\n      dup2\n        /* \"#utility.yul\":3723:3727   */\n      dup2\n        /* \"#utility.yul\":3719:3739   */\n      sub\n        /* \"#utility.yul\":3715:3716   */\n      0x00\n        /* \"#utility.yul\":3704:3713   */\n      dup4\n        /* \"#utility.yul\":3700:3717   */\n      add\n        /* \"#utility.yul\":3693:3740   */\n      mstore\n        /* \"#utility.yul\":3757:3888   */\n      tag_92\n        /* \"#utility.yul\":3883:3887   */\n      dup2\n        /* \"#utility.yul\":3757:3888   */\n      tag_47\n      jump\t// in\n    tag_92:\n        /* \"#utility.yul\":3749:3888   */\n      swap1\n      pop\n        /* \"#utility.yul\":3476:3895   */\n      swap2\n      swap1\n      pop\n      jump\t// out\n        /* \"#utility.yul\":3901:4069   */\n    tag_48:\n        /* \"#utility.yul\":4041:4061   */\n      0x4e6f7420656e6f756768206d6f6e657920210000000000000000000000000000\n        /* \"#utility.yul\":4037:4038   */\n      0x00\n        /* \"#utility.yul\":4029:4035   */\n      dup3\n        /* \"#utility.yul\":4025:4039   */\n      add\n        /* \"#utility.yul\":4018:4062   */\n      mstore\n        /* \"#utility.yul\":3901:4069   */\n      pop\n      jump\t// out\n        /* \"#utility.yul\":4075:4441   */\n    tag_49:\n        /* \"#utility.yul\":4217:4220   */\n      0x00\n        /* \"#utility.yul\":4238:4305   */\n      tag_95\n        /* \"#utility.yul\":4302:4304   */\n      0x12\n        /* \"#utility.yul\":4297:4300   */\n      dup4\n        /* \"#utility.yul\":4238:4305   */\n      tag_45\n      jump\t// in\n    tag_95:\n        /* \"#utility.yul\":4231:4305   */\n      swap2\n      pop\n        /* \"#utility.yul\":4314:4407   */\n      tag_96\n        /* \"#utility.yul\":4403:4406   */\n      dup3\n        /* \"#utility.yul\":4314:4407   */\n      tag_48\n      jump\t// in\n    tag_96:\n        /* \"#utility.yul\":4432:4434   */\n      0x20\n        /* \"#utility.yul\":4427:4430   */\n      dup3\n        /* \"#utility.yul\":4423:4435   */\n      add\n        /* \"#utility.yul\":4416:4435   */\n      swap1\n      pop\n        /* \"#utility.yul\":4075:4441   */\n      swap2\n      swap1\n      pop\n      jump\t// out\n        /* \"#utility.yul\":4447:4866   */\n    tag_27:\n        /* \"#utility.yul\":4613:4617   */\n      0x00\n        /* \"#utility.yul\":4651:4653   */\n      0x20\n        /* \"#utility.yul\":4640:4649   */\n      dup3\n        /* \"#utility.yul\":4636:4654   */\n      add\n        /* \"#utility.yul\":4628:4654   */\n      swap1\n      pop\n        /* \"#utility.yul\":4700:4709   */\n      dup2\n        /* \"#utility.yul\":4694:4698   */\n      dup2\n        /* \"#utility.yul\":4690:4710   */\n      sub\n        /* \"#utility.yul\":4686:4687   */\n      0x00\n        /* \"#utility.yul\":4675:4684   */\n      dup4\n        /* \"#utility.yul\":4671:4688   */\n      add\n        /* \"#utility.yul\":4664:4711   */\n      mstore\n        /* \"#utility.yul\":4728:4859   */\n      tag_98\n        /* \"#utility.yul\":4854:4858   */\n      dup2\n        /* \"#utility.yul\":4728:4859   */\n      tag_49\n      jump\t// in\n    tag_98:\n        /* \"#utility.yul\":4720:4859   */\n      swap1\n      pop\n        /* \"#utility.yul\":4447:4866   */\n      swap2\n      swap1\n      pop\n      jump\t// out\n        /* \"#utility.yul\":4872:5052   */\n    tag_50:\n        /* \"#utility.yul\":4920:4997   */\n      0x4e487b7100000000000000000000000000000000000000000000000000000000\n        /* \"#utility.yul\":4917:4918   */\n      0x00\n        /* \"#utility.yul\":4910:4998   */\n      mstore\n        /* \"#utility.yul\":5017:5021   */\n      0x11\n        /* \"#utility.yul\":5014:5015   */\n      0x04\n        /* \"#utility.yul\":5007:5022   */\n      mstore\n        /* \"#utility.yul\":5041:5045   */\n      0x24\n        /* \"#utility.yul\":5038:5039   */\n      0x00\n        /* \"#utility.yul\":5031:5046   */\n      revert\n        /* \"#utility.yul\":5058:5249   */\n    tag_29:\n        /* \"#utility.yul\":5098:5101   */\n      0x00\n        /* \"#utility.yul\":5117:5137   */\n      tag_101\n        /* \"#utility.yul\":5135:5136   */\n      dup3\n        /* \"#utility.yul\":5117:5137   */\n      tag_41\n      jump\t// in\n    tag_101:\n        /* \"#utility.yul\":5112:5137   */\n      swap2\n      pop\n        /* \"#utility.yul\":5151:5171   */\n      tag_102\n        /* \"#utility.yul\":5169:5170   */\n      dup4\n        /* \"#utility.yul\":5151:5171   */\n      tag_41\n      jump\t// in\n    tag_102:\n        /* \"#utility.yul\":5146:5171   */\n      swap3\n      pop\n        /* \"#utility.yul\":5194:5195   */\n      dup3\n        /* \"#utility.yul\":5191:5192   */\n      dup3\n        /* \"#utility.yul\":5187:5196   */\n      add\n        /* \"#utility.yul\":5180:5196   */\n      swap1\n      pop\n        /* \"#utility.yul\":5215:5218   */\n      dup1\n        /* \"#utility.yul\":5212:5213   */\n      dup3\n        /* \"#utility.yul\":5209:5219   */\n      gt\n        /* \"#utility.yul\":5206:5242   */\n      iszero\n      tag_103\n      jumpi\n        /* \"#utility.yul\":5222:5240   */\n      tag_104\n      tag_50\n      jump\t// in\n    tag_104:\n        /* \"#utility.yul\":5206:5242   */\n    tag_103:\n        /* \"#utility.yul\":5058:5249   */\n      swap3\n      swap2\n      pop\n      pop\n      jump\t// out\n        /* \"#utility.yul\":5255:5449   */\n    tag_31:\n        /* \"#utility.yul\":5295:5299   */\n      0x00\n        /* \"#utility.yul\":5315:5335   */\n      tag_106\n        /* \"#utility.yul\":5333:5334   */\n      dup3\n        /* \"#utility.yul\":5315:5335   */\n      tag_41\n      jump\t// in\n    tag_106:\n        /* \"#utility.yul\":5310:5335   */\n      swap2\n      pop\n        /* \"#utility.yul\":5349:5369   */\n      tag_107\n        /* \"#utility.yul\":5367:5368   */\n      dup4\n        /* \"#utility.yul\":5349:5369   */\n      tag_41\n      jump\t// in\n    tag_107:\n        /* \"#utility.yul\":5344:5369   */\n      swap3\n      pop\n        /* \"#utility.yul\":5393:5394   */\n      dup3\n        /* \"#utility.yul\":5390:5391   */\n      dup3\n        /* \"#utility.yul\":5386:5395   */\n      sub\n        /* \"#utility.yul\":5378:5395   */\n      swap1\n      pop\n        /* \"#utility.yul\":5417:5418   */\n      dup2\n        /* \"#utility.yul\":5411:5415   */\n      dup2\n        /* \"#utility.yul\":5408:5419   */\n      gt\n        /* \"#utility.yul\":5405:5442   */\n      iszero\n      tag_108\n      jumpi\n        /* \"#utility.yul\":5422:5440   */\n      tag_109\n      tag_50\n      jump\t// in\n    tag_109:\n        /* \"#utility.yul\":5405:5442   */\n    tag_108:\n        /* \"#utility.yul\":5255:5449   */\n      swap3\n      swap2\n      pop\n      pop\n      jump\t// out\n\n    auxdata: 0xa2646970667358221220ad2ab791fcf19e3c0429d84965a1fa1d5004c92b749861a87d22b3aea0ccfc9264736f6c63430008140033\n}\n",
				"bytecode": {
					"linkReferences": {},
					"object": "608060405234801561000f575f80fd5b506105f68061001d5f395ff3fe608060405234801561000f575f80fd5b506004361061003f575f3560e01c806370a0823114610043578063a9059cbb14610073578063b6b55f251461008f575b5f80fd5b61005d60048036038101906100589190610338565b6100ab565b60405161006a919061037b565b60405180910390f35b61008d600480360381019061008891906103be565b6100f0565b005b6100a960048036038101906100a491906103fc565b610285565b005b5f805f8373ffffffffffffffffffffffffffffffffffffffff1673ffffffffffffffffffffffffffffffffffffffff1681526020019081526020015f20549050919050565b5f73ffffffffffffffffffffffffffffffffffffffff168273ffffffffffffffffffffffffffffffffffffffff160361015e576040517f08c379a0000000000000000000000000000000000000000000000000000000008152600401610155906104a7565b60405180910390fd5b5f803373ffffffffffffffffffffffffffffffffffffffff1673ffffffffffffffffffffffffffffffffffffffff1681526020019081526020015f20548111156101dd576040517f08c379a00000000000000000000000000000000000000000000000000000000081526004016101d49061050f565b60405180910390fd5b805f808473ffffffffffffffffffffffffffffffffffffffff1673ffffffffffffffffffffffffffffffffffffffff1681526020019081526020015f205f828254610228919061055a565b92505081905550805f803373ffffffffffffffffffffffffffffffffffffffff1673ffffffffffffffffffffffffffffffffffffffff1681526020019081526020015f205f82825461027a919061058d565b925050819055505050565b805f803373ffffffffffffffffffffffffffffffffffffffff1673ffffffffffffffffffffffffffffffffffffffff1681526020019081526020015f205f8282546102d0919061055a565b9250508190555050565b5f80fd5b5f73ffffffffffffffffffffffffffffffffffffffff82169050919050565b5f610307826102de565b9050919050565b610317816102fd565b8114610321575f80fd5b50565b5f813590506103328161030e565b92915050565b5f6020828403121561034d5761034c6102da565b5b5f61035a84828501610324565b91505092915050565b5f819050919050565b61037581610363565b82525050565b5f60208201905061038e5f83018461036c565b92915050565b61039d81610363565b81146103a7575f80fd5b50565b5f813590506103b881610394565b92915050565b5f80604083850312156103d4576103d36102da565b5b5f6103e185828601610324565b92505060206103f2858286016103aa565b9150509250929050565b5f60208284031215610411576104106102da565b5b5f61041e848285016103aa565b91505092915050565b5f82825260208201905092915050565b7f43616e6e6f74207472616e7366657220746f207468652061646472657373207a5f8201527f65726f2021000000000000000000000000000000000000000000000000000000602082015250565b5f610491602583610427565b915061049c82610437565b604082019050919050565b5f6020820190508181035f8301526104be81610485565b9050919050565b7f4e6f7420656e6f756768206d6f6e6579202100000000000000000000000000005f82015250565b5f6104f9601283610427565b9150610504826104c5565b602082019050919050565b5f6020820190508181035f830152610526816104ed565b9050919050565b7f4e487b71000000000000000000000000000000000000000000000000000000005f52601160045260245ffd5b5f61056482610363565b915061056f83610363565b92508282019050808211156105875761058661052d565b5b92915050565b5f61059782610363565b91506105a283610363565b92508282039050818111156105ba576105b961052d565b5b9291505056fea2646970667358221220ad2ab791fcf19e3c0429d84965a1fa1d5004c92b749861a87d22b3aea0ccfc9264736f6c63430008140033",
					"opcodes": "PUSH1 0x80 PUSH1 0x40 MSTORE CALLVALUE DUP1 ISZERO PUSH2 0xF JUMPI PUSH0 DUP1 REVERT JUMPDEST POP PUSH2 0x5F6 DUP1 PUSH2 0x1D PUSH0 CODECOPY PUSH0 RETURN INVALID PUSH1 0x80 PUSH1 0x40 MSTORE CALLVALUE DUP1 ISZERO PUSH2 0xF JUMPI PUSH0 DUP1 REVERT JUMPDEST POP PUSH1 0x4 CALLDATASIZE LT PUSH2 0x3F JUMPI PUSH0 CALLDATALOAD PUSH1 0xE0 SHR DUP1 PUSH4 0x70A08231 EQ PUSH2 0x43 JUMPI DUP1 PUSH4 0xA9059CBB EQ PUSH2 0x73 JUMPI DUP1 PUSH4 0xB6B55F25 EQ PUSH2 0x8F JUMPI JUMPDEST PUSH0 DUP1 REVERT JUMPDEST PUSH2 0x5D PUSH1 0x4 DUP1 CALLDATASIZE SUB DUP2 ADD SWAP1 PUSH2 0x58 SWAP2 SWAP1 PUSH2 0x338 JUMP JUMPDEST PUSH2 0xAB JUMP JUMPDEST PUSH1 0x40 MLOAD PUSH2 0x6A SWAP2 SWAP1 PUSH2 0x37B JUMP JUMPDEST PUSH1 0x40 MLOAD DUP1 SWAP2 SUB SWAP1 RETURN JUMPDEST PUSH2 0x8D PUSH1 0x4 DUP1 CALLDATASIZE SUB DUP2 ADD SWAP1 PUSH2 0x88 SWAP2 SWAP1 PUSH2 0x3BE JUMP JUMPDEST PUSH2 0xF0 JUMP JUMPDEST STOP JUMPDEST PUSH2 0xA9 PUSH1 0x4 DUP1 CALLDATASIZE SUB DUP2 ADD SWAP1 PUSH2 0xA4 SWAP2 SWAP1 PUSH2 0x3FC JUMP JUMPDEST PUSH2 0x285 JUMP JUMPDEST STOP JUMPDEST PUSH0 DUP1 PUSH0 DUP4 PUSH20 0xFFFFFFFFFFFFFFFFFFFFFFFFFFFFFFFFFFFFFFFF AND PUSH20 0xFFFFFFFFFFFFFFFFFFFFFFFFFFFFFFFFFFFFFFFF AND DUP2 MSTORE PUSH1 0x20 ADD SWAP1 DUP2 MSTORE PUSH1 0x20 ADD PUSH0 KECCAK256 SLOAD SWAP1 POP SWAP2 SWAP1 POP JUMP JUMPDEST PUSH0 PUSH20 0xFFFFFFFFFFFFFFFFFFFFFFFFFFFFFFFFFFFFFFFF AND DUP3 PUSH20 0xFFFFFFFFFFFFFFFFFFFFFFFFFFFFFFFFFFFFFFFF AND SUB PUSH2 0x15E JUMPI PUSH1 0x40 MLOAD PUSH32 0x8C379A000000000000000000000000000000000000000000000000000000000 DUP2 MSTORE PUSH1 0x4 ADD PUSH2 0x155 SWAP1 PUSH2 0x4A7 JUMP JUMPDEST PUSH1 0x40 MLOAD DUP1 SWAP2 SUB SWAP1 REVERT JUMPDEST PUSH0 DUP1 CALLER PUSH20 0xFFFFFFFFFFFFFFFFFFFFFFFFFFFFFFFFFFFFFFFF AND PUSH20 0xFFFFFFFFFFFFFFFFFFFFFFFFFFFFFFFFFFFFFFFF AND DUP2 MSTORE PUSH1 0x20 ADD SWAP1 DUP2 MSTORE PUSH1 0x20 ADD PUSH0 KECCAK256 SLOAD DUP2 GT ISZERO PUSH2 0x1DD JUMPI PUSH1 0x40 MLOAD PUSH32 0x8C379A000000000000000000000000000000000000000000000000000000000 DUP2 MSTORE PUSH1 0x4 ADD PUSH2 0x1D4 SWAP1 PUSH2 0x50F JUMP JUMPDEST PUSH1 0x40 MLOAD DUP1 SWAP2 SUB SWAP1 REVERT JUMPDEST DUP1 PUSH0 DUP1 DUP5 PUSH20 0xFFFFFFFFFFFFFFFFFFFFFFFFFFFFFFFFFFFFFFFF AND PUSH20 0xFFFFFFFFFFFFFFFFFFFFFFFFFFFFFFFFFFFFFFFF AND DUP2 MSTORE PUSH1 0x20 ADD SWAP1 DUP2 MSTORE PUSH1 0x20 ADD PUSH0 KECCAK256 PUSH0 DUP3 DUP3 SLOAD PUSH2 0x228 SWAP2 SWAP1 PUSH2 0x55A JUMP JUMPDEST SWAP3 POP POP DUP2 SWAP1 SSTORE POP DUP1 PUSH0 DUP1 CALLER PUSH20 0xFFFFFFFFFFFFFFFFFFFFFFFFFFFFFFFFFFFFFFFF AND PUSH20 0xFFFFFFFFFFFFFFFFFFFFFFFFFFFFFFFFFFFFFFFF AND DUP2 MSTORE PUSH1 0x20 ADD SWAP1 DUP2 MSTORE PUSH1 0x20 ADD PUSH0 KECCAK256 PUSH0 DUP3 DUP3 SLOAD PUSH2 0x27A SWAP2 SWAP1 PUSH2 0x58D JUMP JUMPDEST SWAP3 POP POP DUP2 SWAP1 SSTORE POP POP POP JUMP JUMPDEST DUP1 PUSH0 DUP1 CALLER PUSH20 0xFFFFFFFFFFFFFFFFFFFFFFFFFFFFFFFFFFFFFFFF AND PUSH20 0xFFFFFFFFFFFFFFFFFFFFFFFFFFFFFFFFFFFFFFFF AND DUP2 MSTORE PUSH1 0x20 ADD SWAP1 DUP2 MSTORE PUSH1 0x20 ADD PUSH0 KECCAK256 PUSH0 DUP3 DUP3 SLOAD PUSH2 0x2D0 SWAP2 SWAP1 PUSH2 0x55A JUMP JUMPDEST SWAP3 POP POP DUP2 SWAP1 SSTORE POP POP JUMP JUMPDEST PUSH0 DUP1 REVERT JUMPDEST PUSH0 PUSH20 0xFFFFFFFFFFFFFFFFFFFFFFFFFFFFFFFFFFFFFFFF DUP3 AND SWAP1 POP SWAP2 SWAP1 POP JUMP JUMPDEST PUSH0 PUSH2 0x307 DUP3 PUSH2 0x2DE JUMP JUMPDEST SWAP1 POP SWAP2 SWAP1 POP JUMP JUMPDEST PUSH2 0x317 DUP2 PUSH2 0x2FD JUMP JUMPDEST DUP2 EQ PUSH2 0x321 JUMPI PUSH0 DUP1 REVERT JUMPDEST POP JUMP JUMPDEST PUSH0 DUP2 CALLDATALOAD SWAP1 POP PUSH2 0x332 DUP2 PUSH2 0x30E JUMP JUMPDEST SWAP3 SWAP2 POP POP JUMP JUMPDEST PUSH0 PUSH1 0x20 DUP3 DUP5 SUB SLT ISZERO PUSH2 0x34D JUMPI PUSH2 0x34C PUSH2 0x2DA JUMP JUMPDEST JUMPDEST PUSH0 PUSH2 0x35A DUP5 DUP3 DUP6 ADD PUSH2 0x324 JUMP JUMPDEST SWAP2 POP POP SWAP3 SWAP2 POP POP JUMP JUMPDEST PUSH0 DUP2 SWAP1 POP SWAP2 SWAP1 POP JUMP JUMPDEST PUSH2 0x375 DUP2 PUSH2 0x363 JUMP JUMPDEST DUP3 MSTORE POP POP JUMP JUMPDEST PUSH0 PUSH1 0x20 DUP3 ADD SWAP1 POP PUSH2 0x38E PUSH0 DUP4 ADD DUP5 PUSH2 0x36C JUMP JUMPDEST SWAP3 SWAP2 POP POP JUMP JUMPDEST PUSH2 0x39D DUP2 PUSH2 0x363 JUMP JUMPDEST DUP2 EQ PUSH2 0x3A7 JUMPI PUSH0 DUP1 REVERT JUMPDEST POP JUMP JUMPDEST PUSH0 DUP2 CALLDATALOAD SWAP1 POP PUSH2 0x3B8 DUP2 PUSH2 0x394 JUMP JUMPDEST SWAP3 SWAP2 POP POP JUMP JUMPDEST PUSH0 DUP1 PUSH1 0x40 DUP4 DUP6 SUB SLT ISZERO PUSH2 0x3D4 JUMPI PUSH2 0x3D3 PUSH2 0x2DA JUMP JUMPDEST JUMPDEST PUSH0 PUSH2 0x3E1 DUP6 DUP3 DUP7 ADD PUSH2 0x324 JUMP JUMPDEST SWAP3 POP POP PUSH1 0x20 PUSH2 0x3F2 DUP6 DUP3 DUP7 ADD PUSH2 0x3AA JUMP JUMPDEST SWAP2 POP POP SWAP3 POP SWAP3 SWAP1 POP JUMP JUMPDEST PUSH0 PUSH1 0x20 DUP3 DUP5 SUB SLT ISZERO PUSH2 0x411 JUMPI PUSH2 0x410 PUSH2 0x2DA JUMP JUMPDEST JUMPDEST PUSH0 PUSH2 0x41E DUP5 DUP3 DUP6 ADD PUSH2 0x3AA JUMP JUMPDEST SWAP2 POP POP SWAP3 SWAP2 POP POP JUMP JUMPDEST PUSH0 DUP3 DUP3 MSTORE PUSH1 0x20 DUP3 ADD SWAP1 POP SWAP3 SWAP2 POP POP JUMP JUMPDEST PUSH32 0x43616E6E6F74207472616E7366657220746F207468652061646472657373207A PUSH0 DUP3 ADD MSTORE PUSH32 0x65726F2021000000000000000000000000000000000000000000000000000000 PUSH1 0x20 DUP3 ADD MSTORE POP JUMP JUMPDEST PUSH0 PUSH2 0x491 PUSH1 0x25 DUP4 PUSH2 0x427 JUMP JUMPDEST SWAP2 POP PUSH2 0x49C DUP3 PUSH2 0x437 JUMP JUMPDEST PUSH1 0x40 DUP3 ADD SWAP1 POP SWAP2 SWAP1 POP JUMP JUMPDEST PUSH0 PUSH1 0x20 DUP3 ADD SWAP1 POP DUP2 DUP2 SUB PUSH0 DUP4 ADD MSTORE PUSH2 0x4BE DUP2 PUSH2 0x485 JUMP JUMPDEST SWAP1 POP SWAP2 SWAP1 POP JUMP JUMPDEST PUSH32 0x4E6F7420656E6F756768206D6F6E657920210000000000000000000000000000 PUSH0 DUP3 ADD MSTORE POP JUMP JUMPDEST PUSH0 PUSH2 0x4F9 PUSH1 0x12 DUP4 PUSH2 0x427 JUMP JUMPDEST SWAP2 POP PUSH2 0x504 DUP3 PUSH2 0x4C5 JUMP JUMPDEST PUSH1 0x20 DUP3 ADD SWAP1 POP SWAP2 SWAP1 POP JUMP JUMPDEST PUSH0 PUSH1 0x20 DUP3 ADD SWAP1 POP DUP2 DUP2 SUB PUSH0 DUP4 ADD MSTORE PUSH2 0x526 DUP2 PUSH2 0x4ED JUMP JUMPDEST SWAP1 POP SWAP2 SWAP1 POP JUMP JUMPDEST PUSH32 0x4E487B7100000000000000000000000000000000000000000000000000000000 PUSH0 MSTORE PUSH1 0x11 PUSH1 0x4 MSTORE PUSH1 0x24 PUSH0 REVERT JUMPDEST PUSH0 PUSH2 0x564 DUP3 PUSH2 0x363 JUMP JUMPDEST SWAP2 POP PUSH2 0x56F DUP4 PUSH2 0x363 JUMP JUMPDEST SWAP3 POP DUP3 DUP3 ADD SWAP1 POP DUP1 DUP3 GT ISZERO PUSH2 0x587 JUMPI PUSH2 0x586 PUSH2 0x52D JUMP JUMPDEST JUMPDEST SWAP3 SWAP2 POP POP JUMP JUMPDEST PUSH0 PUSH2 0x597 DUP3 PUSH2 0x363 JUMP JUMPDEST SWAP2 POP PUSH2 0x5A2 DUP4 PUSH2 0x363 JUMP JUMPDEST SWAP3 POP DUP3 DUP3 SUB SWAP1 POP DUP2 DUP2 GT ISZERO PUSH2 0x5BA JUMPI PUSH2 0x5B9 PUSH2 0x52D JUMP JUMPDEST JUMPDEST SWAP3 SWAP2 POP POP JUMP INVALID LOG2 PUSH5 0x6970667358 0x22 SLT KECCAK256 0xAD 0x2A 0xB7 SWAP2 0xFC CALL SWAP15 EXTCODECOPY DIV 0x29 0xD8 0x49 PUSH6 0xA1FA1D5004C9 0x2B PUSH21 0x9861A87D22B3AEA0CCFC9264736F6C634300081400 CALLER "
				},
				"gasEstimates": {
					"creation": {
						"codeDepositCost": "305200",
						"executionCost": "341",
						"totalCost": "305541"
					},
					"external": {
						"balanceOf(address)": "2807",
						"deposit(uint256)": "infinite",
						"transfer(address,uint256)": "infinite"
					}
				},
				"methodIdentifiers": {
					"balanceOf(address)": "70a08231",
					"deposit(uint256)": "b6b55f25",
					"transfer(address,uint256)": "a9059cbb"
				}
			},
			"storageLayout": {
				"storage": [
					{
						"astId": 5,
						"contract": "contracts/alyra/Bank.sol:Bank",
						"label": "_balances",
						"offset": 0,
						"slot": "0",
						"type": "t_mapping(t_address,t_uint256)"
					}
				],
				"types": {
					"t_address": {
						"encoding": "inplace",
						"label": "address",
						"numberOfBytes": "20"
					},
					"t_mapping(t_address,t_uint256)": {
						"encoding": "mapping",
						"key": "t_address",
						"label": "mapping(address => uint256)",
						"numberOfBytes": "32",
						"value": "t_uint256"
					},
					"t_uint256": {
						"encoding": "inplace",
						"label": "uint256",
						"numberOfBytes": "32"
					}
				}
			},
			"userdoc": {
				"kind": "user",
				"methods": {},
				"version": 1
			}
		}
	}
}