{
	"data": {
		"bytecode": {
			"linkReferences": {},
			"object": "608060405234801561000f575f80fd5b506102aa8061001d5f395ff3fe608060405234801561000f575f80fd5b5060043610610029575f3560e01c80635ec01e4d1461002d575b5f80fd5b61003561004b565b60405161004291906100b9565b60405180910390f35b5f805f81548092919061005d906100ff565b9190505550606442335f5460405160200161007a939291906101db565b604051602081830303815290604052805190602001205f1c61009c9190610244565b905090565b5f819050919050565b6100b3816100a1565b82525050565b5f6020820190506100cc5f8301846100aa565b92915050565b7f4e487b71000000000000000000000000000000000000000000000000000000005f52601160045260245ffd5b5f610109826100a1565b91507fffffffffffffffffffffffffffffffffffffffffffffffffffffffffffffffff820361013b5761013a6100d2565b5b600182019050919050565b5f819050919050565b61016061015b826100a1565b610146565b82525050565b5f73ffffffffffffffffffffffffffffffffffffffff82169050919050565b5f61018f82610166565b9050919050565b5f8160601b9050919050565b5f6101ac82610196565b9050919050565b5f6101bd826101a2565b9050919050565b6101d56101d082610185565b6101b3565b82525050565b5f6101e6828661014f565b6020820191506101f682856101c4565b601482019150610206828461014f565b602082019150819050949350505050565b7f4e487b71000000000000000000000000000000000000000000000000000000005f52601260045260245ffd5b5f61024e826100a1565b9150610259836100a1565b92508261026957610268610217565b5b82820690509291505056fea2646970667358221220a6a7d034e8dce915f345dd47ef1010ef62395922f242d15abf5103feadba7ed964736f6c63430008140033",
			"opcodes": "PUSH1 0x80 PUSH1 0x40 MSTORE CALLVALUE DUP1 ISZERO PUSH2 0xF JUMPI PUSH0 DUP1 REVERT JUMPDEST POP PUSH2 0x2AA DUP1 PUSH2 0x1D PUSH0 CODECOPY PUSH0 RETURN INVALID PUSH1 0x80 PUSH1 0x40 MSTORE CALLVALUE DUP1 ISZERO PUSH2 0xF JUMPI PUSH0 DUP1 REVERT JUMPDEST POP PUSH1 0x4 CALLDATASIZE LT PUSH2 0x29 JUMPI PUSH0 CALLDATALOAD PUSH1 0xE0 SHR DUP1 PUSH4 0x5EC01E4D EQ PUSH2 0x2D JUMPI JUMPDEST PUSH0 DUP1 REVERT JUMPDEST PUSH2 0x35 PUSH2 0x4B JUMP JUMPDEST PUSH1 0x40 MLOAD PUSH2 0x42 SWAP2 SWAP1 PUSH2 0xB9 JUMP JUMPDEST PUSH1 0x40 MLOAD DUP1 SWAP2 SUB SWAP1 RETURN JUMPDEST PUSH0 DUP1 PUSH0 DUP2 SLOAD DUP1 SWAP3 SWAP2 SWAP1 PUSH2 0x5D SWAP1 PUSH2 0xFF JUMP JUMPDEST SWAP2 SWAP1 POP SSTORE POP PUSH1 0x64 TIMESTAMP CALLER PUSH0 SLOAD PUSH1 0x40 MLOAD PUSH1 0x20 ADD PUSH2 0x7A SWAP4 SWAP3 SWAP2 SWAP1 PUSH2 0x1DB JUMP JUMPDEST PUSH1 0x40 MLOAD PUSH1 0x20 DUP2 DUP4 SUB SUB DUP2 MSTORE SWAP1 PUSH1 0x40 MSTORE DUP1 MLOAD SWAP1 PUSH1 0x20 ADD KECCAK256 PUSH0 SHR PUSH2 0x9C SWAP2 SWAP1 PUSH2 0x244 JUMP JUMPDEST SWAP1 POP SWAP1 JUMP JUMPDEST PUSH0 DUP2 SWAP1 POP SWAP2 SWAP1 POP JUMP JUMPDEST PUSH2 0xB3 DUP2 PUSH2 0xA1 JUMP JUMPDEST DUP3 MSTORE POP POP JUMP JUMPDEST PUSH0 PUSH1 0x20 DUP3 ADD SWAP1 POP PUSH2 0xCC PUSH0 DUP4 ADD DUP5 PUSH2 0xAA JUMP JUMPDEST SWAP3 SWAP2 POP POP JUMP JUMPDEST PUSH32 0x4E487B7100000000000000000000000000000000000000000000000000000000 PUSH0 MSTORE PUSH1 0x11 PUSH1 0x4 MSTORE PUSH1 0x24 PUSH0 REVERT JUMPDEST PUSH0 PUSH2 0x109 DUP3 PUSH2 0xA1 JUMP JUMPDEST SWAP2 POP PUSH32 0xFFFFFFFFFFFFFFFFFFFFFFFFFFFFFFFFFFFFFFFFFFFFFFFFFFFFFFFFFFFFFFFF DUP3 SUB PUSH2 0x13B JUMPI PUSH2 0x13A PUSH2 0xD2 JUMP JUMPDEST JUMPDEST PUSH1 0x1 DUP3 ADD SWAP1 POP SWAP2 SWAP1 POP JUMP JUMPDEST PUSH0 DUP2 SWAP1 POP SWAP2 SWAP1 POP JUMP JUMPDEST PUSH2 0x160 PUSH2 0x15B DUP3 PUSH2 0xA1 JUMP JUMPDEST PUSH2 0x146 JUMP JUMPDEST DUP3 MSTORE POP POP JUMP JUMPDEST PUSH0 PUSH20 0xFFFFFFFFFFFFFFFFFFFFFFFFFFFFFFFFFFFFFFFF DUP3 AND SWAP1 POP SWAP2 SWAP1 POP JUMP JUMPDEST PUSH0 PUSH2 0x18F DUP3 PUSH2 0x166 JUMP JUMPDEST SWAP1 POP SWAP2 SWAP1 POP JUMP JUMPDEST PUSH0 DUP2 PUSH1 0x60 SHL SWAP1 POP SWAP2 SWAP1 POP JUMP JUMPDEST PUSH0 PUSH2 0x1AC DUP3 PUSH2 0x196 JUMP JUMPDEST SWAP1 POP SWAP2 SWAP1 POP JUMP JUMPDEST PUSH0 PUSH2 0x1BD DUP3 PUSH2 0x1A2 JUMP JUMPDEST SWAP1 POP SWAP2 SWAP1 POP JUMP JUMPDEST PUSH2 0x1D5 PUSH2 0x1D0 DUP3 PUSH2 0x185 JUMP JUMPDEST PUSH2 0x1B3 JUMP JUMPDEST DUP3 MSTORE POP POP JUMP JUMPDEST PUSH0 PUSH2 0x1E6 DUP3 DUP7 PUSH2 0x14F JUMP JUMPDEST PUSH1 0x20 DUP3 ADD SWAP2 POP PUSH2 0x1F6 DUP3 DUP6 PUSH2 0x1C4 JUMP JUMPDEST PUSH1 0x14 DUP3 ADD SWAP2 POP PUSH2 0x206 DUP3 DUP5 PUSH2 0x14F JUMP JUMPDEST PUSH1 0x20 DUP3 ADD SWAP2 POP DUP2 SWAP1 POP SWAP5 SWAP4 POP POP POP POP JUMP JUMPDEST PUSH32 0x4E487B7100000000000000000000000000000000000000000000000000000000 PUSH0 MSTORE PUSH1 0x12 PUSH1 0x4 MSTORE PUSH1 0x24 PUSH0 REVERT JUMPDEST PUSH0 PUSH2 0x24E DUP3 PUSH2 0xA1 JUMP JUMPDEST SWAP2 POP PUSH2 0x259 DUP4 PUSH2 0xA1 JUMP JUMPDEST SWAP3 POP DUP3 PUSH2 0x269 JUMPI PUSH2 0x268 PUSH2 0x217 JUMP JUMPDEST JUMPDEST DUP3 DUP3 MOD SWAP1 POP SWAP3 SWAP2 POP POP JUMP INVALID LOG2 PUSH5 0x6970667358 0x22 SLT KECCAK256 0xA6 0xA7 0xD0 CALLVALUE 0xE8 0xDC 0xE9 ISZERO RETURN GASLIMIT 0xDD SELFBALANCE 0xEF LT LT 0xEF PUSH3 0x395922 CALLCODE TIMESTAMP 0xD1 GAS 0xBF MLOAD SUB INVALID 0xAD 0xBA PUSH31 0xD964736F6C6343000814003300000000000000000000000000000000000000 "
		},
		"gasEstimates": {
			"creation": {
				"codeDepositCost": "136400",
				"executionCost": "181",
				"totalCost": "136581"
			},
			"external": {
				"random()": "infinite"
			}
		},
		"methodIdentifiers": {
			"random()": "5ec01e4d"
		}
	},
	"abi": [
		{
			"inputs": [],
			"name": "random",
			"outputs": [
				{
					"internalType": "uint256",
					"name": "",
					"type": "uint256"
				}
			],
			"stateMutability": "nonpayable",
			"type": "function"
		}
	]
}